:020000040800F2
:1000000038080020450100087B230008131E000863
:100010007923000825040008512B00080000000087
:10002000000000000000000000000000AB240008F9
:10003000F505000800000000A9240008AD24000810
:100040005F0100085F0100085F0100085F01000810
:100050005F0100085F0100085F0100085F01000800
:100060005F0100085F0100085F0100085F010008F0
:100070005F0100085F0100085F0100085F010008E0
:100080005F0100085F0100085F0100085F010008D0
:100090005F0100085F0100085F0100085F010008C0
:1000A0005F0100085F0100085F010008FD240008EF
:1000B0000925000815250008212500085F01000812
:1000C0005F0100085F0100085F0100085F01000890
:1000D0005F010008312B00083D2B0008452B00086C
:1000E0005F0100085F0100085F0100085F01000870
:1000F0005F0100085F010008392500085F01000862
:100100005F0100085F0100082D2500085F0100085D
:100110005F0100085F0100085F0100085F0100083F
:100120005F0100085F0100085F0100085F0100082F
:10013000DFF80CD000F064F9004800476D2B000890
:10014000380800200648804706480047FEE7FEE7DB
:10015000FEE7FEE7FEE7FEE7FEE7FEE7FEE7FEE777
:10016000FB24000831010008D2B201E000F8012BA5
:10017000491EFBD270470022F6E710B513460A4627
:1001800004461946FFF7F0FF204610BDF0B480EAA0
:100190000102D40F4200B2EB410F02D202460846E0
:1001A00011464A0042D0C30DDDB2C1F3C752AD1AA9
:1001B000202D35DAC1F3160141F4000204B1524298
:1001C000C5F1200602FA06F12A411044B3EBD05FD4
:1001D00023D0C4B1012DA0EBC35009DCF0BC4FF01B
:1001E000004202EAC352DBB200F5000000F0DAB8C8
:1001F000400000F1807000EBC350A0F1807040EA35
:10020000D170490009E0490841EAC071A0EBC35030
:1002100000F50000400800EBC350F0BC00F0B9B896
:100220006142012202EB4101001BF6E7F0BC70477E
:1002300081F00041AAE780F00040A7E780EA0102D0
:1002400010B502F00043400022D04A001FD0010E3A
:1002500001EB1261C0F35600C2F3560240F40000F5
:1002600042F40002A0FB022000047F39140400D0F5
:10027000401C50EA124001D44000491EC2B20C0694
:1002800004EBD010401C4008802A02D003E000207C
:1002900010BD20F00100002900DA0020184310BD35
:1002A00030B480EA010202F0004530F0004221F053
:1002B000004013D090B1C30DD40DC2F31601C0F3AA
:1002C0001600E41A41F4000140F400027D3491422A
:1002D00001D3641C00E04900002C02DA30BC00208D
:1002E00070474FF400000023914201D3891A034361
:1002F00040084FEA4101F7D151B1914202D14FF08C
:10030000004105E002D24FF0010101E06FF0010170
:1003100003EBC450284430BC00F03BB8C10F80EA66
:10032000E0700844CA079623002100F03BB89623EA
:100330000022114600F036B800F0004220F00040E4
:10034000C10DC0F3160040F400007F2901DA00203F
:100350007047962903DCC1F19601C84001E0963947
:100360008840002AF4D04042704720F00040C10D80
:10037000C0F3160040F400007F2901DA0020704726
:10038000962903DCC1F19601C84070479639884030
:1003900070470029A8BF7047401C490008BF20F0E3
:1003A0000100704710B4B0FA80FC00FA0CF050EA7B
:1003B000010404BF10BC704749B1CCF1200421FAFC
:1003C00004F411FA0CF118BF012121430843A3EBF7
:1003D0000C01CB1D4FEA00614FEA102042BF002004
:1003E00010BC704700EBC35010440029A4BF10BCE0
:1003F0007047401C490008BF20F0010010BC704746
:10040000064C074D06E0E06840F0010394E8070061
:1004100098471034AC42F6D3FFF78EFEA42E0008A6
:10042000C42E0008FEE700002DE9F047664C884620
:1004300081460421002204F50065284600F04CFAAC
:1004400028460121012200F047FA61485F4E6149C8
:10045000A9EB080702683846776002F06BFCB0F140
:10046000FF3F70610CDC404204210122706128468C
:1004700000F032FA28460121002200F02DFA7069BE
:10048000DFF854A1B0F5FA6F04F5A0554FF0010262
:10049000C4BF4FF4FA607061DAF800104863284670
:1004A0004FF4805100F018FA28464FF480410022A2
:1004B00000F012FA49484A49F7600268384602F0EB
:1004C000A1FCB0F1FF3FF0610EDC40424FF48051DF
:1004D0000022F061284600F0FFF928464FF48041E1
:1004E000012200F0F9F9F069B0F5FA6F4FF001025E
:1004F000C4BF4FF4FA60F061DAF800108863204658
:100500004FF4806100F0E8F904F540674FF4804152
:100510000022384600F0E0F93248334908EB09057B
:1005200035600268284602F0D1FBB0F1FF3F306130
:100530000EDC40424FF4806100223061204600F022
:10054000CBF938464FF48041012200F0C5F93069FB
:10055000B0F5FA6F4FF00102C4BF4FF4FA6030619A
:10056000DAF80010C86338464FF4005100F0B4F9CF
:1005700038464FF40041002200F0AEF91B481C49F8
:10058000B5600268284602F009FCB0F1FF3FB06197
:100590000EDC38464FF40051002200F09DF9384639
:1005A0004FF40041012200F097F9B0694042B06178
:1005B000B0F5FA6FA4BF4FF4FA60B061DAF800103A
:1005C0000864BDE8F08700BF000C01403000002047
:1005D0001000002074000020EC0100201800002012
:1005E0009C0000200C00002060000020140000206F
:1005F000880000207047704790F82110022912D11E
:10060000016801230A6822F00E020A600A6822F0DB
:1006100001020A60D0E90F1203FA02F24A600021D7
:1006200080F8213002E0042181630121002280F85A
:10063000202008467047000090F8211002291FBFB3
:1006400004218163012070470268116821F00E01C6
:100650001160116821F001011160294901F17C0349
:100660009A420BD92E4B9A4220D02E4B9A421FD041
:100670002D4B9A421ED14FF4807323E0214B9A42B6
:1006800026D0214B9A4225D0204B9A4224D0204B91
:100690009A4224D01F4B9A4217D01F4B9A4221D026
:1006A0001E4B9A4211D14FF080721DE0012309E0E8
:1006B000102307E001F5886C4FF48033624508BFD2
:1006C0004FF48053C1F800340FE04FF480320BE058
:1006D000012209E0102207E04FF4807204E04FF499
:1006E000805201E04FF480120A604FF4807101845F
:1006F000416B19B180B58847002080BD002070474C
:1007000004000240080002401C0002403000024089
:1007100044000240580002406C0002408000024049
:10072000080402401C040240300402402DE9FE4F40
:100730005D4A06274FF0000B4FF001094FF0000A09
:100740000025904208BF0527584A02444FEAB223C9
:10075000052B38BF4FEAB22700F1140201970F278B
:1007600000920A6832FA05F308BFBDE8FE8F09FA65
:1007700005FE12EA0E0F00F093804A68032A16D98C
:10078000112A27D0122A29D0494B9A4213D0494B1B
:100790009A421CBF484B9A420DD0484B9A421CBF0C
:1007A000474B9A4207D0474B9A4204D023E0DFE8F8
:1007B00002F002191C208A684AB1012A009A4FF0FF
:1007C000080A08BF00F11002C2F800E013E04FF081
:1007D000040A10E0CA6802F1040A0CE0CA6802F1D7
:1007E0000C0A08E0D1F80CA005E0CA6802F1080A7A
:1007F00001E04FF0000A082D02462E4628BF0432C1
:100800001368314C28BF2644B40007FA04F60AFAEC
:1008100004F4B34323431360CA79D20640D55C4A3B
:1008200025F00306136843F001031360126802F019
:10083000010202920BF00C02244C07FA02F8DDF8D8
:1008400008C0234F2644F35923EA080C019B03FAFE
:1008500002F242EA0C02F2510F274A68236812F4AE
:10086000803F0CBF23EA0E0343EA0E032360930389
:10087000636854BF23EA0E0343EA0E036360D302A6
:10088000144EA36854BF23EA0E0343EA0E039202F8
:10089000A360326854BF22EA0E0242EA0E023260BE
:1008A0000BF1040B01355CE7001C014000F8FEBFB2
:1008B0000000111000001210000021100000221092
:1008C0000000311000003210F8FFFF3F000401402B
:1008D00008FCFFFF0C040140002A08BF0904016165
:1008E000704700001B488068704700BF19480178B6
:1008F000826811448160704780B50748016841F003
:1009000010010160032000F081F8002000F006F8DB
:1009100000F022F8002080BD0020024070B50D4E8E
:1009200004464FF47A713078B1FBF0F096490968CB
:10093000B1FBF0F000F018FB01250F2C08D838B9F6
:100940004FF0FF3021460022002500F033F874609C
:10095000284670BD1C00002082B00D4802220168AC
:1009600041F001010160016801F00101019101996B
:10097000416841F080514160406800F08050009033
:1009800000980448016862F31A61016002B0704780
:100990001810024004000140002808DB00F01F018D
:1009A0000122400902FA01F1014A42F82010704781
:1009B00000E100E0B0B5144C1A4D00F00F03B0F1A7
:1009C000FF3FA3F104032B4403F10C03C8BF031939
:1009D0002868C0F30220051DC41E80F00700072D03
:1009E0004FF0010538BF0024042828BF042005FA71
:1009F00000F00138084005FA04F10F31A040114021
:100A0000084300011870B0BD00E400E005494FF64E
:100A1000FF030A681A4060F30A2203481043086083
:100A2000704700BF0CED00E00000FA052DE9F04131
:100A300004468846002C00F08880464F4FF48050D2
:100A4000395801F0070141450AD2395821F0070110
:100A500041EA08013950385800F00700404574D188
:100A6000206810F0020F11D0410742BF796841F4AD
:100A7000E0617960010742BF796841F460517960B3
:100A80007968A26821F0F00111437960C00727D08E
:100A90006068012804D1396811F4003F08D154E09E
:100AA0003968022802D1890102D44EE089074CD569
:100AB000796821F0030108437860FFF713FF0646C9
:100AC00041F288357868616800F00C00B0EB810F66
:100AD00006D0FFF707FF801BA842F3D9032035E0BB
:100AE0004FF48050395801F0070141450AD939586F
:100AF00021F0070141EA08013950385800F0070099
:100B0000404522D1206810F0040F05D07968E268D2
:100B100021F4E06111437960000706D57868216906
:100B200020F4605040EAC100786000F031F8796844
:100B3000094AC1F30311515CC840134908600748D2
:100B40000068FFF7EBFE002000E00120C0B2BDE826
:100B5000F08100BF001002408A2E00082000002013
:100B600009480A4A006818490968C1F30221515C22
:100B7000C8407047FA48054A0068F7490968C1F358
:100B8000C221515CC8407047280000209A2E0008FE
:100B90000D490A680D4802F00C03082B18BF704776
:100BA000C2F3834C0AA312F4803F13F80C3002D135
:100BB0000C4858437047096809A25843C1F34041A3
:100BC000515CB0FBF1F070470410024000127A0053
:100BD00002030405060708090A0B0C0D0E0F10107E
:100BE0000102000000093D002DE9FE4F8246BAF1E6
:100BF000000F00F065819AF80000D64ED64FC0076E
:100C000050D0386800F00C00042819D0386800F083
:100C10000C00082803D1386810F4803F10D1DAF8AE
:100C20000400A8B1B0F5803F06D03168B0F5A02F20
:100C300024D141F480203060306840F4803023E0DB
:100C4000306810F4003F2DD0DAF8040050BB37E1D3
:100C5000306820F480303060306820F480203060CC
:100C6000FFF740FE0546306810F4003F1AD0FFF74A
:100C700039FE411B03206429F5D922E121F480309B
:100C80003060306820F480203060FFF72BFE05468E
:100C9000306810F4003F05D1FFF724FE401B6428A4
:100CA000F6D9EBE09AF800008007AC48834632D5CD
:100CB000386810F00C0F1DD0386800F00C000828C0
:100CC00004BF386810F4803F14D0DAF81000002810
:100CD00000F09580012059460860FFF703FE0546A5
:100CE000306810F0020F0ED1FFF7FCFD401B022808
:100CF000F6D9C3E0306810F0020F1CBFDAF810001C
:100D0000012840F0DD803068DAF8141020F0F80097
:100D100040EAC10030609AF80000000731D5DAF8E7
:100D2000180080B101205946C1F88004FFF7DAFDB0
:100D30000546386A10F0020F16D1FFF7D3FD401BAD
:100D40000228F6D99AE000205946C1F88004FFF73E
:100D5000C9FD0546386A10F0020F12D0FFF7C2FD38
:100D6000401B0228F6D989E07D484FF4FA5100680B
:100D7000B0FBF1F0029000BF0298411E00280291E2
:100D8000F9D19AF80000400740F18180B86910F06D
:100D9000805F0BD1B8694FF0010840F08050B86116
:100DA000B86900F080500190019801E04FF0000810
:100DB0006C48305810F4807F12D16A48315841F4A1
:100DC00080713150FFF78EFD05466648305810F4AB
:100DD000807F05D1FFF786FD401B6428F5D94DE0E3
:100DE000DAF80C00E8B1012805D0F969052830D1FE
:100DF00041F00400F861F86940F001002FE00020A4
:100E000059460860FFF76EFD0546306810F0020F86
:100E10003FF481AFFFF766FD411B03200229F4D99F
:100E20004FE0F86920F00100F861F86920F0040053
:100E3000F861FFF757FD054641F28839F86910F06F
:100E4000020F1DD0FFF74EFD411B03204945F5D988
:100E500037E021F00100F861F86920F00400F86142
:100E6000FFF740FD054641F28834F86910F0020FA3
:100E700006D1FFF737FD401BA042F6D9032020E042
:100E8000B8F1010F02BFB86920F08050B861DAF8FC
:100E90001C405946002C5AD0386800F00C00082835
:100EA00013D1012C0CD03868DAF8201000F480320D
:100EB0008A4205D1DAF8241000F47010884246D036
:100EC0000120C0B203B0BDE8F08F00200866FFF734
:100ED00009FD0546022C0AD1306810F0007F11D0C0
:100EE000FFF700FD411B03200229F5D9E9E730682F
:100EF00010F0007F2BD0FFF7F5FC411B03200229E7
:100F0000F5D9DEE7DAF82000B0F5803F06D1396880
:100F1000DAF8082021F4003111433960396821F4EE
:100F200074110843DAF82410084338600120CBF824
:100F30006000FFF7D7FC0446306810F0007F06D150
:100F4000FFF7D0FC011B03200229F5D9B9E70020E7
:100F5000B7E700BF00100240041002400000424208
:100F6000280000200060FEFF411E0020B0EB116F42
:100F70001CBF01207047044AF023516003490B70E5
:100F8000072190601160704710E000E023ED00E061
:100F90007047704790F83C300222012B2ED080B56C
:100FA000012380F83C3080F83D2002685368D2F875
:100FB00008C0B2F1804F23F0700E0B6843EA0E03B5
:100FC0005360BDE880400ED0524B9A421CBF524B3A
:100FD0009A4208D0514B9A421CBF514B9A4202D0C0
:100FE000504B9A4204D149682CF080031943916018
:100FF0000121002280F83D1080F83C20D0B27047DB
:1010000010B5044634B394F83D0028B9002084F8A4
:101010003C00204600F020F80220211D84F83D000D
:10102000206801F08FFA012084F8460084F83E0021
:1010300084F83F0084F8400084F8410084F84200BE
:1010400084F8430084F8440084F8450084F83D00A7
:10105000002010BD012010BDE0B5016816482D4AE2
:10106000914216D0B1F1804F18BF8CBD01680022AB
:1010700041F0010101600021006800F001000190D1
:1010800001981C20FFF796FC1C20BDE88C40FFF760
:1010900083BC0168002241F0020101600021006868
:1010A00000F00200009000981D20FFF783FC1D2037
:1010B000BDE88C40FFF770BC1C10024090F83D105A
:1010C00001291CBF01207047022180F83D100068F3
:1010D000C168B0F1804F41F00101C1600ED00D49EF
:1010E00088421CBFDC49884208D0DC4988421CBFCA
:1010F000DB49884202D0DB49884204D1816801F093
:101100000701062903D0016841F0010101600020B8
:10111000704700BF0004004000080040000C004081
:1011200000340140002C014010B50446022094F820
:101130003C20012A7ED0012284F83C2084F83D0026
:101140004FF67772206884465CF8083F23EA020273
:10115000CCF800200B6813B3102B20D0202B18BF25
:10116000302B1CD0402B22D0502B2ED0602B3AD0CD
:10117000B3F5005F45D0702B56D1D1E90102C968A3
:10118000104340EA0120DCF8001021F47F410843BD
:10119000CCF80000DCF8000040F0770042E0DCF81A
:1011A000000020F07700184340F007003AE04B6859
:1011B000CA68194601F0E4FAD4F800C05CF8080FD8
:1011C00020F0770040F047002CE04B68CA681946D1
:1011D00001F0D6FAD4F800C05CF8080F20F07700D0
:1011E00040F057001EE04B68CA68194601F0D9FA72
:1011F000D4F800C05CF8080F20F0770040F06700DA
:1012000010E0D1E90102C968104340EA0120DCF88E
:10121000001021F47F410843CCF80000DCF8000006
:1012200040F48040CCF80000012084F83D0000200C
:1012300084F83C00C0B210BD2DE9F84F04460D46BD
:10124000002C4DD094F83D0028B9002084F83C00D3
:10125000204600F049F8022044F2070284F83D00DD
:101260002068816891438160211D01F06BF920683D
:101270008168D0F818A0D0F820C0D5E9003ED5E9A3
:1012800002B7D5E90489D5E9062619432B6A4BEA4A
:1012900002224FF6FC4581604FF6FF71AA432AEA0D
:1012A00001013943114341EA062141EA081141EAAB
:1012B000033181612CF0220141EA0E0141EA09115A
:1012C0000162012084F8460084F83E0084F83F0063
:1012D00084F8420084F8430084F83D00002000E0D8
:1012E000012001B0BDE8F08F70B586B00022CDE9D5
:1012F0000422CDE902220368534D544C5448554909
:10130000554EB34230D0554A934255D0544A934239
:1013100073D0544A934240F094800A6800F580509C
:1013200042F400620A600A6802F400620192019AC3
:101330000A6842F040020A60096801F04001019128
:1013400001994FF4206102910021CDE9031102A916
:10135000FFF7ECF9206800210022284320601B20C1
:10136000FFF728FB1B206AE04B6800F5406043F064
:1013700004034B604B6803F004030193019B0B686B
:1013800043F020030B60096801F0200101910199ED
:101390004FF44051CDE9021202A90492FFF7C6F9B9
:1013A000216805F5746000220843002120601E209A
:1013B000FFF700FB1E2042E04A6842F008024A6044
:1013C0004A6802F008020192019A0A6842F0040297
:1013D0000A60096801F00401019101990321029159
:1013E0000021CDE9031102A9FFF7A0F93220002165
:1013F0000022FFF7DFFA322021E00A6800F50060E2
:1014000042F400520A600A6802F400520192019A02
:101410000A6842F010020A60096801F010010191A7
:101420000199C02102910021CDE9031102A9FFF722
:101430007DF92E2000210022FFF7BCFA2E20FFF7B5
:10144000ABFA06B070BD00BFC00000070400014049
:10145000000801401810024000080040000C004045
:1014600000340140002C014010B590F83E4090F847
:101470003F3090F842E090F843C0012204290BD09D
:10148000A9B9012C08BFBEF1010F41D1022180F89A
:101490003E1080F842102CE0012B08BFBCF1010F78
:1014A00036D1022180F83F1080F843101DE0012C56
:1014B00008BF012B2CD1BEF1010F08BFBCF1010FF9
:1014C00026D10222002980F83E2080F83F2080F8B3
:1014D000422080F843200CD001680A6A22F0010201
:1014E0000A620A6A42F001020A6210216FF01002D9
:1014F00002E001216FF001020068036A1A400262F3
:10150000026A114300220162016841F00101016099
:10151000104610BD704710B504462068016911F0EF
:10152000020F1CBFC16811F0020F15D06FF002014D
:10153000016101212177806910F0030F03D020465B
:10154000FFF7E8FF05E0204600F0E4F8204600F051
:101550005CF9002020772068016911F0040F1CBF9E
:10156000C16811F0040F15D06FF004010161022170
:101570002177806910F4407F03D02046FFF7CAFF2F
:1015800005E0204600F0C6F8204600F03EF90020B5
:1015900020772068016911F0080F1CBFC16811F0A5
:1015A000080F15D06FF00801016104212177C0698F
:1015B00010F0030F03D02046FFF7ACFF05E02046F4
:1015C00000F0A8F8204600F020F9002020772068DD
:1015D000016911F0100F1CBFC16811F0100F15D078
:1015E0006FF01001016108212177C06910F4407F7C
:1015F00003D02046FFF78EFF05E0204600F08AF872
:10160000204600F002F9002020772068016911F0DF
:10161000010F1CBFC16811F0010F06D06FF001016E
:101620000161204600F05EF92068016911F0800F29
:101630001CBFC16811F0800F06D06FF080010161FE
:101640002046FFF7A5FC2068016911F0400F1CBF80
:10165000C16811F0400F06D06FF0400101612046D3
:1016600000F0A0F92068016911F0200F1CBFC168CB
:1016700011F0200F00D110BD6FF020010161204654
:10168000BDE81040FFF785BC70B586B00021CDE9FC
:101690000411CDE902110068B0F1804F2ED1184835
:1016A000022602AD016841F004010160016801F009
:1016B000040101910199016841F008010160294686
:1016C000006800F008000190019848F20C000290B8
:1016D000039605960B4C2046FFF728F8082029466C
:1016E000CDE9020604F580600596FFF71FF806486D
:1016F0000168064A1140064A1143016006B070BDF8
:10170000181002400008014004000140FFFCFFF8EF
:101710000001000770470000B0B504460D4694F87C
:101720003C00012801D1022040E0012084F83C0067
:101730004FEAB200032836D8DFE800F0020A12228E
:101740002068294600F046FF206850F8181F0EE078
:101750002068294600F076FF206850F8181F16E030
:101760002068294600F0A8FF206850F81C1F41F0AF
:1017700008010160016821F00401016029690FE09E
:101780002068294600F0D2FF206850F81C1F41F461
:1017900000610160016821F480610160296909022A
:1017A000026811430160002084F83C00C0B2B0BD63
:1017B00010B5044634B394F83D0028B9002084F8ED
:1017C0003C00204600F020F80220211D84F83D0056
:1017D000206800F0B7FE012084F8460084F83E003F
:1017E00084F83F0084F8400084F8410084F8420007
:1017F00084F8430084F8440084F8450084F83D00F0
:10180000002010BD012010BD7047704739B1032280
:10181000082908BF0222042908BF012200E0002293
:10182000024492F83E20012A1CBF01207047022288
:1018300041B1082909D0042914BF80F8412080F85B
:101840003F2004E080F83E2001E080F8402000685E
:1018500001F01F01012202FA01F1026AB0F1804F8A
:1018600022EA01020262026A41EA020101621CBF2D
:101870001749884221D0174988421CBF164988421F
:101880001BD0164988421CBF154988421AD1416CA9
:10189000B0F1804F41F4004141640ED00C498842C0
:1018A0001CBF0C49884208D00B4988421CBF0B4919
:1018B000884202D00A49884204D1816801F00701B8
:1018C000062903D0016841F0010101600020704742
:1018D0000004004000080040000C004000340140BB
:1018E000002C0140B0B52A484FF49231294C002316
:1018F0004258435011B2E1600168036009B22161AE
:10190000D0F80014C0F8003409B261614FF4963188
:101910004258435010B2A061D4E90110012908BF18
:1019200002280CD100F076FA1D4D286000F0DEFA96
:1019300001280ED100210020216029600CE001283F
:101940000ED116480068012812DB1E2000F03AFF75
:1019500011E029681E202060BDE8B040FEF764BD9C
:101960000D480021006841638163C1630164B0BD1B
:10197000B0F1FF3F09DD0848002100684163816341
:10198000C16301640220A060B0BD6FF01D00DDE7FF
:101990002408004000000020EC010020F00000209E
:1019A000EC0000207047704770470000F8B504460F
:1019B00022681068D168556900F02F0601F02003F5
:1019C000202E05D123B12046BDE8F84000F0F6BF37
:1019D0005FEA007C08D005F0010E11F4907F8EF0D4
:1019E00001054AD1002D48D00840C106216B2ED5F3
:1019F00001292CD1002000901068009050680090C0
:101A00000098506910F0400F40F08E80A08DE18D5D
:101A1000E38D002B00F0DC80401A81B2002900F039
:101A2000D780D06820F49070D060506920F0010019
:101A30005061202084F83E0000202063D06820F010
:101A40001000D0602046BDE8F440FFF7ACBF0106AF
:101A500040F1978094F83D00212840F0B980A068BB
:101A6000B0F5805F04BF2069002800F0A380206AE1
:101A7000411C216200785060A3E0C60706D011F433
:101A800080761EBF266C46F00106266400F004072F
:101A9000012686EA97072F4302BF276C47F002070B
:101AA000276400F0020786EA5706354302BF256C1B
:101AB00045F00405256453EA0E0318BF0123BCF169
:101AC000000F05D5012B02BF236C43F008032364EC
:101AD000236C002B7CD00840800603D5204600F004
:101AE0006DFF22685069216C00F0400001F0080190
:101AF000084359D0204600F04BFF2068416911F09F
:101B0000400F4CD0416921F040014161A06B002899
:101B100045D034494163FEF78FFD002858D0A06BB3
:101B2000416BBDE8F8400847A06B01684B689EB266
:101B3000002E4DD0A18D8E424AD2E3858369202BA1
:101B400017D0D16821F48071D160516921F0010171
:101B50005161516921F040015161202184F83E100A
:101B600000212163D16821F01001D160FEF744FD0E
:101B7000A18DE08D081A81B22046BDE8F840FFF73C
:101B800012BF400624D5D06820F04000D06020204D
:101B900084F83D002046BDE8F84000F039B9204601
:101BA000BDE8F840FFF700BF2046FFF7FDFE00202C
:101BB0002064F8BD206A30F8021B6FF35F2151608A
:101BC0002062E08C4FF6FF7101380842E08400D0BB
:101BD000F8BDD06820F08000D060D06840F04000B0
:101BE000D060F8BD8529000810B5044644B394F8C8
:101BF0003D0028B9002084F83C00204600F022F87F
:101C0000242084F83D002068C16821F40051C1609F
:101C1000204600F031FF2068016921F49041016104
:101C2000416921F02A014161C16841F40051C1605C
:101C300000202021206484F83D1084F83E1010BD5F
:101C4000012010BD2DE9F04186B00025CDE90455F5
:101C5000CDE902550168534F534E544CF348544A52
:101C6000914237D0694A914264D0524A914240F041
:101C700096800168A4F5406402AD41F480410160A2
:101C8000016801F4804101910199016841F004016A
:101C900001602946006800F00400019001984FF4AB
:101CA0000070029002200390032005902046FEF76A
:101CB0003DFD4FF48060294602900020CDE90300ED
:101CC0002046FEF733FD252000210022FEF772FE9C
:101CD000252062E041680DF1080841F400314160BF
:101CE000416801F4003101910199016841F020013E
:101CF00001604146006800F020000190019820201A
:101D0000029002200390032005902046FEF70EFD6E
:101D100040204146CDE9020520460495FEF706FD28
:101D2000306800210022384330602620FEF742FE52
:101D3000262032E0416802AD41F4802141604168D3
:101D400001F4802101910199016841F020010160B5
:101D50002946006800F02000019001984FF480703F
:101D6000029002200390032005902046FEF7DEFC3F
:101D70004FF40070294602900020CDE90300204670
:101D8000FEF7D4FC316807F1280000220843002147
:101D900030602720FEF70EFE2720FEF7FDFD06B07F
:101DA000BDE8F08108000007040001400014014074
:101DB000004400400038014010B590F83E30202B20
:101DC00006D1012429B122B190F83C30012B02D177
:101DD0000224E0B210BD0123002480F83C300463EB
:101DE00000F08CFEF5E70000B0B504462068074D12
:101DF000A84202D100F0CAFA206805F57041884275
:101E000018BFB0BDBDE8B04000F044B80048004085
:101E10007047FEE780B53F49D1E908038A6A012887
:101E200008BF012B03D1012A04BF002080BDD1F8D7
:101E30002CE0012B08BF012A04D1BEF1010F04BF21
:101E40000A2080BDD1F81CC0012B08BF012805D194
:101E5000BCF1010F02D16FF0090080BDBEF1010F8E
:101E60004FF014001CBF0A6B012A0AD089690020B8
:101E7000012908BF6FF01300BCF1010F08BF6FF01C
:101E8000130080BD234900200122C8601648FFF7D7
:101E900093BF00BF80B51F4ADFF844C01168122904
:101EA0001CBF9CF80030012B13D1DFF838E0012370
:101EB0008CF80030DEF80000431C02EB8000082B99
:101EC000CEF80030416102BF0020CEF800008CF84F
:101ED000000005480F490122BDE88040FFF76CBFB4
:101EE0009C010020980100205403002080B509487F
:101EF000D0E906CED0E90831826A006B194311435C
:101F000041EA0C0141EA0E0108434FF0020008BF0C
:101F1000012080BDE00000202DE9F04F85B043484E
:101F2000444D00224FF4604A4FF00009016841F02F
:101F300010010160016801F010010191019901682F
:101F400041F004010160016801F00401019101996F
:101F5000016841F040010160016801F04001019118
:101F60000199016841F008010160016801F0080170
:101F700001910199016841F020010160016801F0BF
:101F8000200101910199016841F4807101604FF4D1
:101F90006041006800F4807001900198244C04F5C1
:101FA00040673846A84720464FF480610022A84782
:101FB00004F50066052100223046A84704F5A05824
:101FC0004FF4A04100224046A8474FF0010BCDF846
:101FD00004A001AD4FF0020A3846CDE902B9DFF89E
:101FE00058902946CDF810A0C8474FF48060294684
:101FF000CDE9010B0020CDE9030A2046C8470520A2
:1020000029460024CDE9010B002003903046CDF88D
:1020100010A0C8474FF4A0402946CDE9010B404627
:10202000CDE9034AC84705B0BDE8F08F181002405B
:10203000000C0140D90800082D07000810B58CB02D
:10204000002414484FF6FF72CDE900441249C0E95C
:1020500000140321C0E90242C0E904448461CDE9CF
:1020600003140121CDE90514CDE90744CDE9091494
:1020700003A90B94FFF7E0F808B1FEF7BCFA054896
:102080006946CDE90044FEF785FF08B1FEF7B3FAD3
:102090000CB010BDA4010020002C014010B58EB082
:1020A000002401A81C21CDE90C44CDE90A44CDE966
:1020B0000844FEF760F82A484FF0804140F267126A
:1020C00040F2CF7380E81600C0E903348461FEF764
:1020D00097FF08B1FEF78FFA4FF480500AA90A90D3
:1020E0001F48FFF721F808B1FEF785FA1C48FFF7F3
:1020F0005FFB08B1FEF77FFA1948002408A9CDE973
:102100000844FEF747FF08B1FEF775FA602001A901
:102110000022CDE90104124803940594FFF7FCFA6C
:1021200008B1FEF768FA0E4801A90422FFF7F4FA95
:1021300008B1FEF760FA0A4801A90822FFF7ECFA95
:1021400008B1FEF758FAF24801A90C22FFF7E4FAA9
:1021500008B1FEF750FAEE48FFF796FA0EB010BD40
:10216000EC010020FEB50021EC4840F2CF2340F204
:10217000E73CCDE90411CDE90211CDE90011114A86
:10218000C0E90023C0E9021C01618161FEF738FF4C
:1021900008B1FEF730FA4FF4805002A90290DF48F0
:1021A000FEF7C2FF08B1FEF726FA00206946CDE926
:1021B0000000DA48FEF7EEFE08B1FEF71CFA06B0A2
:1021C00080BD00BF0004004010B58CB00024D6488C
:1021D0004FF6FF72CDE900441149C0E90014032114
:1021E000C0E9024204618461CDE903140121CDE913
:1021F0000514CDE90744CDE9091403A90B94FFF7B1
:102200001BF808B1FEF7F7F9C7486946CDE9004465
:10221000FEF7C0FE08B1FEF7EEF90CB010BD00BF2E
:102220000008004010B58CB00024C2484FF6FF7281
:10223000CDE90044E649C0E900140321C0E90242A7
:1022400004618461CDE903140121CDE90514CDE9D0
:102250000744CDE9091403A90B94FEF7EDFF08B17B
:10226000FEF7C9F9B3486946CDE90044FEF792FE8E
:1022700008B1FEF7C0F90CB010BD00BF10B58CB0AE
:102280000024AF484FF6FF72CDE90044EC49C0E9A5
:1022900000140321C0E90242C0E904448461CDE98D
:1022A00003140121CDE90514CDE90744CDE9091452
:1022B00003A90B94FEF7C0FF08B1FEF79CF9A048F4
:1022C0006946CDE90044FEF765FE08B1FEF793F9D3
:1022D0000CB010BD80B50B480B494FF4E132002320
:1022E0004FF00C0C80E80E00C0E90333C0E905C3D1
:1022F000C361FFF779FC18B1BDE88040FEF77BB9F8
:1023000080BD00BF540300200038014080B50B4859
:102310000B494FF4E13200234FF00C0C80E80E0023
:10232000C0E90333C0E905C3C361FFF75DFC18B121
:10233000BDE88040FEF75FB980BD00BF9803002074
:102340000044004080B529480A494FF4E132002397
:102350004FF00C0C80E80E00C0E90333C0E905C360
:10236000C361FFF741FC18B1BDE88040FEF743B9F7
:1023700080BD00BF00480040FEE7704718480021BC
:1023800001220161011D1948FFF716BD1549DFF84B
:1023900050C00B68DCF80420581C002B08600CEBC4
:1023A0008300826015D100200860DCF80810332912
:1023B00008D032290AD0312904BF4FF0FF30CCF8C1
:1023C000100006E008480121016002E00120CCF87D
:1023D000100006480CF104010122FFF7EDBC00BF1C
:1023E000E0000020A001002004000020DC03002009
:1023F000E0B5FDF79CFF01462A480068FDF71EFF87
:10240000FDF7B3FF009000200190019800998842E9
:1024100008BF8CBD01980130F6E700BF1FB54FF033
:102420007E500190FEF75EFA03900B48FFF7E0FF45
:10243000FEF758FA029002980399401AFDF777FFC9
:1024400001461748FDF72CFF164C019001982168B2
:10245000FDF7F4FE20601FBD40420F00F8B50020DC
:102460000190FEF73FFA01300C49039003980130C8
:1024700002900868039A9042FBD101E0013001907C
:102480000A68029B01989A42F8D1FDF750FF04496F
:10249000FDF706FF034908608FBD00BF2400002040
:1024A00000007A443004002070477047FEF71EBADF
:1024B000B0B590B0002401204FF480310225CDE961
:1024C0000B44CDE909440690CDE907140A904FF476
:1024D000E010CDE90D510F9006A8FEF785FB0F2007
:1024E0000221CDE901054FF480600394CDE9040495
:1024F00001A8FEF79BFA10B0B0BD70470148FFF786
:102500000AB800BFA40100200148FFF704B800BFCB
:10251000EC0100200148FEF7FEBF00BF340200209E
:102520000148FEF7F8BF00BF7C0200200148FEF71B
:10253000F2BF00BFC40200200148FEF7ECBF00BF9D
:102540000C0300200268B0F1804F0ED01E4B984261
:102550001CBF1E4B984208D01D4B98421CBF864B97
:10256000984202D0854B984203D14B6822F070020A
:102570001A43B0F1804F0ED0134B98421CBF134B3F
:10258000984208D0124B98421CBF7B4B984202D015
:102590007A4B984203D1CB6822F440721A434B69BC
:1025A00022F080021A4302608A68C2620A6882626C
:1025B000714A90421CBF714A904201D1096901637E
:1025C00001214161704700BF000400400008004045
:1025D000000C0040B0B5026A22F001020262026AF9
:1025E000D0F804E0D0F818C08C680B6822F0020222
:1025F00044EA02052CF0730444EA030C5E4B984253
:102600001CBF5E4B984206D1CB6825F00C0223F02C
:10261000040343EA0205584B98421CBF574B9842AB
:1026200006D1D1E905422EF44073234343EA020E5A
:10263000C0F804E0C0F818C0496841630562B0BD45
:1026400000340140B0B5026A22F010020262026A50
:10265000D0F804E0D0F818C08C680B6822F0200293
:1026600042EA04152CF4E64444EA032C424B984217
:102670001CBF424B984208D1CB686FF04F0425F045
:10268000C00204EA031343EA02053B4B98421CBF15
:102690003A4B984207D1D1E905342EF4406242EA20
:1026A000830242EA840EC0F804E0C0F818C049680A
:1026B00081630562B0BD00BFB0B5026A22F48072CA
:1026C0000262026AD0F804E0D0F81CC08C680B6883
:1026D00022F4007242EA04252CF0730444EA030C4D
:1026E000254B98421CBF254B984208D1CB6840F23D
:1026F000FF4425F440621B02A34343EA02051E4B3C
:1027000098421CBF1D4B984207D1D1E905342EF4E5
:10271000405242EA031242EA041EC0F804E0C0F844
:102720001CC04968C1630562B0BD00BFB0B5026A94
:1027300022F480520262026AD0F804E0C5698B6814
:102740000C6822F4005242EA033C0B4B25F4E642AB
:1027500042EA042298421CBF084B984204D14B69BC
:102760002EF4804545EA831EC0F804E0C261496842
:102770000164C0F820C0B0BD00340140002C01400D
:10278000D0F820C0036A23F001030362836923F0B9
:10279000F00343EA021282612CF00A021143016243
:1027A0007047036A23F010030362836923F47043C4
:1027B00043EA0232036A826123F0A00242EA011175
:1027C000016270472DE9F041644C05460421002266
:1027D00004F500663046FEF77FF8304601210122FD
:1027E000FEF77AF85F485E4F5F49026828467D60D1
:1027F00000F0A0FAB0F1FF3F78610CDC4042042108
:10280000012278613046FEF767F830460121002248
:10281000FEF762F87869DFF82084B0F5FA6F04F506
:10282000A0564FF00102C4BF4FF4FA607861D8F8A7
:102830000010486330464FF48051FEF74DF83046A3
:102840004FF480410022FEF747F848484849FD60B0
:102850000268284600F0D6FAB0F1FF3FF8610EDCBE
:1028600040424FF480510022F8613046FEF734F8C0
:1028700030464FF480410122FEF72EF8F869B0F59A
:10288000FA6F4FF00102C4BF4FF4FA60F861D8F854
:102890000010886320464FF48061FEF71DF804F5B0
:1028A00040664FF4804100223046FEF715F831486B
:1028B00031496D423D600268284600F007FAB0F1E8
:1028C000FF3F38610EDC40424FF4806100223861E6
:1028D0002046FEF701F830464FF480410122FDF713
:1028E000FBFF3869B0F5FA6F4FF00102C4BF4FF437
:1028F000FA603861D8F80010C86330464FF40051D0
:10290000FDF7EAFF30464FF400410022FDF7E4FFF7
:102910001A481B49BD600268284600F03FFAB0F132
:10292000FF3FB8610EDC30464FF400510022FDF746
:10293000D3FF30464FF400410122FDF7CDFFB869C7
:102940004042B861B0F5FA6FA4BF4FF4FA60B861C5
:10295000D8F800100864BDE8F08100BF000C014009
:10296000300000201000002074000020180000201B
:102970009C0000200C0000206000002014000020BB
:1029800088000020406A0021C185C184FFF70CB88F
:102990000168CA6822F49072CA604A6922F0010292
:1029A0004A61026B012A02BFCA6822F01002CA60A3
:1029B000202180F83E1000210163704790F83E10FE
:1029C000222918BF70478368B3F5805F06D102697A
:1029D00000F12801A2B1D1F800C008E00146002BA7
:1029E00051F828CF01D103690BB17F2300E0FF2309
:1029F000026852681A4001238CF800200A6806E039
:102A00000368826A5B686FF35F23138002231A44B2
:102A10000A604FF6FF72C18D01391142C18500D0A5
:102A200070470168CA6822F02002CA60CA6822F4AE
:102A30008072CA604A6922F001024A61202280F84D
:102A40003E20026B012A18BFFFF7CEB900220263B5
:102A5000CB6823F01003CB600B6813F0100F07D086
:102A600081B000920A68009249680091009901B013
:102A7000818DFEF798BF000010B5044620680169FB
:102A8000E26821F44051114341F20C620161D4F833
:102A900008C0D4E904E3C16891434EEA0C021A432A
:102AA0001143C1604169A26921F440711143416140
:102AB0001149884202D0FEF753F801E0FEF75AF8B8
:102AC00019214843D4E900126FF063049200B0FB6F
:102AD000F2F06422B0FBF2F303FB0400322404EBB7
:102AE0000010B0FBF2F000F0F00200F00F0002EB7B
:102AF00003121043886010BD003801408162828556
:102B0000C28500212222016480F83E2080F83C101A
:102B10000068C16841F48071C160416941F0010100
:102B20004161C16841F02001C16000207047000090
:102B30000148FEF73BBF00BF540300204248FEF7A8
:102B400035BF00BF0148FEF731BF00BFDC030020E6
:102B5000FEE70321002201E0425401312429FBD188
:102B600055218170002101807047000070B5FDF78C
:102B7000C3FEFFF79DFCFFF7CFF9FFF7ABFBFFF7B5
:102B80005DFAFFF78BFAFFF7EDFAFFF71DFBFFF792
:102B900049FBFFF773FBFFF7B9FBFFF7D3FB2148B6
:102BA000214C3C21A04721483C21A04720483C2102
:102BB000A04720483C21A0471F4C204D0021002663
:102BC0002046A84720460421A84720460821A847B8
:102BD00020460C21A8471A48FEF770FA00F046F884
:102BE00000F036F8174D2846FFF7B3FF1648E91CEA
:102BF0002122FFF7E1F8154D042101222846FDF7B7
:102C00006BFE284601210122FDF766FE206846631F
:102C1000FFF738F9FFF7B2FBFFF720FCFFF7FEFBE9
:102C2000FEE700BFA4010020691400087C02002018
:102C3000C40200200C030020EC0100200D18000845
:102C400034020020140100209803002000140140E9
:102C500005480021C0E90011C0E90211C0E90411D2
:102C6000C0E9061101627047300000201348144B80
:102C700000214FF0824C0360124A4260C0E9021109
:102C8000C0E90413C0E90621C0E90811C0E90A320D
:102C9000C0E90C11C0E90E134FF08043C0E91021C8
:102CA000C0E91211C0E91431C0E916C10166064A33
:102CB0004167C0E91B11C0E919217047600000207D
:102CC0000000C8420000A040CDCC8C3F2DE9F84365
:102CD000801A0C46FDF722FB0546E5602946D4E93B
:102CE0000080FDF7ABFA124E01463068FDF74EFA50
:102CF0000746404629463760D4F808902669256182
:102D0000FDF79CFA044628463146FDF791FA4946FC
:102D1000FDF794FA054620463946FDF737FA014695
:102D20002846FDF733FAFDF707FB01B0BDE8F08355
:102D3000200400202DE9F843801A0C46FDF7EEFA36
:102D40000546E5602946D4E90080FDF777FA124E82
:102D500001463068FDF71AFA0746404629463760B3
:102D6000D4F8089026692561FDF768FA04462846DC
:102D70003146FDF75DFA4946FDF760FA0546204603
:102D80003946FDF703FA01462846FDF7FFF9FDF73E
:102D9000D3FA01B0BDE8F083240400202DE9F84304
:102DA000801A0C46FDF7BAFA0546E5602946D4E9D3
:102DB0000080FDF743FA124E01463068FDF7E6F950
:102DC0000746404629463760D4F8089026692561B1
:102DD000FDF734FA044628463146FDF729FA4946FC
:102DE000FDF72CFA054620463946FDF7CFF9014696
:102DF0002846FDF7CBF9FDF79FFA01B0BDE8F08357
:102E0000280400202DE9F843801A0C46FDF786FAC5
:102E10000546E5602946D4E90080FDF70FFA124E19
:102E200001463068FDF7B2F907464046294637604B
:102E3000D4F8089026692561FDF700FA0446284673
:102E40003146FDF7F5F94946FDF7F8F90546204604
:102E50003946FDF79BF901462846FDF797F9FDF73E
:102E60006BFA01B0BDE8F0832C04002002E008C832
:102E7000121F08C1002AFAD170477047002001E0F4
:102E800001C1121F002AFBD17047000000000000A2
:102E90000000010203040607080900000000010207
:102EA00003040000D02E00080000002030000000C5
:102EB0006C2E0008002F00083000002008080000D9
:102EC0007C2E000800000000000000000000000050
:102ED0001E000000020000000200000000000000D0
:102EE00000000000000000000000000001000000E1
:102EF00010000000000000000024F40000000000AA
:0400000508000131BD
:00000001FF
