:020000040800F2
:10000000800D002045010008E71D0008351B000891
:10001000E51D0008B1010008B5230008000000003C
:10002000000000000000000000000000EB1D0008C0
:10003000F701000800000000E91D0008051E000887
:100040005F0100085F0100085F0100085F01000810
:100050005F0100085F0100085F0100085F01000800
:100060005F0100085F0100085F010008B50100089A
:100070005F0100085F010008C10100085F0100087E
:100080005F0100085F0100085F0100085F010008D0
:100090005F0100085F0100085F0100085F010008C0
:1000A0005F0100085F0100085F0100085F010008B0
:1000B000591E00085F010008651E00085F01000866
:1000C0005F0100085F0100085F0100085F01000890
:1000D0005F010008A92300085F0100085F01000814
:1000E0005F0100085F0100085F0100085F01000870
:1000F0005F0100085F0100085F0100085F01000860
:100100005F0100085F010008711E00085F01000820
:100110005F0100085F0100085F0100085F0100083F
:100120005F0100085F0100085F0100085F0100082F
:10013000DFF80CD000F02AF80048004785240008BA
:10014000800D00200648804706480047FEE7FEE78E
:10015000FEE7FEE7FEE7FEE7FEE7FEE7FEE7FEE777
:10016000571E000831010008D2B201E000F8012B4F
:10017000491EFBD270470022F6E710B513460A4627
:1001800004461946FFF7F0FF204610BD064C074D08
:1001900006E0E06840F0010394E807009847103457
:1001A000AC42F6D3FFF7C8FFF02400081025000882
:1001B000FEE70000014800F0DBB80000B0080020B6
:1001C000014800F0D5B800003809002030B590F89B
:1001D00040500124AC40C56B6C60046863604368A8
:1001E000102B036803D099600068C26030BD9A602C
:1001F0000068C16030BD7047704710B590F821109D
:100200000022022905D00421816380F820200120EA
:1002100010BD01680B6823F00E030B6001680B68CA
:1002200023F001030B6090F84030C46B012101FA08
:1002300003F3636080F8211080F82020104610BD81
:100240002DE9F05F90F821100024022903D0042149
:100250008163012485E001680A6822F00E020A60C9
:1002600001680A6822F001020A603F4E3E4FB21553
:10027000DFF8F4C0DFF8F090DFF8ECA0DFF8E8B0CA
:10028000DFF8E4E00168783F13011502ACF1640C7B
:10029000A9F15009AAF13C0AABF1280BAEF1140EFA
:1002A0004FF48018B14227D9B9420ED0614512D01F
:1002B00049451DD0514518D0594518D0714501D137
:1002C000424615E0294EB14201D1012210E0274EED
:1002D0001436B14201D110220AE0244E2836B14230
:1002E00006D0224A3C32914201D11A4600E02A4609
:1002F0001E49091F0A602BE0B94213D0614517D08F
:10030000494522D051451DD059451DD0714501D1D7
:1003100042461AE0B14202D14FF0807215E0134E0E
:10032000B14201D1012210E0104E1436B14201D188
:1003300010220AE00D4E2836B14206D00B4A3C325C
:10034000914201D11A4600E02A46074980394A60A5
:10035000012180F82110002180F82010416B01B1AB
:1003600088472046BDE8F09F800002400804024014
:100370002DE9F05FC16B0A6801680B68046C4FF0EF
:10038000040808FA04F8844D844E854FDFF814C23F
:10039000DFF81492DFF814A2DFF814B2DFF814E2E9
:1003A00018EA020F65D05FEA437862D50A689206C0
:1003B00003D40A6822F004020A60DFF8F0814FF4E7
:1003C0008062016808F1140813011402414524D920
:1003D000A9420DD0B1420FD0B9421AD0614515D013
:1003E000494515D0514501D1120312E0594501D1BB
:1003F00004220EE0714501D140220AE06D4D143512
:10040000A94206D06B4A2832914201D11A4600E037
:1004100022466749091F0A6029E0A94213D0B14268
:1004200015D0B94220D061451BD049451BD051455C
:1004300002D14FF4800217E0414502D14FF08062B3
:1004400012E0594501D104220EE0714501D140224C
:100450000AE0584D1435A94206D0564A2832914236
:1004600001D11A4600E022464B4908394A60C16A68
:1004700071E04FF0020808FA04F818EA020F70D091
:100480005FEA83786DD50A68920606D40A6822F07E
:100490000A020A60012180F82110DFF810814FF470
:1004A0000072016808F1140813011402414524D9AF
:1004B000A9420DD0B1420FD0B9421AD0614515D032
:1004C000494515D0514501D1120312E0594501D1DA
:1004D00002220EE0714501D120220AE0354D14358B
:1004E000A94206D0334A2832914201D11A4600E08F
:1004F00022462F49091F0A6029E0A94213D0B142C0
:1005000015D0B94220D061451BD049451BD051457B
:1005100002D14FF4001217E0414502D14FF00072B2
:1005200012E0594501D102220EE0714501D120228D
:100530000AE0204D1435A94206D01E4A28329142C5
:1005400001D11A4600E02246134908394A600021C9
:1005500080F82010816A00291CD0BDE8F05F0847B0
:10056000FFE70825A540154214D01A0712D50A68DE
:1005700022F00E020A6090F84020C36B012101FABC
:1005800002F25A60816380F82110002180F8201067
:10059000016BE0E7BDE8F09F080002401C0002404C
:1005A0003000024044000240580002406C0002400B
:1005B000080402401C04024030B560B11A4B0268C6
:1005C00014219A4209D2194B1344B3FBF1F189006B
:1005D000016417490AE0012030BD134B5B4213440C
:1005E000B3FBF1F1890001640F490839C1630221AD
:1005F00080F82110136843F6F0718B43F0E9011481
:100600002143D0E902452C43214304692143446935
:100610002143846921431943116000214163012270
:1006200042770177084630BD08040240F8FFFDBF5D
:100630000000024070B5044690F820000025012813
:100640000CD0012084F8200094F821600020012EB5
:1006500006D084F820000225284670BD022070BD17
:10066000022684F82160A0632068066826F001064F
:1006700006602046FFF7AAFDE06A002820680168AE
:1006800002D041F00E0106E021F004010160206873
:10069000016841F00A0101602068016841F0010130
:1006A0000160D9E72DE9F84FDFF8C891002409F17E
:1006B000040A0AF1040B23460F270BF1040ED1E0C4
:1006C0000125A54006EA0502AA4276D1DFF8A8C1B5
:1006D0004E68A6EB0C0866452BD00DDC032E34D0FB
:1006E00005DC36B3012E19D0022E2FD11BE0112EBE
:1006F00016D0122E2AD119E0B8F5881F19D006DCC1
:10070000B8F5803F15D0B8F5801F1FD111E0B8F5BE
:10071000001F0ED0B8F5041F18D10AE0CB6815E011
:10072000CB681B1D12E0CB6808330FE0CB680C339D
:100730000CE08B682BB1012B4FF0080303D045610F
:1007400004E0042302E0056100E00023FF2A01D851
:10075000064601E000F104064FEA840501D9A5F13F
:100760002005D6F8008007FA05FC28EA0C0803FAF1
:1007700005F548EA0508C6F800804D68ED0070D51B
:100780003E4DAE6946F00106AE61AD6924F0030648
:1007900005F0010500953A4D06EB050CDCF8085014
:1007A000A607360F07FA06F825EA0805DFF8D48011
:1007B000404503D14FF0000825E052E0DFF8C88043
:1007C000404502D14FF001081DE0DFF8C0804045F0
:1007D00002D14FF0020816E0DFF8B480404502D1A4
:1007E0004FF003080FE0DFF8AC80404502D14FF036
:1007F000040808E0DFF8A080404502D14FF005086A
:1008000001E04FF0060808FA06F848EA0508CCF8B7
:1008100008804D68D9F80060ED034D4601D51643B8
:1008200000E096432E604D68DAF80060AD0355464F
:1008300001D5164300E096432E604D68DBF800605A
:10084000ED025D4601D5164300E096432E604D68EB
:10085000DEF80060AD02754601D5164300E0964310
:100860002E60641C0A681646E2407FF429AFBDE89A
:10087000F88F000000040140000011100010024039
:100880000000014000080140000C01400010014040
:100890000014014000180140001C01400AB1016130
:1008A00070470904FBE700000148806870470000BA
:1008B000100000200248816802781144816070476E
:1008C00010000020074810B5016841F010010160D8
:1008D000032000F075F8002000F006F800F024F87E
:1008E000002010BD0020024070B50D4D04464FF4AD
:1008F0007A712878B1FBF0F00A490968B1FBF0F091
:1009000000F0ECFA48B9102C07D200222146501E04
:1009100000F036F800206C6070BD012070BD000052
:10092000100000201C0000200C4808B5816941F02F
:1009300001018161816901F001010091C16941F00A
:100940008051C161C06900F0805000900448416846
:1009500021F0E06141F00071416008BD00100240EB
:1009600000000140002809DB00F01F020121914036
:100970004009800000F1E020C0F80011704700003D
:10098000F0B40E4B1B680C46C3F30223C3F10705FA
:10099000042D00D90425191D072901D2002300E0E8
:1009A000DB1E012606FA05F1491E214099409E40B2
:1009B000761E16403143F0BC01F044BD0CED00E062
:1009C000064900F0070208684FF6FF03184040EAA6
:1009D0000220034A10430860704700000CED00E05D
:1009E0000000FA052DE9F0470F46050061D0434E9F
:1009F000306800F00700B84209D2306820F00700E4
:100A000038433060306800F00700B84251D12868A0
:100A10003B4C810712D5400703D5606840F4E06085
:100A200060602878000703D5606840F4605060601B
:100A30006068A96820F0F000084360602878C0076B
:100A400028D06868012810D02168022810D08907B2
:100A500000292EDA616821F0030101436160FFF78C
:100A600023FF804641F288390DE021688903EFE7D2
:100A70008901EDE7FFF718FFA0EB0801494502D90E
:100A80000320BDE8F0876068696800F00C00B0EBF7
:100A9000810FEFD1306800F00700B8420BD9306801
:100AA00020F0070038433060306800F00700B8429B
:100AB00001D00120E5E72878400705D56068E9689E
:100AC00020F4E060084360602878000706D560687D
:100AD000296920F4605040EAC100606000F038F8F5
:100AE0006168084AC1F30311515CC84006490860B7
:100AF00006480068FFF7F8FE0020C2E70020024029
:100B000000100240D82400081C000020140000201F
:100B10000448054900684968044AC1F30221515C50
:100B2000C84070471C00002000100240E824000864
:100B30000448054900684968044AC1F3C221515C70
:100B4000C84070471C00002000100240E824000844
:100B500012A185B00FC98DE80F0014A0144A0068D7
:100B600004905168134801F00C03042B10D0082B9B
:100B70000ED1C1F38343C9031DF803000AD55168A0
:100B800004AAC1F34041515C0A4A5043B0FBF1F062
:100B900005B0704708494843FAE70000020304051E
:100BA000060708090A0B0C0D0E0F101001020000B9
:100BB0000010024000127A0000093D002DE9F84FB4
:100BC000040070D02078C04DC00749D06868C0F3D9
:100BD0008100012807D06868C0F38100022809D18C
:100BE0006868C00306D52868800339D56068002886
:100BF000E7D035E06068B0F5803F0BD010B1B0F5BC
:100C0000A02F11D0286820F480302860286820F4B4
:100C1000802002E0286840F480302860606890B14D
:100C2000FFF742FE06460AE0286840F4802028606C
:100C3000F0E700BFFFF738FE801B642873D82868F0
:100C40008003F7D50CE0FFF72FFE064605E000BF56
:100C5000FFF72AFE801B6428F0D828688003F7D4A9
:100C600020789A4E80074FF001094FF0000839D5DF
:100C7000686810F00C0F07D06868C0F38100022884
:100C800009D16868C00306D42868800714D5206994
:100C9000012808D110E02069B0B1C6F80090FFF734
:100CA00003FE074605E00AE1FFF7FEFDC01B022830
:100CB000C4D828688007F7D52868616920F0F80053
:100CC00040EAC10028600DE0C6F80080FFF7ECFDA7
:100CD000074604E0FFF7E8FDC01B022823D8286878
:100CE0008007F7D4207800072CD57948A169D9B1BD
:100CF000C0F80090FFF7D8FD074604E0FFF7D4FDE9
:100D0000C01B02280FD8686A8007F7D571484FF4D6
:100D1000FA510068B0FBF1F0009000BF0098411E4E
:100D20000091FAD20EE080E0C0F80080FFF7BCFD31
:100D3000074604E0FFF7B8FDC01B022875D8686AB3
:100D40008007F7D42078400760D5E8690027C00005
:100D500008D4E86940F08050E861E869012700F0B4
:100D6000805000905C480168C90513D4016883462F
:100D700041F480710160FFF797FD824606E000BFF5
:100D8000FFF792FDA0EB0A0064284ED8DBF80000C4
:100D9000C005F5D5E06801280AD008B1052813D0B0
:100DA000286A20F001002862286A20F0040002E08E
:100DB000286A40F001002862E06841F2883B98B15F
:100DC000FFF772FD82460BE0286A40F004002862BB
:100DD000EEE700BFFFF768FDA0EB0A0159455AD8BE
:100DE000286A8007F6D50CE0FFF75EFD824605E035
:100DF000FFF75AFDA0EB0A0159454CD8286A800735
:100E0000F6D41FB1E86920F08050E861E06988B34A
:100E10006968C1F38101022944D00228C6F86080C4
:100E200004D0FFF741FD044638E034E0FFF73CFD15
:100E3000074604E0FFF738FDC01B02282BD82868BE
:100E40008001F7D4206AB0F5803F05D16868A168B9
:100E500020F4003008436860D4E908010843696859
:100E600021F4741108436860C6F86090FFF71CFD18
:100E7000044606E025E000BFFFF716FD001B022830
:100E800009D828688001F7D51BE000BFFFF70CFDEB
:100E9000001B022802D90320BDE8F88F28688001D2
:100EA000F4D40EE00128F7D06868226A00F480319B
:100EB000914204D1616A00F47010884201D001208F
:100EC000EAE70020E8E7000000100240000042428C
:100ED000800442421C0000200070004010B5401EFB
:100EE000B0F1807F01D3012010BD4FF0E02460619C
:100EF0000F21601701F0A6FA0020A06107202061F1
:100F0000002010BD7047704770B590F83C20012A52
:100F10002CD0012480F83C40022280F83D20036858
:100F20005A689D6822F070060A6832435A60104B76
:100F300002689A420ED00F4B9A420BD0B2F1804F0A
:100F400008D00D4B9A4205D00C4B9A4202D00C4B64
:100F50009A4204D1496825F080031943916080F8D2
:100F60003D40002180F83C10084670BD022070BD55
:100F7000002C014000340140000400400008004003
:100F8000000C004010B5040003D094F83D0010B1EF
:100F900007E0012010BD002084F83C00204600F04E
:100FA0001FF8022084F83D00211D206800F066FF34
:100FB000012084F8460084F83E0084F83F0084F85D
:100FC000400084F8410084F8420084F8430084F82B
:100FD000440084F8450084F83D00002010BD000066
:100FE00038B5054600682F49B0F1804F0BD02E4A26
:100FF000904217D1C86940F00200C861C86900F08A
:101000000200009038BDC86940F00100C861C8699D
:10101000002200F00100009011461C20FFF7B0FCF8
:101020001C203BE0214A904227D1C86940F00400CF
:10103000C861C8691F4C00F0040000901C48206083
:101040001020606000208021C4E902018900216134
:101050008900C4E905104FF44050E0612046FFF7D5
:10106000ABFA08B1FFF7C8F86C62002211461E20E7
:101070006562FFF785FC1E2010E00F4A9042C1D147
:10108000C86940F00800C861C869002200F0080083
:10109000009011463220FFF773FC3220BDE8384043
:1010A000FFF760BC00100240000400400008004050
:1010B00008000240B0080020000C004090F83D10ED
:1010C000012901D001207047022180F83D100068FD
:1010D0000E4988420ED00E4988420BD0B0F1804FA5
:1010E00008D00C49884205D00B49884202D00B49F0
:1010F000884204D1816801F00701062903D0016804
:1011000041F001010160002070470000002C014007
:10111000003401400004004000080040000C004082
:1011200090F83D10012901D001207047022180F87C
:101130003D100168CA6842F00102CA6000680E49A9
:1011400088420ED00D4988420BD0B0F1804F08D0B4
:101150000B49884205D00B49884202D00A4988428F
:1011600004D1816801F00701062903D0016841F02C
:101170000101016000207047002C01400034014053
:101180000004004000080040000C004070B5044618
:1011900090F83C00012817D0012584F83C5002202B
:1011A00084F83D002068826822F0770222F47F42B2
:1011B00082600868502830D00DDC20284DD005DC36
:1011C00098B310283BD148E0022070BD302844D0AD
:1011D000402834D139E0602828D0702806D0B0F5F6
:1011E000805F2CD0B0F5005F29D10AE0CB68D1E94F
:1011F0000121206800F00AFF2068816841F0770132
:1012000009E0CB68D1E90121206800F0FFFE2068E9
:10121000816841F48041816011E0CA6849682068B2
:1012200000F0C8FF5021206807E016E0CA6849684E
:10123000206800F0D0FF6021206800F0F1FE84F803
:101240003D50002084F83C0070BDCA6849682068A1
:1012500000F0B0FF40212068EFE722680146104609
:10126000EBE77047704770B50446006801694FF0BE
:101270000005C943890715D4C168C943890711D43A
:10128000E91E0161012020772068806980072046DF
:1012900002D0FFF7E7FF04E000F0C8F8204600F0B6
:1012A00057F9257720680169C943490717D4C168F0
:1012B000C943490713D46FF004010161022020776C
:1012C0002068806910F4407F204602D0FFF7CAFFF3
:1012D00004E000F0ABF8204600F03AF925772068EA
:1012E0000169C943090716D4C168C943090712D463
:1012F0006FF008010161042020772068C069800731
:10130000204602D0FFF7AEFF04E000F08FF8204641
:1013100000F01EF9257720680169C943C90617D472
:10132000C168C943C90613D46FF0100101610820D8
:1013300020772068C06910F4407F204602D0FFF774
:1013400091FF04E000F072F8204600F001F92577E3
:1013500020680169C943C90708D1C168C943C907E1
:1013600004D1891E0161204600F036FA2068016927
:10137000C943090609D4C168C943090605D46FF0F9
:10138000800101612046FFF7BDFD20680169C94366
:10139000490609D4C168C943490605D46FF0400124
:1013A0000161204600F02EFA20680169C9438906D0
:1013B0000BD4C168C943890607D46FF020010161CD
:1013C0002046BDE87040FFF79EBD70BD00B585B0FA
:1013D0000021009101910291039100680F49884218
:1013E00019D10F48816941F0200181618069694606
:1013F00000F0200004904FF48050009002200190F3
:1014000003900848FFF74EF90748416841F0E06152
:1014100041F48051416005B000BD0000000800406B
:10142000001002400014014000000140704770B5F8
:10143000044690F83C000D4601280AD0012084F8AB
:101440003C0042B1042A18D0082A2AD00C2A4DD1D7
:1014500039E0022070BD206800F0EAFD2068816953
:1014600041F0080181612068816921F004018161F6
:10147000206881692A69114311E0206800F008FEA4
:101480002068816941F4006181612068816921F4EB
:1014900080618161206881692A6941EA0221816154
:1014A00024E0206800F02AFE2068C16941F00801AC
:1014B000C1612068C16921F00401C1612068C1696E
:1014C0002A69114311E0206800F04CFE2068C169D0
:1014D00041F40061C1612068C16921F48061C1618A
:1014E0002068C1692A6941EA0221C161002084F8AB
:1014F0003C0070BD10B5040003D094F83D0010B15D
:1015000007E0012010BD002084F83C00204600F0D8
:101510001EF8022084F83D00211D206800F0AEFC7A
:10152000012084F8460084F83E0084F83F0084F8E7
:10153000400084F8410084F8420084F8430084F8B5
:10154000440084F8450084F83D00002010BD704739
:1015500010B500680549884206D10021044800F012
:10156000DBF804490120086010BD000000080040BD
:101570002008002000000020704700002DE9F04105
:1015800017460D0004460CD0042D11D0082D16D09E
:1015900094F84100022819D094F84100012818D08D
:1015A000A2E094F83E00022810D094F83E00F5E73F
:1015B00094F83F00022809D094F83F00EEE794F831
:1015C0004000022802D094F84000E7E70220BDE87E
:1015D000F0810FB9002B5BD14749484E484A0220A1
:1015E00045B1042D16D0082D24D084F841000C2DCF
:1015F0003AD16CE084F83E00606A8162606A3946E4
:10160000C662606A02632268606A3432FFF712F8C9
:10161000F0BB1FE084F83F00A06A8162A06A3946EF
:10162000C662A06A02632268A06A3832FFF702F835
:1016300070BB14E084F84000E06A8162E06A3946D9
:10164000C662E06A02632268E06A3C32FEF7F2FF9B
:10165000F0B937E02068C16841F4007103E0206808
:10166000C16841F48061C16001222946206800F010
:101670004BFC24492068244A884201D0904203D17F
:10168000436C43F400434364206888420FD000E079
:101690002AE090420BD0B0F1804F08D01B4988421D
:1016A00005D01B49884202D01A49884204D181687A
:1016B00001F00701062903D0016841F00101016032
:1016C000002084E72068C16841F40061CBE7206B0B
:1016D0008162206B3946C662206B02632268206BF0
:1016E0004032FEF7A7FF08B1012070E72068C1680B
:1016F00041F48051B7E70000231F0008811F000854
:10170000B91F0008002C01400034014000040040D3
:1017100000080040000C004070B5044600680D0051
:1017200006D0042D0AD0082D3DD00C2D0DD140E05F
:10173000C16821F40071C160606A04E0C16821F4ED
:101740008061C160A06AFEF77BFD00222946206807
:1017500000F0DAFB1E4B41F2111120688A1098420A
:1017600002D01C4B984209D1036A0B4206D1036A8E
:10177000134203D1436C23F4004343642068036A9B
:101780000B4206D1016A114203D1016821F0010127
:10179000016001209DB1042D14D0082D15D084F8CE
:1017A0004100002070BDC16821F40061C160E06AA1
:1017B000C9E7C16821F48051C160206BC3E784F898
:1017C0003E00EEE784F83F00EBE784F84000E8E7EE
:1017D000002C0140003401400068084988420BD1C8
:1017E00007488168491C8160B1F5FA7F04DD00215A
:1017F00081604168491C416070470000000C004056
:10180000040000207047704770470000F8B5026878
:1018100004461068D168536910F00F0F4FF00005AF
:1018200053D003F0010601F4907737435FD0C2072D
:1018300005D0CA0503D5226C42F00102226442079A
:1018400005D5DA0703D0226C42F002022264820737
:1018500005D5DA0703D0226C42F0040222640207A5
:1018600007D501F02002324303D0226C42F0080277
:101870002264226C002A34D0800604D5880602D562
:10188000204600F0DAFC20684069216CC0F380102B
:10189000090700D430B3204600F0B7FC2068416946
:1018A00049061BD5416921F040014161A06BA8B1F7
:1018B00058494163A06BFEF7C3FC002811D0A06B10
:1018C000416B01B0BDE8F040084783060FD58B0699
:1018D0000DD52046BDE8F84000F0AFBC2046FFF72C
:1018E00093FFF8BD2046FFF78FFF2564F8BD266BF8
:1018F0002023012E52D1C60650D5CE064ED51068F3
:1019000050680090506940062AD5A16B086840686D
:101910000004000CEAD0A68D8642E7D9E0858869EC
:10192000202818D0D06820F48070D06020684169E9
:1019300021F0010141612068416921F040014161CC
:1019400084F83E3025632068C16821F01001C16031
:10195000A06BFEF752FCA08DE18D401A81B219E018
:10196000A08DE18D401A81B2E08D0028BED0002903
:10197000BCD0D06820F49070D0602068426922F01A
:101980000102426184F83E3025632068C26822F07B
:101990001002C2602046FFF736FFF8BD05062BD5C2
:1019A0000D0629D594F83D002128F6D1A068B0F5A0
:1019B000805F01D12069B0B1206A411C2162216899
:1019C00000784860E08C401E0004000CE084E4D104
:1019D0002068C16821F08001C1602068C16841F0C1
:1019E0004001C160F8BD206A0088C0F30800506063
:1019F000206A801C2062E5E74006F3D54806F1D551
:101A0000D168204621F04001D16084F83D3000F0DB
:101A100090F8F8BDFB21000870B5040004D094F8DC
:101A20003D00002510B106E0012070BD84F83C5057
:101A3000204600F023F8242084F83D002068C16887
:101A400021F40051C160204600F052FC2068016979
:101A500021F4904101612068416921F02A0141612E
:101A60002068C16841F40051C1602564202084F8D9
:101A70003D0084F83E00002070BD000070B586B0C7
:101A800000250646009501950295039500682349B7
:101A9000884241D12249886940F480408861886940
:101AA00000F480400490886940F0040088618869EF
:101AB0001C4C00F004000490481500900220019096
:101AC0000320039069462046FEF7ECFD2015CDE982
:101AD0000005694620460295FEF7E4FD134C1248C6
:101AE00020601020C4E901058020C4E903054FF4FB
:101AF00040506561C4E906502046FEF75DFD08B11F
:101B0000FEF77AFB74630022114625206662FEF719
:101B100037FF2520FEF726FF06B070BD00380140D4
:101B20000010024000080140440002403809002033
:101B300070477047FEE700000D4808B5416941F065
:101B4000010141614069002200F00100009011464E
:101B50000B20FEF715FF0B20FEF704FF00221146B5
:101B60000E20FEF70DFFBDE808400E20FEF7FABE7E
:101B70000010024030B585B000241848009401944C
:101B800002940394816941F010018161816901F03F
:101B900010010491816941F004018161816901F0C2
:101BA00004010491816941F02001816180690C4D3B
:101BB00000F020000490002210212846FEF76EFE5F
:101BC000102000900120CDE9010403200390694614
:101BD0002846FEF767FD05B030BD0000001002404A
:101BE0000008014010B586B0002416480094019406
:101BF0000294039404944FF08041059401600621FF
:101C0000C0E901144FF6FF71C0E903148461FFF7C6
:101C1000B9F908B1FEF7F0FA4FF480500090694628
:101C20000848FFF7B3FA08B1FEF7E6FA049404A9EE
:101C300004480594FFF768F9002801D0FEF7DCFAA4
:101C400006B010BD9007002010B586B000241748DC
:101C50000094019402940394049413490594016040
:101C600040F2CF21C0E901144FF6FF71C0E903141F
:101C70008461FFF787F908B1FEF7BEFA4FF4805090
:101C8000009069460948FFF781FA08B1FEF7B4FAF7
:101C9000049404A905480594FFF736F9002801D0FB
:101CA000FEF7AAFA06B010BD00040040D8070020D5
:101CB00010B58EB000240794089409940A940B94EC
:101CC0001C2168460C94FEF756FA1D481B49C0E9D2
:101CD00000145A21C0E9024104618461FFF752F9FE
:101CE00008B1FEF789FA4FF48050079007A914480D
:101CF000FFF74CFA08B1FEF77FFA1148FFF7FAFB3D
:101D000008B1FEF779FA0B940BA90D480C94FFF774
:101D1000FBF808B1FEF770FA6020CDE900040294E8
:101D20000022694606480494FFF781FB08B1FEF7DC
:101D300063FA0348FFF74AFB0EB010BD00080040ED
:101D40002008002010B586B00024174800940194A4
:101D50000294039404941349059401604721C0E957
:101D6000011440F2E731C0E903148461FFF70AF976
:101D700008B1FEF741FA4FF48050009069460A48D6
:101D8000FFF704FA08B1FEF737FA049404A90648ED
:101D90000594FFF7B9F8002801D0FEF72DFA06B038
:101DA00010BD0000000C0040680800200C4810B571
:101DB0000A4901604FF4E1314160002181600C2249
:101DC000C160C0E904128161C161FFF725FE0028EE
:101DD00003D0BDE81040FEF70FBA10BD0038014037
:101DE000F4080020FEE770477047704710B5044CB8
:101DF00004F8200004EB800042708170C37010BDB5
:101E000020000020FEF756BD30B58FB0282168466F
:101E1000FEF7B1F914210AA8FEF7ADF90121080473
:101E2000CDE900100024029402250491CDE9075069
:101E30004FF4E01009906846FEF7C0FE0F20CDE990
:101E40000A056802CDE90C4002210AA80E94FEF7AB
:101E5000C9FD0FB030BD70470148FFF704BA00005C
:101E6000900700200148FFF7FEB90000200800207D
:101E70000148FFF7F8B9000068080020F0B50268D3
:101E80001C4B1D4D1D4E1E4F1E4C4FF0804C98425A
:101E900009D0A04207D0604505D0A84203D0B04287
:101EA00001D0B84204D122F0700E4A6842EA0E0214
:101EB000984209D0A04207D0604505D0A84203D07F
:101EC000B04201D0B84203D122F44075CA682A4317
:101ED0004D6922F080022A4302608A68C2620A6861
:101EE0008262984201D0A04201D1096901630121B7
:101EF0004161F0BD002C014000040040000800409A
:101F0000000C00400034014010B501F01F03012116
:101F1000046A99408C430462016A9A401143016249
:101F200010BD10B5446A0121626A824205D1217751
:101F30008069F8B984F83E101CE0A26A824206D19A
:101F4000022222778069A8B984F83F1012E0E26A81
:101F5000824206D104222277806958B984F8401061
:101F600008E0226B824205D108222277806908B9F5
:101F700084F841102046FFF7EBFA0020207710BDCF
:101F800010B5446A616A814201D101200DE0A16A65
:101F9000814201D1022008E0E16A814201D104209E
:101FA00003E0216B814201D1082020772046FFF712
:101FB000E3FA0020207710BD10B5446A0121626A5F
:101FC000824203D1217784F83E1019E0A26A82424E
:101FD00004D10220207784F83F1011E0E26A8242A7
:101FE00004D10420207784F8401009E0226B82425B
:101FF00004D10820207784F8411001E084F83D10D6
:102000002046FFF72EF90020207710BD10B5846818
:1020100042EA032224F47F440A432243826010BD33
:10202000826822F070020A4342F007018160704723
:10203000F0B5026A22F001020262036A4268846912
:10204000124E24F073050C682C4323F002058B68B4
:102050002B430D4DA84201D0B04205D123F0080713
:10206000CB683B4323F00403A84201D0B04205D122
:102070004D6922F4407215438A692A4342608461A3
:10208000496841630362F0BD002C01400034014007
:10209000F0B5026A22F010020262026A43688469A3
:1020A0000D6824F4E64444EA05248D6822F02002F9
:1020B00042EA05120F4D104EA84201D0B04206D19F
:1020C000CF6822F0800242EA071222F04002A842C2
:1020D00001D0B04207D14D6923F4406343EA850340
:1020E0008D6943EA850343608461496881630262C4
:1020F000F0BD0000002C014000340140F0B5026A40
:1021000022F480720262026A4368C46922F4007297
:1021100024F073050C68124E2C438D6842EA0522A8
:102120000E4DA84201D0B04206D1CF6822F4006221
:1021300042EA072222F48062A84201D0B04207D1CD
:102140004D6923F4405343EA05138D6943EA0513AF
:102150004360C4614968C1630262F0BD002C014064
:102160000034014030B5026A22F480520262046AEF
:102170004268C3690D6823F4E64343EA05238D688A
:1021800024F4005444EA0534084DA84202D0084D16
:10219000A84204D14D6922F4804242EA851242608D
:1021A000C36149680164046230BD0000002C014035
:1021B0000034014010B5036A046A24F0010404628B
:1021C000846924F0F00444EA021423F00A020A436A
:1021D0008461026210BD10B5036A23F0100303622C
:1021E0008369046A23F4704343EA023224F0A003B3
:1021F00043EA01118261016210BD10B5406A0021FD
:10220000C185C184FFF700FB10BD0168CA6822F4D4
:102210009072CA6001684A6922F001024A61016B4A
:10222000012904D10168CA6822F01002CA60202185
:1022300080F83E1000210163704708B590F83E1009
:10224000222901D0022008BD82684FF480539A42AF
:1022500001D1016921B1816A9A421BD04AB10AE0D9
:102260000268816A5268C2F308020A80816A891C86
:1022700008E0026972B10268526802F07F020A70D7
:10228000816A491C8162C18D491E0904090CC185FE
:1022900003D019E002685268F1E70168CA6822F0C9
:1022A0002002CA600168CA6822F48072CA600168AC
:1022B0004A6922F001024A61202180F83E10016B38
:1022C000012903D0FFF734FC002008BD0021016381
:1022D0000168CA6822F01002CA6001680A68D20662
:1022E00002D50A6849680091818DFFF78CFAEBE707
:1022F00070B5044600680169E26821F44051114359
:1023000001612169A0680843616908432168CA68BE
:1023100041F20C639A430243CA6020684169A26992
:1023200021F44071114341611E492068884202D165
:10233000FEF7FEFB01E0FEF7EBFB00EBC00101EB5B
:102340000012606864218000B2FBF0F3B3FBF1F38C
:102350006FF018067343B2FBF0F5B2FBF0F605EB35
:102360008305322303EB0515B5FBF1F5B6FBF1F65A
:1023700005F0F00505EB0615B2FBF0F6B2FBF0F048
:10238000B0FBF1F06FF01802504306EB800003EB56
:102390000010B0FBF1F0216800F00F0028448860C5
:1023A00070BD0000003801400148FFF72FBA00005F
:1023B000F4080020FEE700002DE9F0410020DFF8DE
:1023C00078C001233C2702460CF144055FF01E064D
:1023D0000CEB82014C7891F802E02404C97844EABD
:1023E0000E240C435FF0170103FA01FE1EEA040FEE
:1023F00002D045F8207001E045F82060401C491EDD
:10240000F2D5521C112AE3DB00210B4A0C46A43200
:10241000491C42F82040401C3229F9DB064A83B2AD
:10242000A43200210548FFF7A9F8054908680028EB
:10243000FDD00C60BDE8F0812000002020080020C5
:10244000000000200907090E002804DB00F1E0204D
:1024500080F80014704700F00F0000F1E02080F8D1
:10246000141D704702E008C8121F08C1002AFAD1E3
:1024700070477047002001E001C1121F002AFBD104
:1024800070470000FEF71EFAFFF7BEFCFFF772FB75
:10249000FFF752FBFFF7A6FBFFF7D6FBFFF786FC23
:1024A000FFF706FCFFF74EFC0948FEF707FE094858
:1024B000FEF736FE002400231A46FF212046FFF7D0
:1024C00095FC641C112CF6DBFFF776FFF2E70000A9
:1024D0002008002068080020000000000000000024
:1024E00001020304060708090000000001020304BA
:1024F00010250008000000202000000064240008CF
:102500003025000820000020600D00007424000821
:1025100000000000000000000000000000000000BB
:102520000100000010000000000000000024F40082
:0400000508000131BD
:00000001FF
