:020000040800F2
:10000000680600204501000891310008D329000846
:100010008D310008B1010008C93A00080000000055
:10002000000000000000000000000000353400085F
:10003000B50100080000000009340008373400084A
:100040005F0100085F0100085F0100085F01000810
:100050005F0100085F0100085F0100085F01000800
:100060005F0100085F0100085F0100085F010008F0
:100070005F0100085F0100085F0100085F010008E0
:100080005F0100085F0100085F0100085F010008D0
:10009000B93A00085F0100085F0100085F0100082D
:1000A0005F0100085F0100085F0100085F010008B0
:1000B0005F010008A9340008B93400085F01000896
:1000C0005F0100085F0100085F0100085F01000890
:1000D0005F010008A93A00085F0100085F010008FD
:1000E0005F0100085F0100085F0100085F01000870
:1000F0005F0100085F0100085F0100085F01000860
:100100005F0100085F0100085F0100085F0100084F
:100110005F0100085F0100085F0100085F0100083F
:100120005F0100085F0100085F0100085F0100082F
:10013000DFF80CD000F02AF800480047D53B000853
:10014000680600200648804706480047FEE7FEE7AD
:10015000FEE7FEE7FEE7FEE7FEE7FEE7FEE7FEE777
:10016000A534000831010008D2B201E000F8012BEB
:10017000491EFBD270470022F6E710B513460A4627
:1001800004461946FFF7F0FF204610BD064C074D08
:1001900006E0E06840F0010394E807009847103457
:1001A000AC42F6D3FFF7C8FFA8440008C8440008D3
:1001B00000BFFEE770477047F0B504460A46216865
:1001C00094F82050012D01D0022D74D1D1F80002F5
:1001D00040F00100C1F80002107D00F01F06012070
:1001E00000FA06F3D1F81C029843C1F81C02D0694A
:1001F000C8B9D1F80C029843C1F80C02908880B2BB
:10020000968940EA064601F51070576940F8376054
:10021000108880B2168940EA064601F510705769C9
:1002200000EBC7004660D069012819D1D1F80C0253
:100230001843C1F80C02908880B2168840EA06463E
:1002400001F51070576940F83760908980B21689BF
:1002500040EA064601F51070576900EBC70046609A
:10026000906928B9D1F804029843C1F8040204E067
:10027000D1F804021843C1F80402106928B9D1F872
:1002800014029843C1F8140204E0D1F81402184390
:10029000C1F81402106A012804D1D1F81C021843D5
:1002A000C1F81C02D1F8000220F00100C1F80002E0
:1002B0000020F0BDFFE7606A40F48020606201200A
:1002C000F7E7704770B5044694F82050012D01D02F
:1002D000022D7DD151B92068C06800F0030080B9BB
:1002E000606A40F400106062012070BD20680069FF
:1002F00000F0030028B9606A40F400106062012039
:10030000F3E7206800F5D87000EB0110006800F0FA
:1003100004009060906840B9206800F5D87000EB48
:1003200001100068400D106007E0206800F5D870EB
:1003300000EB01100068C0085060206800F5D8701C
:1003400000EB0110006800F00200D060206800F5AA
:10035000D87000EB0110406800F00F0010612068B9
:1003600000F5D87000EB0110406800F47F40000AEF
:100370009061206800F5D87000EB01104068000C17
:100380005061206800F5D87000EB0110806818708B
:10039000206800F5D87000EB0110806800F47F4001
:1003A000000A5870206800F5D87000EB01108068D2
:1003B00000F47F00000C9870206800F5D87000EB06
:1003C00001108068000ED870206800F5D87000E039
:1003D0002FE000EB0110C0681871206800F5D8709C
:1003E00000EB0110C06800F47F40000A58712068DB
:1003F00000F5D87000EB0110C06800F47F00000C1D
:100400009871206800F5D87000EB0110C068000EEC
:10041000D87131B92068C06840F020002668F060CB
:1004200005E02068006940F0200026683061002067
:100430005BE7606A40F480206062012055E72DE9A7
:10044000F05F04460025206846692068D0F80490D3
:10045000206887682068D0F80CA02068D0F810B019
:100460002068D0F8188006F00100002855D007F069
:100470000100C0B101202168886007F0020018B1B6
:10048000204600F06CFA0EE007F0040010B145F4CD
:10049000006508E007F0080010B145F4805502E05F
:1004A000204600F05BFA07F48070C8B14FF480700A
:1004B0002168886007F4007018B1204600F051FAF6
:1004C0000EE007F4806010B145F4005508E007F431
:1004D000006010B145F4804502E0204600F040FA8B
:1004E00007F48030C8B14FF480302168886007F489
:1004F000003018B1204600F036FA0EE007F48020F4
:1005000010B145F4004508E007F4002010B145F4AF
:10051000803502E0204600F025FA06F0080038B1E8
:100520000AF0100020B145F4007510202168C86061
:1005300006F0040040B10AF0080028B10820216844
:10054000C860204600F0AEF906F0020038B120681D
:10055000C06800F0030010B1204600F0A5F906F0D5
:10056000400038B10BF0100020B145F48065102038
:100570002168086106F0200040B10BF0080028B1A6
:10058000082021680861204600F0B6F906F0100046
:1005900038B12068006900F0030010B1204600F077
:1005A000ACF906F4003040B109F0100028B1102079
:1005B00021684860204600F0A1F906F4803040B17F
:1005C00009F0080028B1082021684860204600F0A2
:1005D000CBF906F4004088B309F0040078B306F4C0
:1005E000807020B108F0010008B145F0010506F463
:1005F000007020B108F0020008B145F0020506F4D1
:10060000806020B108F0040008B145F0040506F44C
:100610000060A0B108F0700088B108F070004028B8
:1006200017D006DC10280BD020280CD0302819D188
:100630000CE0502810D0602814D110E01DE019E023
:1006400045F008050FE045F010050CE045F02005E9
:1006500009E045F0400506E045F0800503E045F47B
:10066000807500E000BF00BF2068806920F0700046
:10067000216888610420216848602DB1606A2843A0
:1006800060622046FFF71DFEBDE8F09F70B504468E
:100690000CB9012070BD94F8200010B9204600F07C
:1006A000AFF82068006840F001002168086000F0A1
:1006B0001DFC05460DE000F019FC401B0A2808D976
:1006C000606A40F400306062052084F82000012058
:1006D000E0E72068406800F001000028EBD02068C7
:1006E000006820F002002168086000F0FFFB05466A
:1006F0000DE000F0FBFB401B0A2808D9606A40F4BB
:1007000000306062052084F820000120C2E72068E4
:10071000406800F002000028EBD1207E012806D1BD
:100720002068006840F080002168086005E02068CB
:10073000006820F0800021680860607E012806D1F2
:100740002068006840F040002168086005E02068EB
:10075000006820F0400021680860A07E012806D1D2
:100760002068006840F020002168086005E02068EB
:10077000006820F0200021680860E07E012806D192
:100780002068006820F010002168086005E02068FB
:10079000006840F0100021680860207F012806D121
:1007A0002068006840F008002168086005E02068C3
:1007B000006820F0080021680860607F012806D1E9
:1007C0002068006840F004002168086005E02068A7
:1007D000006820F0040021680860D4E902010843A1
:1007E00021690843616908436168491E084321681B
:1007F000C86100206062012084F82000002049E7E1
:1008000010B586B004460020029003900490059035
:100810002049206888423BD100BF1F48C06940F092
:1008200000701D49C8610846C06900F00070019061
:1008300000BF00BF00BF0846806940F00400886127
:100840000846806900F00400019000BF00BFC81492
:10085000029000200390049002A9104800F098F93B
:100860004FF480500290022003900320059002A9CB
:100870000A4800F08DF900221146142000F090FD86
:10088000142000F07DFD00228021054800F028FBA7
:1008900006B010BD00640040001002400008014096
:1008A000000C01407047000010B504460E4B0F4A83
:1008B00000212046FFF706FD08B1FFF77CFC0B483E
:1008C00001680B48007800F5A07081420BD1074801
:1008D0000069082807D1044880790349C97900EBE9
:1008E00001200449088010BD54000020D8000020D9
:1008F0001E0000201C00002070477047704770B534
:10090000044694F82000012822D1022084F8200017
:100910002068006820F001002168086000F0E6FA15
:1009200005460DE000F0E2FA401B0A2808D9606A8B
:1009300040F400306062052084F82000012070BD82
:100940002068406800F001000028EBD16062F6E703
:10095000606A40F4002060620120F0E77047704751
:10096000704770477047704770470146002291F802
:100970002100022808D00420886300BF002081F8ED
:10098000200000BF012070470868006820F00E00BA
:100990000B6818600868006820F001000B68186098
:1009A00091F8403001209840CB6B5860012081F8CD
:1009B000210000BF002081F8200000BF1046E2E7C0
:1009C00070B50446002594F82100022803D00420C5
:1009D000A0630125C1E02068006820F00E002168B6
:1009E00008602068006820F00100216808605C4908
:1009F0002068884252D95A4978392068884201D102
:100A0000012047E0564964392068884201D110200E
:100A100040E0534950392068884201D1801539E0BF
:100A20004F493C392068884201D1801432E04C495A
:100A300028392068884202D14FF480302AE04849A2
:100A400014392068884202D14FF4801022E04449D2
:100A50002068884201D140041CE042492068884255
:100A600001D1012016E03F4914312068884201D1AC
:100A700010200FE03B4928312068884201D18015C1
:100A800008E038493C312068884201D1801401E0F7
:100A90004FF480303349091F086051E030497839FC
:100AA0002068884201D1012047E02D49643920683F
:100AB000884201D1102040E02949503920688842FD
:100AC00001D1801539E026493C392068884201D19E
:100AD000801432E0224928392068884202D14FF43C
:100AE00080302AE01E4914392068884202D14FF430
:100AF000801022E01A492068884201D140041CE09D
:100B000018492068884201D1012016E015491431A6
:100B10002068884201D110200FE012492831206856
:100B2000884201D1801508E00E493C312068884296
:100B300001D1801401E04FF48030094980394860C8
:100B4000012084F8210000BF002084F8200000BFAD
:100B5000606B10B12046616B8847284670BD00006D
:100B6000800002400804024070B5044600F0BEF95F
:100B700006462546681C10B104480078054400BFAD
:100B800000F0B4F9801BA842FAD370BD64000020C5
:100B90002DE9F847024600239C467BE14FF001080F
:100BA00008FA03F4D1F8008008EA0400A0427DD1DD
:100BB000DFF8F4A2D1F80480A8EB0A09D0453AD0B6
:100BC00014DCB8F1030F50D009DCB8F1000F31D0BC
:100BD000B8F1010F1CD0B8F1020F49D120E0B8F1F3
:100BE000110F18D0B8F1120F42D11EE0B9F5881FCD
:100BF00025D006DCB9F5803F20D0B9F5801F37D16C
:100C00001AE0B9F5001F18D0B9F5041F30D117E06C
:100C1000D1F80CC02DE0D1F80C8008F1040C28E0CC
:100C2000D1F80C8008F1080C23E0D1F80C8008F111
:100C30000C0C1EE000BF00BF00BF00BF00BF00BF24
:100C4000D1F80880B8F1000F02D14FF0040C0BE08E
:100C5000D1F80880B8F1010F03D14FF0080C1461EE
:100C600002E04FF0080C546103E04FF0000C00E08C
:100C700000BF00BFFF2801D8904601E002F1040840
:100C80004646FF2802D84FEA830803E0A3F108088C
:100C90004FEA88084746D6F800804FF00F0909FA56
:100CA00007F928EA09080CFA07F900E07AE048EAAF
:100CB0000908C6F80080D1F8048008F08058B8F11F
:100CC000805F6FD100BFDFF8E481D8F8188048F06A
:100CD0000108DFF8D891C9F81880C846D8F81880FC
:100CE00008F00108CDF8008000BF00BF4FEAB93816
:100CF0004FEA930958F829504FEA83784FEA187958
:100D00004FF00F0808FA09F825EA0805DFF8A08176
:100D1000424502D14FF0000824E0DFF898814245B7
:100D200002D14FF001081DE0DFF88C81424502D16D
:100D30004FF0020816E0DFF88481424502D14FF0FF
:100D400003080FE0DFF87881424502D14FF0040834
:100D500008E0DFF87081424502D14FF0050801E05C
:100D60004FF006084FEA83794FEA197908FA09F833
:100D700048EA0505DFF850814FEA930948F8295001
:100D8000D1F8048008F48038B8F5803F0BD1DFF843
:100D90003C81D8F8008048EA0008DFF83091C9F8B3
:100DA00000800AE075E0DFF82481D8F8008028EAA6
:100DB0000008DFF81891C9F80080D1F8048008F421
:100DC0000038B8F5003F0ED1DFF8008108F10408C3
:100DD000D8F8008048EA0008DFF8F09009F104092B
:100DE000C9F800800DE0DFF8E48008F10408D8F8C5
:100DF000008028EA0008DFF8D49009F10409C9F856
:100E00000080D1F8048008F48018B8F5801F0ED156
:100E1000DFF8B88008F10808D8F8008048EA000830
:100E2000DFF8A89009F10809C9F800800DE0DFF8A3
:100E30009C8008F10808D8F8008028EA0008DFF84C
:100E40008C9009F10809C9F80080D1F8048008F4F1
:100E50000018B8F5001F0ED1DFF8708008F10C08FB
:100E6000D8F8008048EA0008DFF8609009F10C0922
:100E7000C9F800800DE0DFF8548008F10C08D8F8BC
:100E8000008028EA0008DFF8449009F10C09C9F84D
:100E900000805B1CD1F8008028FA03F8B8F1000F3D
:100EA0007FF47CAEBDE8F88700001110001002400E
:100EB00000080140000C01400010014000140140F6
:100EC00000180140001C01400800014000040140DE
:100ED000024693680B400BB1012000E000207047F0
:100EE0000AB1016101E00B04036170470148006829
:100EF000704700005C00002070B504460CB901206A
:100F000070BD94F83D0028B9002084F83C002046CC
:100F100000F08CF9242084F83D002068006820F05F
:100F20000100216808602068006840F400402168E2
:100F300008602068006820F400402168086000F024
:100F40004DFB05465C496068884206D85B4885428F
:100F500001D2012007E0002005E05948854201D276
:100F6000012000E00020012800D1C9E75548B5FB69
:100F7000F0F62068406820F03F0030432168486068
:100F80004D496068884201D8701C07E04FF49670A4
:100F900070434FF47A71B0FBF1F0401C2168096A8C
:100FA00021F03F0108432168086243496068884294
:100FB00014D8681E61684900B0FBF1F0401CC0F312
:100FC0000B00042801D204203DE0681E616849003E
:100FD000B0FBF1F0401CC0F30B0034E0A06838B95E
:100FE000681E616801EB4101B0FBF1F0401C0AE0B2
:100FF000681E616801EBC10202EB0111B0FBF1F068
:10100000401C40F48040C0F30B0008B901201AE0F6
:10101000A06848B9681E616801EB4101B0FBF1F0BE
:10102000401CC0F30B000CE0681E616801EBC102BC
:1010300002EB0111B0FBF1F0401CC0F30B0040F4D7
:10104000804040F400402168C9694CF6FF7291432A
:1010500008432168C861D4E9070108432168096889
:1010600021F0C001084321680860D4E90310084357
:101070002168896848F2FF329143084321688860FB
:10108000D4E9050108432168C96821F0FF0108433C
:101090002168C8602068006840F00100216808608D
:1010A00000202064202084F83D000020206384F884
:1010B0003E0000BF24E70000A086010080841E00DF
:1010C00000093D0040420F002DE9FC5F04460F4639
:1010D00090469946DDE90CAB0E9EFFF707FF0546EB
:1010E00094F83D0020287DD1192301224D49204646
:1010F000009501F02DFD10B10220BDE8FC9F00BF5E
:1011000094F83C00012801D10220F6E7012084F880
:101110003C0000BF2068006800F0010028B920688A
:10112000006840F00100216808602068006820F431
:10113000006021680860212084F83D00402084F888
:101140003E0000202064C4F824A0A4F82AB0608DDA
:1011500020853548E0624B46424639462046CDE977
:10116000006501F057FC08B10120C6E731E02A46CE
:101170003146204601F091FD50B1206C042805D184
:101180002068006840F40070216808600120B4E71E
:10119000606A007821680861606A401C6062208D86
:1011A000401E2085608D401E608520684069C0F328
:1011B000800070B1208D60B1606A0078216808619C
:1011C000606A401C6062208D401E2085608D401E3C
:1011D0006085208D0028CAD12A463146204601F07C
:1011E00089FC00E01CE050B1206C042805D1206887
:1011F000006840F400702168086001207DE72068E5
:10120000006840F4007021680860202084F83D00E8
:10121000002084F83E0000BF84F83C0000BF6CE76B
:1012200002206AE7020010000000FFFF10B586B040
:101230000446002002900390049005901549206810
:10124000884225D100BF1448806940F00800124947
:1012500088610846806900F00800019000BF00BF67
:10126000C0200290122003900320059002A90B4891
:10127000FFF78EFC00BF0848C06940F40010064923
:10128000C8610846C06900F40010019000BF00BFAB
:1012900006B010BD0054004000100240000C014098
:1012A0000348006803490978084401490860704709
:1012B0005C0000206400002010B50848006840F081
:1012C000100006490860032000F0A8F8002000F094
:1012D00007F800F02BF8002010BD000000200240AD
:1012E00070B504460E4800784FF47A71B1FBF0F007
:1012F0000C490968B1FBF0F5284600F00BFC08B179
:10130000012070BD102C07D200222146501E00F093
:1013100047F80548046001E00120F2E70020F0E70B
:1013200064000020680000206000002008B500BFB5
:101330001148806940F001000F49886108468069C2
:1013400000F00100009000BF00BF00BF0846C06968
:1013500040F08050C8610846C06900F0805000909D
:1013600000BF00BF00BF0549486820F0E06040F0C2
:101370000070486000BF08BD00100240000001403E
:1013800001460846002809DB00F01F0301229A40AD
:1013900043099B0003F1E023C3F8002100BF70471D
:1013A0002DE9F05F80460D461646002702F0E6FB69
:1013B000074639462A46334601F00700C0F1070ABE
:1013C000BAF1040F02D94FF0040A01E0C0F1070A94
:1013D000D14600F1040ABAF1070F02D24FF0000A19
:1013E00001E0A0F1030AD4464FF0010A0AFA09FA13
:1013F000AAF1010A0AEA020A0AFA0CFA4FF0010BF2
:101400000BFA0CFBABF1010B0BEA030B4AEA0B04E2
:101410002146404602F0BAFBBDE8F09F00BF00F055
:101420000702064B19684FF6FF031940044B0B43A4
:1014300043EA0221014B196000BF70470CED00E048
:101440000000FA0570B504460D460CB9012070BDC8
:101450005A48006800F00700A8420ED257480068BA
:1014600020F007002843554908600846006800F04E
:101470000700A84201D00120E9E7207800F002002F
:1014800002281DD1207800F00400042805D14C4822
:10149000406840F4E0604A494860207800F0080065
:1014A000082805D14648406840F4605044494860E7
:1014B0004348406820F0F000A16808434049486074
:1014C000207800F0010078B36068012806D13C481C
:1014D000006800F4003090B90120B8E76068022885
:1014E00006D13748006800F0007040B90120AEE72F
:1014F0003348006800F0020008B90120A7E730482F
:10150000406820F00300616808432D494860FFF7F8
:10151000EDFC064609E0FFF7E9FC801B41F288314B
:10152000884202D9032092E707E02548406800F08E
:101530000C006168B0EB810FEDD12048006800F02D
:101540000700A8420ED91D48006820F00700284374
:101550001A4908600846006800F00700A84201D058
:10156000012074E7207800F00400042807D1144813
:10157000406820F4E060E168084311494860207841
:1015800000F00800082808D10D48406820F4605099
:10159000216940EAC1000A49486000F03FF8084963
:1015A0004968C1F30311074A515CC8400649086005
:1015B00006480068FFF794FE002048E7002002403C
:1015C000001002408E4400086800002060000020E7
:1015D00001480068704700006800002000B5FFF770
:1015E000F7FF04494968C1F30221034A515CC8402E
:1015F00000BD0000001002409E44000800B5FFF747
:10160000E7FF04494968C1F3C221034A515CC8405D
:1016100000BD0000001002409E440008F0B585B0F7
:101620000FF26C0C9CE8E01001A8A0E8E0101CA5EB
:101630002D68009500210022002300240020194D70
:10164000696801F00C05F5B1042D02D0082D19D1FF
:1016500001E0154819E001ADC1F38346AC5D01F42A
:10166000803555B10F4D6D68C5F340451DF8052017
:101670000D4D6543B5FBF2F302E00C4D04FB05F3A1
:10168000184602E000BF084800BF00BF05B0F0BD2B
:1016900002030405060708090A0B0C0D0E0F1010B3
:1016A000010200000010024000127A0000093D0013
:1016B000F8B504460CB90120F8BD207800F001000F
:1016C000002878D0F848406800F00C0004280CD0BE
:1016D000F548406800F00C00082811D1F248406835
:1016E00000F48030B0F5803F0AD1EF48006800F484
:1016F000003000285FD0606800285CD10120DBE763
:1017000000BF6068B0F5803F06D1E748006840F44C
:101710008030E549086028E0606858B9E248006810
:1017200020F48030E04908600846006820F48020FA
:1017300008601AE06068B0F5A02F0BD1DA480068A5
:1017400040F48020D84908600846006840F48030A2
:1017500008600AE0D448006820F48030D24908606C
:101760000846006820F48020086000BF606888B1E7
:10177000FFF7BCFB054606E0FFF7B8FB401B6428FB
:1017800001D9032098E7C848006800F40030002819
:10179000F2D010E0FFF7AAFB054606E0FFF7A6FB34
:1017A000401B642801D9032086E7BF48006800F485
:1017B00000300028F2D1207800F00200022857D132
:1017C000B948406800F00C0050B1B748406800F0DC
:1017D0000C00082818D1B448406800F4803098B94B
:1017E000B148006800F0020020B12069012801D052
:1017F000012061E7AC48006820F0F800616940EA28
:10180000C100A949086033E02069E8B10120A74977
:101810000860FFF76BFB054606E0FFF767FB401B20
:10182000022801D9032047E79F48006800F0020022
:101830000028F2D09C48006820F0F800616940EA76
:10184000C1009949086013E0002098490860FFF73B
:101850004DFB054606E0FFF749FB401B022801D976
:10186000032029E79048006800F002000028F2D128
:10187000207800F0080008282DD1A069B8B1012017
:101880008B490860FFF732FB054606E0FFF72EFBA9
:10189000401B022801D903200EE78348406A00F06C
:1018A00002000028F2D0012001F0B0FD13E000207A
:1018B0007F490860FFF71AFB054606E0FFF716FBB5
:1018C000401B022801D90320F6E67748406A00F061
:1018D00002000028F2D1207800F00400042873D11F
:1018E00000277148C06900F0805070B900BF6E4891
:1018F000C06940F080506C49C8610846C06900F07A
:101900008050009000BF00BF01276A48006800F4C3
:101910008070B0B96748006840F48070654908601D
:10192000FFF7E4FA054606E0FFF7E0FA401B6428FB
:1019300001D90320C0E65F48006800F480700028E9
:10194000F2D000BFE068012806D15748006A40F095
:1019500001005549086227E0E06858B95248006A1A
:1019600020F00100504908620846006A20F0040097
:10197000086219E0E06805280BD14B48006A40F086
:101980000400494908620846006A40F00100086204
:101990000AE04548006A20F0010043490862084611
:1019A000006A20F00400086200BFE068A0B1FFF701
:1019B0009DFA054609E0FFF799FA401B41F288318C
:1019C000884202D9032077E622E03748006A00F017
:1019D00002000028EFD012E0FFF788FA054608E081
:1019E000FFF784FA401B41F28831884201D9032075
:1019F00062E62D48006A00F002000028F0D1012FB5
:101A000005D12948C06920F080502749C86100BF2E
:101A1000E069C8B32448406800F00C00082860D092
:101A2000E069022848D1002020490866FFF75EFAE5
:101A3000054606E0FFF75AFA401B022801D90320A9
:101A40003AE61948006800F000700028F2D1206AD8
:101A5000B0F5803F07D11448406820F40030A168F9
:101A6000084311494860D4E9080108430E49496810
:101A700021F4741108430C49486001200B490866A1
:101A8000FFF734FA054607E03DE0FFF72FFA401B69
:101A9000022801D903200FE60348006800F0007017
:101AA0000028F2D02FE00000001002400000424267
:101AB0008004424200700040002014490866FFF78D
:101AC00015FA054606E0FFF711FA401B022801D976
:101AD0000320F1E50E48006800F000700028F2D104
:101AE00011E0E069012800D1E6E50948466806F4FE
:101AF0008031206A814204D106F47011606A81420B
:101B000001D00120D8E50020D6E5000000004242C7
:101B10000010024070B504462546681EB0F1807F73
:101B200001D301200FE0681E4FF0E02148610F2132
:101B30004FF0FF3002F02AF800204FF0E0218861DA
:101B400007200861002070BD7047704710B503463C
:101B5000002200BF93F83C00012801D1022010BDF3
:101B6000012083F83C0000BF22F0FF00CC6840EA6F
:101B7000040222F440708C6840EA040222F480607F
:101B80004C6840EA040222F400600C6840EA040257
:101B900022F480500C6940EA040222F400504C699F
:101BA00040EA040222F48040CC6940EA040218684A
:101BB000426400BF002083F83C0000BF00BFCEE7B6
:101BC00030B502460B4600BF92F83C00012801D117
:101BD000022030BD012082F83C0000BF022082F8C4
:101BE0003D00106844681068816824F0700418682B
:101BF000044310684460144D1068A84213D0134D7C
:101C00001068A8420FD01068B0F1804F0BD0104D73
:101C10001068A84207D00F4D1068A84203D00E4D9F
:101C20001068A84205D121F080015868014310686E
:101C30008160012082F83D0000BF002082F83C0056
:101C400000BF00BFC5E70000002C01400034014088
:101C50000004004000080040000C004010B504469D
:101C60000CB9012010BD94F83D0028B9002084F87B
:101C70003C00204600F026F8022084F83D00211D9B
:101C8000206801F021FC012084F8460000BF84F8A0
:101C90003E0001213F2001554020015541200155C2
:101CA00000BF00BF012084F84200432001554420BA
:101CB00001554520015500BF012084F83D0000205A
:101CC000D0E7000038B504462349206888420DD18A
:101CD00000BF2248806940F40060204988610846BE
:101CE000806900F40060009000BF34E01C49206867
:101CF000884216D100BF1948C06940F00200174958
:101D0000C8610846C06900F00200009000BF00BF33
:101D1000002211461D20FFF743FB1D20FFF730FB7B
:101D200019E010492068884215D100BF0B48C069EE
:101D300040F004000949C8610846C06900F0040089
:101D4000009000BF00BF002211461E20FFF728FBB5
:101D50001E20FFF715FB38BD002C0140001002408B
:101D60000004004000080040014691F83D000128B1
:101D700001D001207047022081F83D000868C0684A
:101D800040F001000B68D860164B0868984213D0E9
:101D9000154B086898420FD00868B0F1804F0BD0FF
:101DA000124B0868984207D0114B0868984203D03C
:101DB000104B086898420CD10868806800F0070250
:101DC000062A0CD00868006840F001000B68186013
:101DD00005E00868006840F001000B68186000200A
:101DE000C8E70000002C014000340140000400401E
:101DF00000080040000C00402DE9F04104460D466B
:101E000000BF94F83C00012802D10220BDE8F08117
:101E1000012084F83C0000BF022084F83D002068C7
:101E2000866826F0770626F47F4620688660286854
:101E3000502833D00CDC202850D004DC00284BD0B4
:101E4000102851D149E0302849D040284CD139E000
:101E500060282DD0702807D0B0F5805F03D0B0F592
:101E6000005F41D10DE040E0D5E902136A682068C7
:101E700001F089FB2068866846F077062068866056
:101E800033E0D5E902136A68206801F07CFB206822
:101E9000806840F480402168886026E0EA686968CC
:101EA000206801F061FC5021206801F077FB1CE004
:101EB000EA686968206801F06AFC6021206801F026
:101EC0006DFB12E0EA686968206801F04DFC402172
:101ED000206801F063FB08E000BF00BF00BF296875
:101EE000206801F05BFB00E000BF00BF012084F828
:101EF0003D0000BF002084F83C0000BF00BF85E724
:101F0000704710B5044620680069C0F34000D8B19E
:101F10002068C068C0F34000B0B16FF002002168D3
:101F20000861012020772068806900F0030018B163
:101F30002046FFF7E5FF05E0204600F00DF92046BA
:101F400000F0BDF90020207720680069C0F3800010
:101F5000D8B12068C068C0F38000B0B16FF0040051
:101F600021680861022020772068806900F44070B1
:101F700018B12046FFF7C4FF05E0204600F0ECF85A
:101F8000204600F09CF90020207720680069C0F30B
:101F9000C000D8B12068C068C0F3C000B0B16FF015
:101FA000080021680861042020772068C06900F0DB
:101FB000030018B12046FFF7A3FF05E0204600F01C
:101FC000CBF8204600F07BF90020207720680069DC
:101FD000C0F30010D8B12068C068C0F30010B0B1E1
:101FE0006FF0100021680861082020772068C06920
:101FF00000F4407018B12046FFF782FF05E020464C
:1020000000F0AAF8204600F05AF900202077206856
:10201000006900F0010058B12068C06800F00100BC
:1020200030B16FF0010021680861204600F0C2F96C
:1020300020680069C0F3C01058B12068C068C0F3C0
:10204000C01030B16FF08000216808612046FFF7B2
:102050007BFD20680069C0F3801058B12068C0681B
:10206000C0F3801030B16FF0400021680861204655
:1020700000F066FA20680069C0F3401058B120688B
:10208000C068C0F3401030B16FF0200021680861D3
:102090002046FFF75AFD10BD10B586B0044600205B
:1020A000029003900490059025492068884221D130
:1020B00000BF2448806940F04000224988610846FA
:1020C000806900F04000019000BF00BF48150290F9
:1020D00002200390059002A91B48FEF759FD00BF9E
:1020E0001A49486820F0C00040F0E06040F0C000AD
:1020F000486023E01649206888421FD100BF11487C
:10210000806940F020000F4988610846806900F02E
:102110002000019000BF00BF8814029002200390AD
:10212000059002A90B48FEF733FD00BF0749486838
:1021300040F0E06040F48050486000BF06B010BD41
:10214000002C014000100240001801400000014036
:102150000008004000140140704770B504460D4669
:10216000164600BF94F83C00012801D1022070BD42
:10217000012084F83C0000BF36B1042E1BD0082E8D
:1021800031D00C2E5ED145E02946206801F010FACE
:102190002068806940F008002168886120688069B3
:1021A00020F004002168886120688069296908435B
:1021B0002168886147E02946206801F031FA2068EB
:1021C000806940F40060216888612068806920F49B
:1021D00080602168886120688069296940EA01205F
:1021E000216888612FE02946206801F057FA2068AD
:1021F000C06940F008002168C8612068C06920F00B
:1022000004002168C8612068C06929690843216801
:10221000C86118E02946206801F07CFA2068C0698E
:1022200040F400602168C8612068C06920F48060C3
:102230002168C8612068C069296940EA01202168D5
:10224000C86100E000BF00BF00BF002084F83C0070
:1022500000BF00BF8BE710B504460CB9012010BDCC
:1022600094F83D0028B9002084F83C00204600F096
:1022700025F8022084F83D00211D206801F024F992
:10228000012084F8460000BF84F83E0001213F2071
:102290000155402001554120015500BF00BF0120DC
:1022A00084F8420043200155442001554520015542
:1022B00000BF012084F83D000020D0E77047704740
:1022C00070B504460D4615B994F83E000BE0042D98
:1022D00002D13F20005D06E0082D02D14020005DC4
:1022E00001E04120005D012801D0012070BD1DB931
:1022F000022084F83E000EE0042D03D102213F208D
:10230000015508E0082D03D102214020015502E0CB
:1023100002214120015501222946206801F022F9BD
:102320001F492068884203D01E492068884201D195
:10233000012000E0002028B12068406C40F40040FB
:102340002168486416492068884213D015492068DE
:1023500088420FD02068B0F1804F0BD0124920681E
:10236000884207D011492068884203D0104920686C
:1023700088420CD12068806800F00706062E0CD039
:102380002068006840F001002168086005E02068CE
:10239000006840F00100216808600020A6E7000006
:1023A000002C0140003401400004004000080040BF
:1023B000000C004038B504465149206888427DD160
:1023C00050480068401C4F49086008214E48FEF7FD
:1023D0007FFD60B904E001204C4908604C498860E9
:1023E00008214948FEF774FD0028F4D008E00821D0
:1023F0004548FEF76DFD012802D1002043490860E1
:1024000010214148FEF764FD60B904E00120414914
:1024100008603F49486010213B48FEF759FD0028FD
:10242000F4D008E010213848FEF752FD012802D10F
:1024300000203849086004213348FEF749FD60B99F
:1024400004E00120344908603149086004212E4825
:10245000FEF73EFD0028F4D008E004212A48FEF7EC
:1024600037FD012802D100202B49086001212B48AB
:10247000FEF72EFD01280CD104E001202849086058
:102480002349C86001212548FEF722FD0128F4D028
:1024900007E001212148FEF71BFD10B9002020496B
:1024A000086000F035FC102000901E48008882B2C1
:1024B00010230121DC2000F01DFF00E019E01023B3
:1024C00019A20121084600F059FF1948008880B27E
:1024D000642190FBF1F5102003462A460421009068
:1024E000DC2000F007FF102312A20421012000F0DD
:1024F00045FF12492068884200D100BF38BD000066
:1025000000040040080000200018014010000020D6
:102510006C0000200C000020140000200008014086
:102520001800002034000020616E676C65793A0065
:1025300030000020616E676C65783A00000800404A
:1025400070477047704700002DE9F84F0446206837
:1025500005682068C668206847694FF00009CA46C8
:1025600005F00F09B9F1000F0AD105F0200038B1CC
:1025700006F0200020B1204601F052F9BDE8F88FA6
:10258000B9F1000F71D007F0010018B906F490708E
:1025900000286AD005F0010030B106F4807018B14F
:1025A000206C40F00100206405F0040030B107F019
:1025B000010018B1206C40F00200206405F0020018
:1025C00030B107F0010018B1206C40F00400206425
:1025D00005F0080048B106F0200010B907F001002E
:1025E00018B1206C40F008002064206C68B305F03E
:1025F000200028B106F0200010B1204601F010F9AB
:1026000020684069C0F3801A206C00F0080010B9FF
:10261000BAF1000F22D0204601F0D7F820684069B7
:1026200000F04000B0B12068406920F0400021680F
:102630004861A06B50B15648A16B4863A06BFEF790
:10264000BFF910B1A06B416B88470CE02046FFF743
:1026500079FF08E02046FFF775FF04E02046FFF70A
:1026600071FF0020206489E7FFE7206B012878D103
:1026700005F01000002874D006F01000002870D07B
:1026800000BF00200090206800680090206840682B
:10269000009000BF00BF2068406900F04000C0B358
:1026A000A06B006840681FFA80F8B8F1000F2FD0C7
:1026B000A08D40452CDDA4F82E80A06B80692028D9
:1026C0001FD02068C06820F480702168C86020682E
:1026D000406920F00100216848612068406920F0CD
:1026E000400021684861202084F83E0000202063DB
:1026F0002068C06820F010002168C860A06BFEF759
:1027000034F9A08DE28D801A81B22046FFF719FFBF
:1027100034E7FFE7A08DE18D401A1FFA80F8E08DC5
:10272000E8B1B8F1000F1AD02068C06820F49070AA
:102730002168C8602068406920F001002168486174
:10274000202084F83E00002020632068C06820F02C
:1027500010002168C86041462046FFF7F2FE0DE7F1
:10276000FFE705F0800030B106F0800018B1204688
:1027700001F069F902E705F0400030B106F04000D1
:1027800018B1204601F03CF8F8E600BFF6E600007C
:10279000B737000810B504460CB9012010BDA06978
:1027A00000B100E000BF94F83D0028B9002084F893
:1027B0003C00204600F028F8242084F83D002068E2
:1027C000C06820F400502168C860204601F09AF8E3
:1027D0002068006920F49040216808612068406901
:1027E00020F02A00216848612068C06840F4005049
:1027F0002168C86000202064202084F83D0084F80F
:102800003E000020CAE7000010B586B00446002054
:1028100002900390049005901E492068884236D1AA
:1028200000BF1D48806940F480401B49886108460C
:10283000806900F48040019000BF00BF00BF0846DF
:10284000806940F0040088610846806900F0040057
:10285000019000BF00BF48150290022003900320A2
:10286000059002A90D48FEF793F94FF4806002909D
:1028700000200390049002A90848FEF789F900227D
:1028800011462520FEF78CFD2520FEF779FD06B0C8
:1028900010BD000000380140001002400008014057
:1028A00070B504460D46164694F83E00202816D111
:1028B00005B10EB9012070BD00BF94F83C0001289D
:1028C00001D10220F7E7012084F83C0000BF00207E
:1028D000206332462946204601F092F8EBE70220B9
:1028E000E9E7000010B504462F49206888425AD114
:1028F0002E4800682C2803D02D48006801284DD1AF
:1029000001202B490860294801682A4802680068AC
:10291000401C284B1860284840F8221018460068D0
:1029200007283BD100221A60214B1A600122234B59
:102930001A60214AD26802EB8202D1001E4A526913
:10294000282392FBF3F01C4A926802B949421A4AC2
:102950001269012A00D14042194A12680244184BF8
:102960001A601A461268174B1A60174A11601A4605
:102970001268462A02DC46221A6006E0114A1268F2
:10298000AA2A02DBAA220F4B1A600B4A926922B9CB
:1029900096220B4B1A600B4B1A6000BF01220349B1
:1029A0000A48FFF77DFF10BD003801402C000020D1
:1029B00040000020440000207C000020380000205F
:1029C00048000020340000203000002020020020B9
:1029D000704700BFFEE7014608684069C0F38020E9
:1029E000B0B16FF480600A68506100200863202055
:1029F00081F83D00002081F83E00086C40F00400A2
:102A0000086400BF002081F83C0000BF012070472F
:102A10000020FCE72DE9F843044688461546994610
:102A2000DDE908672068006840F48070216808606C
:102A3000334600224FF001112046009700F088F83D
:102A400060B12068006800F48070B0F5807F02D12A
:102A50004FF4007020640320BDE8F88308F0FE0006
:102A6000216808613B4632462149204600F0B3F810
:102A700008B10120F0E700BF002000902068406905
:102A8000009020688069009000BF00BF3A46314640
:102A9000204600F002F950B1206C042805D12068CE
:102AA000006840F40070216808600120D4E7B9F1A3
:102AB000010F03D1E8B22168086117E0C5F30720D0
:102AC000216808613A463146204600F0E6F850B1E8
:102AD000206C042805D12068006840F4007021684B
:102AE00008600120B8E7E8B2216808610020B3E778
:102AF0000200010070B504460D46164620E020464F
:102B0000FFF769FF08B1012070BD681CC0B1FEF776
:102B1000EDF9801BA84200D895B900202063202041
:102B200084F83D00002084F83E00206C40F0200036
:102B3000206400BF002084F83C0000BF0120E3E7D0
:102B400020684069C0F380000028D8D00020DBE76F
:102B50002DE9F04104460D4617461E46DDF8188063
:102B60001CE0701CD0B1FEF7C1F9A0EB0800B04228
:102B700000D89EB900202063202084F83D0000206A
:102B800084F83E00206C40F02000206400BF00204C
:102B900084F83C0000BF0120BDE8F081C5F3074088
:102BA00001280AD120684069A9B20840A9B2884228
:102BB00001D101200BE0002009E020688069A9B262
:102BC0000840A9B2884201D1012000E00020B842AB
:102BD000C7D00020E0E72DE9F04104460D46164637
:102BE0001F463DE020684069C0F38020E8B12068BE
:102BF000006840F40070216808606FF4806021680C
:102C0000486100202063202084F83D00002084F8E3
:102C10003E00206C40F00400206400BF002084F8D7
:102C20003C0000BF0120BDE8F081701CC0B1FEF780
:102C30005DF9C01BB04200D896B900202063202067
:102C400084F83D00002084F83E00206C40F0200015
:102C5000206400BF002084F83C0000BF0120E2E7B0
:102C6000C5F3074001280AD120684069A9B208408D
:102C7000A9B2884201D101200BE0002009E02068C0
:102C80008069A9B20840A9B2884201D1012000E0C0
:102C900000200028A6D00020C5E770B504460D46E8
:102CA000164620E02046FFF796FE08B1012070BDD1
:102CB000681CC0B1FEF71AF9801BA84200D895B96C
:102CC00000202063202084F83D00002084F83E008E
:102CD000206C40F02000206400BF002084F83C00FD
:102CE00000BF0120E3E720684069C0F3C01000285E
:102CF000D8D00020DBE70000FA20034908600A2052
:102D00000249086070470000000000200400002015
:102D10001D48C068012807D11C480068401C1B4999
:102D2000086000201849C8601748806801280ED143
:102D300016480068401E1549086000201249886046
:102D400012480068002802DA0020104908600E4886
:102D50004068012809D10E4800680C4909680844F8
:102D60000B490860002008494860074800680128AE
:102D700009D10748006805490968401A04490860F4
:102D800000200149086070476C000020040000200A
:102D90000000002000B58BB03048314908600220A7
:102DA000486000212E488160C1604FF4002101611C
:102DB0004FF4E00141610021017641768176C176D0
:102DC00001774177FDF762FC08B1FDF7F4F90020C7
:102DD0000790012008904FF42050019000200290AD
:102DE0004FF47C40039006200490002005900120C1
:102DF00009900020069001A91948FDF7DDF908B1F6
:102E0000FDF7D9F900200790012008904FF4A04069
:102E10000190002002904FF6E0700390062004908D
:102E200000200590012009900E20069001A90C4871
:102E3000FDF7C2F908B1FDF7BEF90948FDF75FFDDE
:102E400008B1FDF7B8F906480068406940F0020093
:102E50000349096848610BB000BD000000640040F0
:102E60009800002000B585B00020019002900390EA
:102E7000049000BF2A48806940F0400028498861DA
:102E80000846806900F04000009000BF00BF00BF0E
:102E90000846806940F0100088610846806900F0AB
:102EA0001000009000BF00BF00BF0846806940F0DE
:102EB000040088610846806900F00400009000BFAB
:102EC00000BF00BF0846806940F0200088610846C6
:102ED000806900F02000009000BF00BF00BF0846DE
:102EE000806940F0080088610846806900F00800A9
:102EF000009000BF00BF1C200190002002900390B2
:102F000001A90848FDF744FE01200190002002902D
:102F10000220039001A90448FDF73AFE05B000BD68
:102F200000100240001801400008014010B50B4895
:102F30000B4908600B484860002109488160C16066
:102F40004FF480410161002141618161C1610162F1
:102F5000FDF7D2FF08B1FDF72EF910BD0054004077
:102F6000F4000020A086010000B595B0002011906B
:102F70001290139014900F9010901C2108A8FDF748
:102F8000FAF820216846FDF7F6F82B482B4908602F
:102F900040F2CF20486000212848816040F2CF7184
:102FA000C1600021016141618161FEF757FE08B1F6
:102FB000FDF701F94FF48050119011A91F48FEF759
:102FC0001BFF08B1FDF7F7F81C48FFF744F908B1FB
:102FD000FDF7F1F800200F9010900FA91748FEF7A9
:102FE000EFFD08B1FDF7E7F8602008900020099098
:102FF0000A900B900C900D900E90002208A90F489B
:10300000FFF7ABF808B1FDF7D6F80020009001906B
:103010000290039004904FF4005005900020079018
:1030200069460648FEF792FD08B1FDF7C4F803486B
:10303000FFF732F815B000BD002C01404801002018
:1030400000B587B000200390049005900690019091
:10305000029015481549086041F61F40486000215C
:103060001248816042F20F71C160002101618161EB
:10307000FEF7F4FD08B1FDF79EF84FF48050039081
:1030800003A90A48FEF7B8FE08B1FDF794F800203E
:103090000190029001A90548FEF792FD08B1FDF7E5
:1030A0008AF807B000BD0000000400409001002035
:1030B00000B58DB0002009900A900B900C900790FD
:1030C00008901C216846FDF756F820482049086002
:1030D00040F2CF20486000211D48816040F2CF714E
:1030E000C160002101618161FEF7B8FD08B1FDF703
:1030F00062F84FF48050099009A91548FEF77CFE4C
:1031000008B1FDF758F81248FFF7A5F808B1FDF728
:1031100052F800200790089007A90D48FEF750FDCF
:1031200008B1FDF748F8602000900020019002905F
:103130000490002269460648FFF70FF808B1FDF732
:103140003AF80348FEF7A8FF0DB000BD00080040A4
:10315000D801002010B50B480B4908604FF4E1304E
:103160004860002108488160C16001610C21416113
:1031700000218161C161FFF70DFB08B1FDF71BF86C
:1031800010BD0000003801402002002000BFFEE713
:10319000704770B5002415E004F1B001C8B200F02A
:1031A0000BF9002000F008F9102000F005F90025C7
:1031B00004E0002000F014F9681CC5B2802DF8DB93
:1031C000601CC4B2082CE7DB70BD10B5002403E01E
:1031D000E0B200F004F8641C082CF9DB10BD70B5F7
:1031E000044604F1B001C8B200F0E6F8202000F077
:1031F000E3F8002000F0E0F8002504E0002000F0F3
:10320000EFF8681CC5B2802DF8DB70BD10B58D20BD
:1032100000F0D2F8142000F0CFF8AF2000F0CCF886
:1032200010BD10B54FF4FA70FDF79EFC00F04EFC97
:1032300010BD70B504460D4605F1B001C8B200F0EE
:10324000BBF8102141EA141000F0B6F804F00F00AA
:1032500000F0B2F870BD00002DE9F04707460E46B9
:103260009046994600250024A8F12000C5B27F2F82
:1032700002DD0027B01CC6B2B9F1100F22DC3146C6
:103280003846FFF7D6FF002407E004EB0511174A84
:10329000505C00F0A5F8601CC4B2082CF5DB701C73
:1032A000C1B23846FFF7C5FF002408E004EB051162
:1032B00008310E4A505C00F093F8601CC4B2082C30
:1032C000F4DB11E031463846FFF7B3FF002409E094
:1032D00005EB4501064A02EB4101085D00F080F86C
:1032E000601CC4B2062CF3DBBDE8F0879E3E0008EC
:1032F000763C00082DE9FF5F074691461E460E9D6D
:103300004FF0000A002435E0301B401EC1B20A20F5
:1033100000F0A6FCB9FBF0F00A21B0FBF1F201FBD2
:103320001208BAF1000F14D1701EA04211DDB8F1DD
:10333000000F0CD1AB4605EBDB71491001FB0471AA
:10334000C8B22B4620220199FFF786FF10E04FF00C
:10335000010AAB4605EBDB71491001FB0471C8B2F1
:1033600008F13001CAB22B460199FFF775FF00BF83
:10337000601CC4B2B442C7DBBDE8FF9F2DE9F04139
:1033800004460F461546984600260FE0AA5D4346C0
:1033900039462046FFF760FF04F10800C4B2782CDC
:1033A00002DD0024B81CC7B2701CC6B2A85D00289C
:1033B000ECD1BDE8F081000001B584B04FF480701D
:1033C000012104AA0B46CDE90021029000227821B8
:1033D0000248FDF779FE05B000BD0000F4000020B2
:1033E00001B584B04FF48070012104AA0B46CDE9E9
:1033F00000210290402278210248FDF765FE05B0C9
:1034000000BD0000F40000207047000008B5084926
:103410000968C9084FF47A72B1FBF2F14143009197
:1034200000BF00BF00994A1E00920029F9D108BDD3
:1034300068000020704710B5FDF732FF10BD00B5E1
:103440008FB0282105A8FCF796FE14216846FCF7EA
:1034500092FE0120059000040690002007900120B4
:10346000099002200C90C1030D914FF4E0110E91D0
:1034700005A8FEF71DF908B1FCF79DFE0F2000908E
:1034800002200190002002904FF480600390002001
:10349000049002216846FDF7D5FF08B1FCF78BFECA
:1034A0000FB000BD7047000010B50248FEF729FDBF
:1034B00010BD00009001002010B50248FEF721FD6C
:1034C00010BD0000D801002010B50268204B9842C2
:1034D0000ED0204B98420BD0B0F1804F08D01E4B3D
:1034E000984205D01D4B984202D01D4B984203D103
:1034F00022F070024B681A43154B98420ED0154BC0
:1035000098420BD0B0F1804F08D0134B984205D0B1
:10351000124B984202D0124B984203D122F44072CF
:10352000CB681A4322F080034C6943EA040202602C
:103530008B68C3620B688362054B984202D0054BCF
:10354000984201D10B6903630123436110BD000060
:10355000002C0140003401400004004000080040FD
:10356000000C004030B501F01F05012404FA05F3FA
:10357000046A9C430462046A01F01F0502FA05F51F
:103580002C43046230BD30B50C46816821F47F4184
:1035900042EA032525432943816030BD0A468168FC
:1035A00021F0700142F00703194381607047000069
:1035B00030B5056A25F001050562026A4368846931
:1035C00024F0700424F003040D682C4322F002025E
:1035D0008D682A43104DA84200D103E00F4DA84248
:1035E00006D100BF22F00802CD682A4322F004026F
:1035F000094DA84202D0094DA84207D123F4807397
:1036000023F400734D692B438D692B434360846120
:103610004D684563026230BD002C0140003401401A
:1036200030B5056A25F010050562026A43688469B1
:1036300024F4E04424F440740D6844EA052422F0A4
:1036400020028D6842EA0512124DA84200D103E023
:10365000114DA84207D100BF22F08002CD6842EA96
:10366000051222F040020B4DA84202D00A4DA8429A
:1036700009D123F4806323F400634D6943EA850391
:103680008D6943EA8503436084614D688563026206
:1036900030BD0000002C01400034014030B5056A07
:1036A00025F480750562026A4368C46924F07004D9
:1036B00024F003040D682C4322F400728D6842EA62
:1036C0000522124DA84200D103E0114DA84207D1B6
:1036D00000BF22F40062CD6842EA052222F4806233
:1036E0000A4DA84202D00A4DA84209D123F48053C2
:1036F00023F400534D6943EA05138D6943EA05132A
:103700004360C4614D68C563026230BD002C014056
:103710000034014030B5056A25F480550562036A1E
:103720004468C26922F4E04222F440720D6842EA21
:10373000052223F400538D6843EA0533084DA8425F
:1037400002D0084DA84204D124F480444D6944EAD3
:1037500085144460C2614D680564036230BD000099
:10376000002C01400034014030B50B461446026A7B
:10377000056A25F001050562816921F0F00141EA41
:10378000041122F00A021A438161026230BD30B591
:103790000B461446056A25F0100505628169026A28
:1037A00021F4704141EA043122F0A00242EA0312FE
:1037B0008161026230BD70B505466C6A0020E0850B
:1037C000E0842046FEF7BEFE70BD0168C96821F4A2
:1037D00090710268D1600168496921F001010268B5
:1037E0005161016B012905D10168C96821F01001FF
:1037F0000268D160202180F83E10002101637047EB
:1038000010B504462068C06820F040002168C860F8
:10381000202084F83D002046FFF7DAF8002010BD94
:10382000F8B5044694F83E00222869D1A068B0F5A6
:10383000805F0CD1206950B90025A66A20684068D5
:10384000C0F308003080A06A801CA06215E0A56A61
:103850000026A068B0F5805F03D0A06828B9206971
:1038600018B920684068287004E02068406800F0BB
:103870007F002870A06A401CA062E08D401E80B2CC
:10388000E085A8BB2068C06820F020002168C860DF
:103890002068C06820F480702168C8602068406992
:1038A00020F0010021684861202084F83E00206B50
:1038B00001281ED1002020632068C06820F010007D
:1038C0002168C8602068006800F0100010280AD144
:1038D00000BF0020009020680068009020684068C9
:1038E000009000BF00BFA18D2046FEF72AFE03E036
:1038F00004E02046FEF7F6FF0020F8BD0020FCE7BC
:103900000220FAE770B504462168096921F44051A4
:10391000E2681143226811612269A168114362695A
:1039200041EA02052168C96841F20C6291432943CA
:103930002268D1602168496921F44071A26911436C
:10394000226851612D4A2168914202D1FDF756FE4D
:1039500001E0FDF743FE00EBC00101EB00116268DE
:103960009200B1FBF2F100EBC00202EB00126368BF
:103970009B00B2FBF3F26423B2FBF3F202EBC2034F
:1039800003EB0212A1EB8201322202EB011164224D
:10399000B1FBF2F101F0F00100EBC00202EB00120A
:1039A00063689B00B2FBF3F26423B2FBF3F201EB1A
:1039B000021200EBC00101EB001163689B00B1FB38
:1039C000F3F100EBC00303EB00136668B600B3FB32
:1039D000F6F36426B3FBF6F303EBC30606EB03131F
:1039E000A1EB8301322303EB01116423B1FBF3F15B
:1039F00001F00F0111442268916070BD0038014050
:103A000010B5034699629A85DA8500201864222051
:103A100083F83E0000BF002083F83C0000BF186818
:103A2000C06840F480701C68E0601868406940F02D
:103A300001001C6860611868C06840F020001C68C4
:103A4000E060002010BD014691F83D00212828D1FA
:103A50008868B0F5805F0BD1086948B90A6A108898
:103A6000C0F308000B685860086A801C086205E013
:103A70000B6A581C086218780B685860C88C401E86
:103A800080B2C88458B90868C06820F080000B680C
:103A9000D8600868C06840F040000B68D86000201B
:103AA00070470220FCE7000010B50248FEF74CFD0D
:103AB00010BD00002002002010B50248FCF7BFFC3A
:103AC00010BD00009800002000BFFEE710B5AE203A
:103AD000FFF772FC0020FFF76FFC1020FFF76CFC73
:103AE0004020FFF769FC8120FFF766FCCF20FFF73D
:103AF00063FCA120FFF760FCC820FFF75DFCA62057
:103B0000FFF75AFCA820FFF757FC3F20FFF754FCB3
:103B1000D320FFF751FC0020FFF74EFCD520FFF724
:103B20004BFC8020FFF748FCD920FFF745FCF12033
:103B3000FFF742FCDA20FFF73FFC1220FFF73CFCC6
:103B4000DB20FFF739FC4020FFF736FC2020FFF791
:103B500033FC0220FFF730FC8D20FFF72DFC1420F2
:103B6000FFF72AFCA420FFF727FCA620FFF724FC80
:103B7000FFF70FFBAF20FFF71FFC10BD02480068E6
:103B8000C0F30220704700000CED00E010B50028E3
:103B900004DB0A07130E054A135406E00A07140E45
:103BA000034A00F00F031B1FD45410BD00E400E0D3
:103BB00018ED00E002E008C8121F08C1002AFAD17F
:103BC00070477047002001E001C1121F002AFBD19D
:103BD00070470000FDF770FBFFF731FCFFF742F97B
:103BE000FFF7A4F9FFF7C0F9FFF72AFAFFF7D2F8B9
:103BF000FFF75EFAFFF7AEFA1448FEF7B5F814487F
:103C0000FEF7B2F8FFF70DFBFFF700FBFFF774F8C4
:103C1000FFF7DBFA01220F490F48FEF741FE0021B2
:103C20000E48FEF74DFB00210948FEF749FB9620A0
:103C300007490968486307E0962005490968486311
:103C400040F2E730FCF790FFF6E70000900100201B
:103C5000D80100202C000020200200204801002074
:103C600010B50246012000E050430B1EA1F10104F3
:103C7000E1B2F9D110BD0000000000000000002FEB
:103C8000000000000700070000147F147F140024C8
:103C90002A7F2A12006264081323003649552250F5
:103CA00000000503000000001C224100000041222A
:103CB0001C000014083E08140008083E0808000014
:103CC00000A060000008080808080000606000000C
:103CD000002010080402003E5149453E0000427F8A
:103CE0004000004261514946002141454B310018D6
:103CF00014127F10002745454539003C4A49493098
:103D00000001710905030036494949360006494951
:103D1000291E00003636000000005636000000085C
:103D20001422410000141414141400004122140839
:103D300000020151090600324959513E007C12111E
:103D4000127C007F49494936003E41414122007FB3
:103D50004141221C007F49494941007F090909016D
:103D6000003E4149497A007F0808087F0000417FF2
:103D70004100002040413F01007F08142241007FA4
:103D800040404040007F020C027F007F0408107F0B
:103D9000003E4141413E007F09090906003E415174
:103DA000215E007F09192946004649494931000131
:103DB000017F0101003F4040403F001F2040201F85
:103DC000003F4038403F0063140814630007087048
:103DD000080700615149454300007F4141000055FB
:103DE0002A552A55000041417F00000402010204C7
:103DF00000404040404000000102040000205454B4
:103E00005478007F48444438003844444420003803
:103E10004444487F00385454541800087E09010275
:103E20000018A4A4A47C007F080404780000447D4A
:103E30004000004080847D00007F10284400000086
:103E4000417F4000007C04180478007C080404785A
:103E500000384444443800FC242424180018242446
:103E600018FC007C08040408004854545420000442
:103E70003F444020003C4040207C001C2040201C4F
:103E8000003C4030403C004428102844001CA0A0C6
:103E9000A07C004464544C44141414141414000002
:103EA0000000000000000000000000000000000012
:103EB00000F8000000000000003330000000001097
:103EC0000C06100C0600000000000000000040C0BE
:103ED0007840C0784000043F04043F0404000070B0
:103EE00088FC08300000001820FF211E0000F008A8
:103EF000F000E018000000211C031E211E0000F04D
:103F00000888700000001E21232419272110101694
:103F10000E00000000000000000000000000000093
:103F200000E0180402000000000718204000000212
:103F30000418E00000000040201807000000404086
:103F400080F0804040000202010F010202000000E8
:103F500000F0000000000101011F0101010000004C
:103F600000000000000080B07000000000000000B1
:103F7000000000000000000101010101010100003A
:103F800000000000000000303000000000000000D1
:103F9000000080601804006018060100000000E0C6
:103FA00010080810E000000F102020100F00001073
:103FB00010F8000000000020203F202000000070CA
:103FC00008080888700000302824222130000030C2
:103FD0000888884830000018202020110E000000BA
:103FE000C02010F8000000070424243F240000F83B
:103FF0000888880808000019212020110E0000E020
:10400000108888180000000F112020110E000038C1
:104010000808C83808000000003F000000000070D9
:10402000880808887000001C222121221C0000E062
:1040300010080810E0000000312222110F000000DB
:1040400000C0C00000000000003030000000000090
:104050000080000000000000806000000000000000
:104060008040201008000001020408102000404099
:1040700040404040400004040404040404000008DC
:104080001020408000000020100804020100007091
:1040900048080808F0000000003036010000C03079
:1040A000C828E810E0000718272423140B0000009C
:1040B000C038E0000000203C23020227382008F826
:1040C000888888700000203F202020110E00C0301A
:1040D000080808083800071820202010080008F8F1
:1040E00008080810E000203F202020100F0008F8EA
:1040F0008888E8081000203F20202320180008F8B6
:104100008888E8081000203F200003000000C0302D
:1041100008080838000007182020221E020008F8AE
:1041200008000008F808203F210101213F20000875
:1041300008F8080800000020203F202000000000B0
:104140000808F8080800C08080807F00000008F898
:1041500088C028180800203F20012638200008F8D1
:10416000080000000000203F20202020300008F838
:10417000F800F8F80800203F003F003F200008F852
:1041800030C00008F808203F200007183F00E0106A
:1041900008080810E0000F10202020100F0008F879
:1041A00008080808F000203F210101010000E0108C
:1041B00008080810E0000F18242438504F0008F8B1
:1041C000888888887000203F2000030C3020007011
:1041D0008808080838000038202121221C0018080F
:1041E00008F8080818000000203F2000000008F828
:1041F00008000008F808001F202020201F00087871
:10420000880000C83808000007380E010000F808D0
:1042100000F80008F800033C0700073C03000818FA
:1042200068808068180820302C03032C3020083860
:10423000C800C83808000000203F20000000100817
:104240000808C8380800203826212020180000005F
:1042500000FE020202000000007F40404000000C0F
:1042600030C000000000000000010638C00000025D
:104270000202FE000000004040407F0000000000FD
:104280000402020204000000000000000000000020
:10429000000000000000808080808080808000021C
:1042A0000204000000000000000000000000000008
:1042B0008080808000000019242222223F2008F8FC
:1042C000008080000000003F112020110E0000003F
:1042D000008080800000000E1120202011000000CE
:1042E00000808088F800000E112020103F20000080
:1042F000808080800000001F222222221300008084
:1043000080F0888888180020203F202000000000CE
:10431000808080808000006B94949493600008F803
:10432000008080800000203F210000203F2000808E
:104330009898000000000020203F2020000000008E
:1043400000809898000000C08080807F000008F8FE
:10435000000080808000203F24022D3020000008D3
:1043600008F8000000000020203F2020000080808E
:10437000808080808000203F20003F20003F8080A0
:10438000008080800000203F210000203F200000AE
:10439000808080800000001F202020201F0080805F
:1043A00000808000000080FFA12020110E0000008E
:1043B000008080808000000E112020A0FF8080807F
:1043C00080008080800020203F212000010000002C
:1043D0008080808080000033242424241900008001
:1043E00080E0808000000000001F2020000080800E
:1043F000000000808000001F202020103F208080CF
:1044000080000080808000010E300806010080805E
:104410000080008080800F300C030C300F00008083
:104420008000808080000020312E0E3120008080AE
:1044300080000080808080818E70180601000080DE
:104440008080808080000021302C222130000000FC
:104450000000807C020200000000003F404000009D
:104460000000FF00000000000000FF00000000024C
:10447000027C800000000040403F00000000000679
:10448000010102020404000000000000000000001E
:1044900000000000000001020304060708090000F4
:1044A0000000010203040000C844000800000020CE
:1044B0006C000000B43B0008344500086C0000208C
:1044C000FC050000C43B00080000000000000000E4
:1044D00001000000000000000000000000000000DB
:1044E0000000000000000100E803000000000000E0
:1044F0003075000000000000000000000000000017
:1045000000000000C80000000000000000000000E3
:104510009600000000000000000000000000000005
:10452000000000000000000010000000010000007A
:044530000024F4006F
:0400000508000131BD
:00000001FF
