:020000040800F2
:10000000B00500200101000817260008E1230008C0
:1000100015260008A9090008B92B000800000000F7
:10002000000000000000000000000000352600086D
:10003000AB0900080000000019260008E5260008AA
:100040001B0100081B0100081B0100081B01000820
:100050001B0100081B0100081B0100081B01000810
:100060001B0100081B0100081B0100081B01000800
:100070001B0100081B0100081B0100081B010008F0
:100080001B0100081B010008950800081B0100085F
:100090001B0100081B0100081B0100081B010008D0
:1000A0001B0100081B0100081B0100081B010008C0
:1000B0004D270008592700081B0100081B010008F4
:1000C0001B0100081B0100081B0100081B010008A0
:1000D0001B010008AD2B00081B0100081B010008D4
:1000E0001B0100081B0100081B010008DFF80CD0F1
:1000F00000F040FB00480047E9340008B00500204C
:100100000648804706480047FEE7FEE7FEE7FEE7B1
:10011000FEE7FEE7FEE7FEE7FEE7FEE74927000809
:10012000ED000008202A04DB203A21FA02F0002129
:10013000704721FA02F3D040C2F1200291400843F7
:1001400019467047D2B201E000F8012B491EFBD2DC
:1001500070470022F6E710B513460A4604461946D2
:10016000FFF7F0FF204610BDF0B480EA0102D40F83
:100170004200B2EB410F02D20246084611464A0045
:1001800042D0C30DDDB2C1F3C752AD1A202D35DA0E
:10019000C1F3160141F4000204B15242C5F1200638
:1001A00002FA06F12A411044B3EBD05F23D0C4B168
:1001B000012DA0EBC35009DCF0BC4FF0004202EA75
:1001C000C352DBB200F5000000F0EEB8400000F1D1
:1001D000807000EBC350A0F1807040EAD1704900FC
:1001E00009E0490841EAC071A0EBC35000F50000E6
:1001F000400800EBC350F0BC00F0CDB861420122D2
:1002000002EB4101001BF6E7F0BC704781F00041B2
:10021000AAE780F00040A7E780EA010210B502F0EB
:100220000043400022D04A001FD0010E01EB1261B2
:10023000C0F35600C2F3560240F4000042F400023C
:10024000A0FB022000047F39140400D0401C50EAB7
:10025000124001D44000491EC2B20C0604EBD0107B
:10026000401C4008802A02D003E0002010BD20F08E
:100270000100002900DA0020184310BD420005D01B
:10028000C0F3C7525242914201DC0020704700EB9C
:10029000C1507047C10F80EAE0700844CA07962336
:1002A000002100F081B896230022114600F07CB8AE
:1002B00000F0004220F00040C10DC0F3160040F4F1
:1002C00000007F2901DA00207047962903DCC1F184
:1002D0009601C84001E096398840002AF4D0404297
:1002E000704700F0004230F000400AD0C10D01F527
:1002F0006071C0F3160042EA0151C2084007114381
:10030000704700200146704730B50B46014600207B
:100310002022012409E021FA02F59D4205D303FAC7
:1003200002F5491B04FA02F52844151EA2F1010248
:10033000F1DC30BD2DE9F05F0546002092469B467A
:1003400088460646814640241BE0284641464746EB
:100350002246FFF7E7FE53465A46C01A914110D392
:1003600011461846224600F017FA2D1A67EB0108CD
:100370004F4622460120002100F00EFA17EB00093B
:100380004E41201EA4F10104DFDC484631462A46D6
:100390004346BDE8F09F0029A8BF7047401C4900B4
:1003A00008BF20F00100704710B4B0FA80FC00FADA
:1003B0000CF050EA010404BF10BC704749B1CCF105
:1003C000200421FA04F411FA0CF118BF0121214391
:1003D0000843A3EB0C01CB1D4FEA00614FEA10204C
:1003E00042BF002010BC704700EBC35010440029EE
:1003F000A4BF10BC7047401C490008BF20F001009A
:1004000010BC70472DE9FE4F804681EA0300C00F03
:100410000C46009021F0004123F00045B8EB0200AB
:10042000A94105D24046214690461C460B4602464D
:1004300023F00040104347D0270DC7F30A00C3F351
:100440000A510290401A019040286BDAC3F313005E
:1004500040F4801B0098924620B10023D2EB030A9F
:1004600063EB0B0B01985946C0F14002504600F077
:1004700093F906460D4650465946019A00F09BF9FD
:1004800010EB08006141002487EA115284EAE77307
:100490001A4340D0009A62B3019A012A4FEA0752E8
:1004A00015DC001B61EB02014FF0004202EA07522B
:1004B000CDE90042001C41F5801132462B4600F088
:1004C0009BF903B0BDE8F08F40462146F9E7001BD9
:1004D00061EB0201001C41F5801300185B412018FC
:1004E000A2F5001747EB030140EAD570B6196D413C
:1004F00011E06D084FEA360645EAC0754FEA07522B
:10050000001B61EB0201001C41F5801149084FEA14
:1005100030000019514132462B4603B0BDE8F04F80
:1005200000F05BB90098012240000023D0EB0202EA
:1005300063EBE073009821464FEAE074B8EB0000EB
:1005400061EB0401E9E783F000435BE781F00041E0
:1005500058E72DE9FE4F81EA030404F0004421F03E
:10056000004100944FF0000B23F0004350EA0104D7
:100570005ED052EA03045BD0C3F30A54C1F30A55B8
:100580002C44A4F2F3340194A0FB0254C1F31301F0
:1005900041F48011C3F3130343F4801301FB0244BD
:1005A00000FB034E840A970A44EA815447EA8357C2
:1005B000A4FB076802958D0A05FB07854FEA932C7B
:1005C00004FB0C542705029D4FEA065847EA1637EC
:1005D000B5EB08056EEB070C870E920E47EA811704
:1005E00042EA8312A7FB0201B6EB0B0164EB0004A5
:1005F0002B0D43EA0C335E1844EB1C50DA4651468F
:10060000E7FB0201C5F313044FEA0B3343EA14532B
:100610004FEA0432019C43EA0603A4F10C0402945D
:10062000009CCDE900B400F0E7F803B0BDE8F08F1E
:1006300000200146F9E72DE9F04D81EA030404F0BA
:10064000004B21F0004514464FF0000A23F0004112
:1006500050EA050220D054EA01021DD0C5F30A5722
:100660000246C5F31303C1F31300C1F30A5640F465
:10067000801543F48013A7EB0608101BD64608F23A
:10068000FD3873EB050002D308F1010801E0921870
:100690005B41B8F1000F03DA00200146BDE8F08DA0
:1006A00000204FF48011064684460EE0171B73EBC2
:1006B000050705D3121B63EB050306434CEA010C47
:1006C00049084FEA300092185B4150EA0107EDD12A
:1006D00052EA030012D082EA040083EA05010843CB
:1006E00005D0101BAB4106D20122002306E00022F8
:1006F0004FF0004302E06FF0010253101AEB0600C6
:100700004CEB085110EB0A0041EB0B01BDE8F04D3A
:1007100000F063B8C1F30A52C1F3130140F2FF3392
:1007200041F480119A4202DA00200146704740F2FB
:1007300033439A42A2F2334202DC5242FFF7F2BC48
:1007400000F02AB830B5041E71F1000404DB4FF04C
:100750000044404264EB0101141E73F1000405DB08
:100760001C464FF00043524263EB0403994208BF1A
:10077000904230BD064C074D06E0E06840F00103B2
:1007800094E8070098471034AC42F6D3FFF7B2FC68
:100790005836000878360008202A04DB203A00FA90
:1007A00002F1002070479140C2F1200320FA03F3C8
:1007B000194390407047202A06DBCB17203A41FAB4
:1007C00002F043EAE07306E041FA02F3D040C2F1DE
:1007D0002002914008431946704710B5141E73F16A
:1007E000000408DA401C41F1000192185B411A43F1
:1007F00001D120F0010010BD2DE9F04D92469B463D
:1008000011B1B1FA81F202E0B0FA80F220329046E2
:10081000FFF7C2FF04460F4640EA0A0041EA0B0117
:1008200053465A46084313D0114653EA010019D0E3
:10083000C8F140025046FFF775FC05460E4650468B
:1008400059464246FFF7A8FF084305D0012004E0BF
:1008500020463946BDE8F08D0020054346EAE076A3
:100860002C4337430A986305E40AA0EB08000022F2
:10087000FD0A44EA47540A3002D500200146E9E760
:10088000010510196941DDE9084500196941BDE814
:10089000F04DA2E7014800F048B90000AC0000208C
:1008A00070B502680126134614460AE050F8265037
:1008B000954201D92A4602E09D4200D22B462C44A3
:1008C000761C8E42F2DBA01AC01A891EB0FBF1F032
:1008D00070BD000070B5044600688168C943C9074F
:1008E00017D1816821F00101816000F021FC0546EB
:1008F0000AE000BF00F01CFC401B022804D920685D
:100900008068C043C00706D020688068C043C00725
:10091000F0D0002070BDA06A40F01000A062E06A34
:1009200040F00100E062012070BD0000F8B5002633
:100930000446009600688168C943C9072DD08168C4
:1009400041F001018160164816490068B0FBF1F0E2
:1009500000E0401E00900028FBD100F0E9FB0546B6
:1009600016E000BF00F0E4FB401B022810D920680D
:100970008068C043C0070BD0A06A40F01000A0629E
:10098000E06A40F00100E06284F824600120F8BDD4
:1009900020688068C043C007E4D10020F8BD000093
:1009A0004C00002040420F00FEE770470548002140
:1009B000642201604160816041618161C0E903128C
:1009C000704700001000002070477047F8B5002401
:1009D000009490F824202546012A12D0012280F8A4
:1009E00024204A681F23072A0DD20668776B521EFF
:1009F00002EB820293409F430B6893401F4377634F
:100A000019E00220F8BD06680D2A0AD2376BD21F02
:100A100002EB820293409F430B6893401F4337636E
:100A200009E0F76A0D3A02EB820293409F430B689C
:100A300093401F43F7620A68072306680A2A0AD30D
:100A4000F7680A3A02EB420293409F438B68934057
:100A50001F43F76008E0376902EB420293409F436F
:100A60008B6893401F4337610A68102A01D0112A0E
:100A700020D1124B02689A4217D193681B0219D4F5
:100A8000936843F4000393600968102912D10C495C
:100A90000C4A0968B1FBF2F101EB8101490000E069
:100AA000491E00910029FBD104E0816A41F0200138
:100AB0008162012480F824502046F8BD00240140C2
:100AC0004C00002040420F0010B5114C052000BF23
:100AD00054F8201004EB8002401E5160F8D50D48F8
:100AE00000F020F8206007210948FFF7D9FE0A4CE2
:100AF0002060FFF7D8FB0949FFF78EFB6FF00B0171
:100B0000FFF7BCFB0649FFF781FB606010BD0000EA
:100B100090000020AC000020300000200000B44312
:100B2000000034430068C06C704710B5044600688C
:100B30004168890626D50168890723D5A16AC906B7
:100B400003D4A16A41F40071A1628168C1F34241FA
:100B5000072910D1217B71B9416821F02001416042
:100B6000A06A20F48070A062A06AC00403D4A06AC6
:100B700040F00100A0622046FFF7A6FF21686FF059
:100B8000120008602068416809062ED501684907EF
:100B90002BD5A16AC90603D4A16A41F40051A16210
:100BA0008168C1F30231072909D04168490515D48C
:100BB0008168C1F34241072910D1217B71B9416895
:100BC00021F080014160A06A20F48050A062A06AF8
:100BD000C00503D4A06A40F00100A0622046FFF7E0
:100BE000F4FE21686FF00C00086020684168490637
:100BF0000DD50068C0070AD0A06A40F48030A0621A
:100C0000204600F093F821686FF00100086010BDE5
:100C10002DE9F0414FF0000704003D467ED0A06A68
:100C2000002628B9E66284F82460204600F080F8A7
:100C30002046FFF74FFEA16AC90600D420B1A06A82
:100C400040F01000A06269E0A16A21F4885141F0EF
:100C50000201A1626268E169237B0A4347EA43011A
:100C60000A43A1684FF48077B94209D0012907D01F
:100C70005FF0000194F814C0BCF1010F02D00AE04B
:100C80003946F7E7F3B1A36A43F02003A362E36AAE
:100C900043F00103E3622368D3F804C02CF4694CE9
:100CA0004CEA010CC3F804C021688B68DFF870C0FF
:100CB00003EA0C0313438B60A168B9420BD00129EE
:100CC00009D00CE0DFF85CC0A3690CEB43330B43A5
:100CD00043F40061DFE7218A0D05A5F58015216841
:100CE000CB6A23F470032B43CB62216889680E4BD7
:100CF0001940914208D1E662A16A21F0020141F057
:100D00000101A162BDE8F081A06A20F0020040F07C
:100D10001000A062E06A40F00100E0620120F1E70B
:100D2000FDF7E1FF00E0FFFFFE0E1FFF7047000030
:100D300000B585B0002100910191029103910068F6
:100D40001249884220D11248816941F400718161C1
:100D5000816901F400710491816941F004018161AC
:100D60008069694600F0040004900220009003208E
:100D70000190084800F0E6F800221146122000F029
:100D800043FA122000F032FA05B000BD0024014001
:100D9000001002400008014070B5044690F824009D
:100DA00001280DD0012084F824002046FFF7BEFD65
:100DB00002004FF0000005D084F82400104670BDFA
:100DC000022070BDA16A40F60163994341F480712D
:100DD000A162224D23682249AB4218D10E6816F455
:100DE000702F14D0A66A46F48016A6620E687605A7
:100DF00005D5A66A26F4005646F48056A662A66A71
:100E0000F6040AD5E66A26F00606E66206E0A66A59
:100E100026F48016A6625E68E9E7E06284F82400A2
:100E20006FF0020018602068436843F020034360BD
:100E300020688368C3F34243072B05D1A84208D139
:100E4000096811F4702F04D0816841F48011816029
:100E5000B4E7816841F4A001F9E7000000280140EF
:100E60000424014010B590F821100022022905D079
:100E70000421816380F82020012010BD01680B68E7
:100E800023F00E030B6001680B6823F001030B6075
:100E900090F84030C46B012101FA03F3636080F8DD
:100EA000211080F82020104610BD000010B590F8E9
:100EB00021100024022903D00421816301243DE094
:100EC00001680A6822F00E020A6001680A6822F0CE
:100ED00001020A601A4A0168914201D1012121E010
:100EE000174A1432914201D110211BE0144A2832D2
:100EF000914201D1891515E0114A3C32914201D14C
:100F000089140FE00E4A5032914202D14FF48031E1
:100F100008E00B4A6432914202D14FF4801101E0A3
:100F20004FF08071064A083A5160012180F8211083
:100F3000002180F82010416B01B18847204610BD88
:100F4000080002402DE9F84FDFF8B891002409F1BC
:100F5000040A0AF1040B23460F270BF1040EC9E023
:100F60000125A5402A40AA427DD1674ED1F804C090
:100F7000ACEB0608B44532D014DCBCF1030F3AD018
:100F800009DCBCF1000F2AD0BCF1010F1CD0BCF170
:100F9000020F31D11DE0BCF1110F17D0BCF1120FBF
:100FA0002AD119E0B8F5881F19D006DCB8F5803FC2
:100FB00015D0B8F5801F1FD111E0B8F5001F0ED075
:100FC000B8F5041F18D10AE0CB6815E0CB681B1DEB
:100FD00012E0CB6808330FE0CB680C330CE08B6871
:100FE0002BB1012B4FF0080303D0456104E004232B
:100FF00002E0056100E00023FF2A01D8064601E077
:1010000000F104064FEA840501D9A5F12005D6F8C0
:10101000008007FA05FC28EA0C0803FA05F548EAFF
:101020000508C6F800804D68ED0062D5374DAE6901
:1010300046F00106AE61AD6924F0030605F0010536
:101040000095334D06EB050CDCF80850A607360F6B
:1010500007FA06F825EA0805DFF8B880404503D10D
:101060004FF0000817E044E0DFF8AC80404502D1C3
:101070004FF001080FE0DFF8A480404502D14FF0A7
:10108000020808E0DFF89880404502D14FF00308DD
:1010900001E04FF0040808FA06F848EA0508CCF821
:1010A00008804D68D9F80060ED034D4601D5164320
:1010B00000E096432E604D68DAF80060AD035546B7
:1010C00001D5164300E096432E604D68DBF80060C2
:1010D000ED025D4601D5164300E096432E604D6853
:1010E000DEF80060AD02754601D5164300E0964378
:1010F0002E60641C0D682A46E5407FF431AFBDE8E0
:10110000F88F0000000401400000111000100240A0
:101110000000014000080140000C014000100140A7
:10112000001401400AB1016170470904FBE70000A7
:101130000148806870470000400000200248816834
:10114000027811448160704740000020074810B5C4
:10115000016841F010010160032000F075F80020E3
:1011600000F006F800F024F8002010BD0020024036
:1011700070B50D4D04464FF47A712878B1FBF0F04C
:101180000A490968B1FBF0F000F062FB48B9102C85
:1011900007D200222146501E00F036F800206C6075
:1011A00070BD012070BD0000400000204C000020F8
:1011B0000C4808B5816941F001018161816901F044
:1011C00001010091C16941F08051C161C06900F025
:1011D000805000900448416821F0E06141F00071C6
:1011E000416008BD0010024000000140002809DBFA
:1011F00000F01F02012191404009800000F1E02031
:10120000C0F8001170470000F0B40E4B1B680C468C
:10121000C3F30223C3F10705042D00D90425191DCA
:10122000072901D2002300E0DB1E012606FA05F1A2
:10123000491E214099409E40761E16403143F0BC25
:1012400001F0CCBC0CED00E0064900F00702086894
:101250004FF6FF03184040EA0220034A104308609B
:10126000704700000CED00E00000FA052DE9F8439E
:1012700005460078354CC00754D0E0690026C00010
:1012800008D4E06940F08050E061E069012600F098
:10129000805000902E480168C90512D4016880462C
:1012A00041F480710160FFF743FF074605E000BF8E
:1012B000FFF73EFFC01B642823D8D8F80000C00504
:1012C000F6D5206A10F4407021D0A98801F440714D
:1012D00081421CD0206A1F49012220F440700A601C
:1012E00000220A602062C00711D0FFF721FF0746E5
:1012F00041F2883808E000BFFFF71AFFC11B4145E3
:1013000002D90320BDE8F883206A8007F4D5206A5B
:10131000696820F44070084320621EB1E06920F043
:101320008050E0612878800705D56068A96820F4BE
:101330004040084360602878C00605D56068E968C9
:1013400020F48000084360600020DBE700100240CA
:1013500000700040400442422DE9F0470F4605006E
:1013600061D0434E306800F00700B84209D23068BF
:1013700020F0070038433060306800F00700B842C2
:1013800051D128683B4C810712D5400703D56068CE
:1013900040F4E06060602878000703D5606840F49E
:1013A000605060606068A96820F0F00008436060E9
:1013B0002878C00728D06868012810D02168022842
:1013C00010D0890700292EDA616821F0030101435A
:1013D0006160FFF7ADFE804641F288390DE021687B
:1013E0008903EFE78901EDE7FFF7A2FEA0EB080113
:1013F000494502D90320BDE8F0876068696800F0BC
:101400000C00B0EB810FEFD1306800F00700B8425C
:101410000BD9306820F0070038433060306800F0A6
:101420000700B84201D00120E5E72878400705D53C
:101430006068E96820F4E06008436060287800078D
:1014400006D56068296920F4605040EAC1006060F8
:1014500000F038F86168084AC1F30311515CC840D4
:101460000649086006480068FFF782FE0020C2E7D0
:101470000020024000100240403600084C000020CE
:10148000440000200448054900684968044AC1F343
:101490000221515CC84070474C00002000100240FF
:1014A000503600080448054900684968044AC1F3F9
:1014B000C221515CC84070474C000020001002401F
:1014C0005036000812A185B00FC98DE80F0014A096
:1014D000144A006804905168134801F00C03042B6F
:1014E00010D0082B0ED1C1F38343C9031DF80300AC
:1014F0000AD5516804AAC1F34041515C0A4A5043DD
:10150000B0FBF1F005B0704708494843FAE7000026
:1015100002030405060708090A0B0C0D0E0F101034
:10152000010200000010024000127A0000093D0094
:101530002DE9F84F040070D02078C04DC00749D085
:101540006868C0F38100012807D06868C0F3810093
:10155000022809D16868C00306D52868800339D5F8
:1015600060680028E7D035E06068B0F5803F0BD0B8
:1015700010B1B0F5A02F11D0286820F48030286079
:10158000286820F4802002E0286840F48030286039
:10159000606890B1FFF7CCFD06460AE0286840F489
:1015A00080202860F0E700BFFFF7C2FD801B6428A1
:1015B00073D828688003F7D50CE0FFF7B9FD06461D
:1015C00005E000BFFFF7B4FD801B6428F0D8286851
:1015D0008003F7D420789A4E80074FF001094FF02E
:1015E000000839D5686810F00C0F07D06868C0F3A0
:1015F0008100022809D16868C00306D428688007E2
:1016000014D52069012808D110E02069B0B1C6F8CE
:101610000090FFF78DFD074605E00AE1FFF788FD22
:10162000C01B0228C4D828688007F7D528686169DC
:1016300020F0F80040EAC10028600DE0C6F8008004
:10164000FFF776FD074604E0FFF772FDC01B022896
:1016500023D828688007F7D4207800072CD579484C
:10166000A169D9B1C0F80090FFF762FD074604E018
:10167000FFF75EFDC01B02280FD8686A8007F7D508
:1016800071484FF4FA510068B0FBF1F0009000BFD0
:101690000098411E0091FAD20EE080E0C0F8008070
:1016A000FFF746FD074604E0FFF742FDC01B022896
:1016B00075D8686A8007F7D42078400760D5E86954
:1016C0000027C00008D4E86940F08050E861E8696C
:1016D000012700F0805000905C480168C90513D4D0
:1016E0000168834641F480710160FFF721FD824665
:1016F00006E000BFFFF71CFDA0EB0A0064284ED8EF
:10170000DBF80000C005F5D5E06801280AD008B173
:10171000052813D0286A20F001002862286A20F0EA
:10172000040002E0286A40F001002862E06841F20B
:10173000883B98B1FFF7FCFC82460BE0286A40F03A
:1017400004002862EEE700BFFFF7F2FCA0EB0A01FD
:1017500059455AD8286A8007F6D50CE0FFF7E8FC0F
:10176000824605E0FFF7E4FCA0EB0A0159454CD89E
:10177000286A8007F6D41FB1E86920F08050E8613C
:10178000E06988B36968C1F38101022944D0022865
:10179000C6F8608004D0FFF7CBFC044638E034E0A4
:1017A000FFF7C6FC074604E0FFF7C2FCC01B022897
:1017B0002BD828688001F7D4206AB0F5803F05D186
:1017C0006868A16820F4003008436860D4E9080123
:1017D0000843696821F4741108436860C6F8609092
:1017E000FFF7A6FC044606E025E000BFFFF7A0FCDB
:1017F000001B022809D828688001F7D51BE000BF2C
:10180000FFF796FC001B022802D90320BDE8F88FE1
:1018100028688001F4D40EE00128F7D06868226AB5
:1018200000F48031914204D1616A00F47010884262
:1018300001D00120EAE70020E8E7000000100240A4
:1018400000004242800442424C00002000700040F0
:1018500010B5401EB0F1807F01D3012010BD4FF0C4
:10186000E02460610F21601701F0B8F90020A06149
:1018700007202061002010BD7047704770B590F8B8
:101880003C20012A26D0012480F83C40022280F826
:101890003D2003685A689D6822F070060A6832434A
:1018A0005A600D4B02689A4208D0B2F1804F05D0C1
:1018B0000A4B9A4202D00A4B9A4204D1496825F059
:1018C00080031943916080F83D40002180F83C106E
:1018D000084670BD022070BD002C0140000400408D
:1018E0000008004010B5040003D094F83D0010B18A
:1018F00007E0012010BD002084F83C00204600F0E5
:101900001FF8022084F83D00211D206800F02AFF06
:10191000012084F8460084F83E0084F83F0084F8F3
:10192000400084F8410084F8420084F8430084F8C1
:10193000440084F8450084F83D00002010BD0000FC
:1019400008B50068B0F1804F12D10A48C16941F072
:101950000101C161C069002200F001000090114640
:101960001C20FFF751FCBDE808401C20FFF73EBCDF
:1019700008BD00000010024090F83D10012901D080
:1019800001207047022180F83D100168CA6842F0CA
:101990000102CA6000680B49884208D0B0F1804F4C
:1019A00005D00949884202D00849884204D181689B
:1019B00001F00701062903D0016841F0010101602F
:1019C00000207047002C0140000400400008004047
:1019D00070B5044690F83C00012817D0012584F822
:1019E0003C50022084F83D002068826822F0770293
:1019F00022F47F4282600868502830D00DDC202815
:101A00004DD005DC98B310283BD148E0022070BDD2
:101A1000302844D0402834D139E0602828D07028BC
:101A200006D0B0F5805F2CD0B0F5005F29D10AE078
:101A3000CB68D1E90121206800F0D7FE20688168D9
:101A400041F0770109E0CB68D1E90121206800F07D
:101A5000CCFE2068816841F48041816011E0CA6851
:101A60004968206800F076FF5021206807E016E002
:101A7000CA684968206800F07EFF6021206800F095
:101A8000BEFE84F83D50002084F83C0070BDCA685A
:101A90004968206800F05EFF40212068EFE7226877
:101AA00001461046EBE72DE9F0410D46040003D056
:101AB00094F83D0018B108E00120BDE8F081002055
:101AC00084F83C00204600F041F8022084F83D00F4
:101AD0002068816844F2070291438160211D2068DB
:101AE00000F040FE226890689169166A2B68AF6921
:101AF000034340F20330814341EA0721A868EF69BC
:101B000008434FF6FC418843E96840EA0720014357
:101B100028692F6A000140EA0730084369686D6947
:101B200026F0220646EA0515294393602268906153
:101B300054F8460B0162012004F81F09E075207675
:101B4000E0762077A0750020B7E7000000B585B0EB
:101B5000002100910191029103910068114988428E
:101B60001ED11148C16941F00201C161C16901F092
:101B700002010491816941F0040181618069694633
:101B800000F004000490C02000900848FFF7DAF944
:101B9000002211461D20FFF737FB1D20FFF726FB13
:101BA00005B000BD000400400010024000080140E4
:101BB00070B590F83E60044690F83F5090F842307F
:101BC00090F84320022021B104290ED0012E1BD110
:101BD00014E0012E18D1012B16D184F83E0084F8B0
:101BE000420001220021206820E0012D0CD1012AB1
:101BF0000AD184F83F0084F8430014E0012D03D19A
:101C0000012B01D1012A01D0012070BD84F83E00D2
:101C100084F83F0084F8420084F843000122002148
:101C2000206800F0D5FD01220421206800F0D0FDDD
:101C30002068016841F001010160002070BD70471B
:101C400070B50446006801694FF00005C943890773
:101C500015D4C168C943890711D4E91E0161012067
:101C60002077206880698007204602D0FFF7E7FFD1
:101C700004E000F0BDF8204600F04CF9257720681C
:101C80000169C943490717D4C168C943490713D437
:101C90006FF004010161022020772068806910F450
:101CA000407F204602D0FFF7CAFF04E000F0A0F812
:101CB000204600F02FF9257720680169C9430907FC
:101CC00016D4C168C943090712D46FF00801016135
:101CD000042020772068C0698007204602D0FFF7E3
:101CE000AEFF04E000F084F8204600F013F92577F9
:101CF00020680169C943C90617D4C168C943C90628
:101D000013D46FF010010161082020772068C069AA
:101D100010F4407F204602D0FFF791FF04E000F06E
:101D200067F8204600F0F6F8257720680169C94376
:101D3000C90708D1C168C943C90704D1891E016117
:101D4000204600F037F920680169C943090609D423
:101D5000C168C943090605D46FF0800101612046BE
:101D6000FFF78AFD20680169C943490609D4C168A3
:101D7000C943490605D46FF040010161204600F0D7
:101D800057F920680169C94389060BD4C168C94362
:101D9000890607D46FF0200101612046BDE870403C
:101DA000FFF76BBD70BD000000B585B0002100914C
:101DB0000191029103910068B0F1804F11D10A485E
:101DC000816941F0040181618069694600F0040085
:101DD0000490012000900220019003900348FFF737
:101DE000B1F805B000BD000000100240000801403D
:101DF000704770B5044690F83C000D4601280AD0A3
:101E0000012084F83C0042B1042A18D0082A2AD0C4
:101E10000C2A4DD139E0022070BD206800F0F8FC9A
:101E20002068816941F0080181612068816921F0A1
:101E300004018161206881692A69114311E02068E9
:101E400000F00EFD2068816941F400618161206825
:101E5000816921F480618161206881692A6941EA90
:101E60000221816124E0206800F026FD2068C1691C
:101E700041F00801C1612068C16921F00401C1611C
:101E80002068C1692A69114311E0206800F040FD13
:101E90002068C16941F40061C1612068C16921F411
:101EA0008061C1612068C1692A6941EA0221C1617A
:101EB000002084F83C0070BD10B5040003D094F8F5
:101EC0003D0010B107E0012010BD002084F83C0067
:101ED000204600F01EF8022084F83D00211D2068F5
:101EE00000F040FC012084F8460084F83E0084F8AD
:101EF0003F0084F8400084F8410084F8420084F8F0
:101F0000430084F8440084F8450084F83D00002034
:101F100010BD70477047000010B50446022249B159
:101F200004290ED0082913D094F84100012816D0B6
:101F3000012010BD94F83E000128F9D184F83E201C
:101F40000FE094F83F000128F2D184F83F2008E028
:101F500094F840000128EBD184F8402001E084F897
:101F600041200122206800F033FC0F49206888429C
:101F700003D1426C42F4004242642068884208D097
:101F8000B0F1804F05D00949884202D00849884203
:101F900004D1816801F00701062903D0016841F0EE
:101FA00001010160002010BD002C01400004004030
:101FB000000800407FB5164CA068401CA060154882
:101FC000FEF7EAFEA068142805DB032000F026FBDC
:101FD000E0600020A06000F02FFB0F480068FEF7D3
:101FE00080F905460E460D496068FEF715F9FEF7C3
:101FF00078F902460A48CDE902560B4600684FF4CC
:10200000FA714843009007A000F0D8FD7FBD0000A2
:1020100030000020AC0000200C0000200000FA433B
:102020001400002025662C25642C25660A0000007B
:102030007047704770470000F8B5026804461068A2
:10204000D168536910F00F0F4FF0000553D003F023
:10205000010601F4907737435FD0C20705D0CA0567
:1020600003D5226C42F001022264420705D5DA074B
:1020700003D0226C42F002022264820705D5DA07FF
:1020800003D0226C42F004022264020707D501F05B
:102090002002324303D0226C42F008022264226CF8
:1020A000002A34D0800604D5880602D5204600F0E8
:1020B00094FC20684069216CC0F38010090700D4AB
:1020C00030B3204600F071FC2068416949061BD5F9
:1020D000416921F040014161A06BA8B158494163B9
:1020E000A06BFEF7E3FE002811D0A06B416B01B09E
:1020F000BDE8F040084783060FD58B060DD5204676
:10210000BDE8F84000F069BC2046FFF793FFF8BD3A
:102110002046FFF78FFF2564F8BD266B2023012E94
:1021200052D1C60650D5CE064ED5106850680090E4
:10213000506940062AD5A16B086840680004000C6D
:10214000EAD0A68D8642E7D9E0858869202818D094
:10215000D06820F48070D0602068416921F00101CE
:1021600041612068416921F04001416184F83E30BD
:1021700025632068C16821F01001C160A06BFEF7E3
:1021800071FEA08DE18D401A81B219E0A08DE18D24
:10219000401A81B2E08D0028BED00029BCD0D068A2
:1021A00020F49070D0602068426922F00102426100
:1021B00084F83E3025632068C26822F01002C260B5
:1021C0002046FFF736FFF8BD05062BD50D0629D5AD
:1021D00094F83D002128F6D1A068B0F5805F01D1C8
:1021E0002069B0B1206A411C2162216800784860F2
:1021F000E08C401E0004000CE084E4D12068C1683B
:1022000021F08001C1602068C16841F04001C160D7
:10221000F8BD206A0088C0F308005060206A801C66
:102220002062E5E74006F3D54806F1D5D16820469F
:1022300021F04001D16084F83D3000F0D0F8F8BDC5
:102240009B29000870B5040004D094F83D000025D7
:1022500010B106E0012070BD84F83C50204600F02B
:1022600023F8242084F83D002068C16821F400513F
:10227000C160204600F00CFC2068016921F4904107
:1022800001612068416921F02A0141612068C1682B
:1022900041F40051C1602564202084F83D0084F899
:1022A0003E00002070BD000030B585B000240094D1
:1022B0000194029403940068184988422CD118486C
:1022C000816941F480418161816901F48041049117
:1022D000816941F0040181618069124D00F00400C0
:1022E00004904FF4007000900220019003200390AE
:1022F00069462846FEF726FE2815CDE90004694602
:1023000028460294FEF71EFE002211462520FEF705
:102310007BFF2520FEF76AFF05B030BD0038014085
:102320000010024000080140704700002DE9F8430A
:10233000044690F83D001F4616460D4620284CD115
:10234000C5B1BEB194F83C00012846D0012084F804
:102350003C004FF00008C4F84080212084F83D0084
:10236000FEF7E6FEA6848146E684A068B0F5805FAD
:1023700003D004E00120BDE8F883206928B12E468F
:102380005FF0000584F83C800EE00026FAE780212B
:10239000204600F0D9FBA0B9AEB116F8010B2168B8
:1023A0004860E08C401EE084E08C4B464FF0000219
:1023B00000970028EBD14FF04001204600F0C4FB0D
:1023C00030B10320D7E735F8020BC0F30800E6E789
:1023D000202084F83D000020CDE70220CBE77047A5
:1023E000FEE700003EB500241048009401940294DA
:1023F0000D498460016004730475012505614FF483
:1024000060214460C161FEF703FC08B1FEF7DCFA0D
:102410000095CDE9015469460448FEF7D7FA002833
:1024200001D0FEF7D1FA3EBD00240140AC000020EF
:102430002DE9F04186B000242448009401940294D0
:102440000394816941F010018161816901F01001FB
:102450000491816941F020018161816901F02001CD
:102460000491816941F004018161816901F00401F5
:102470000491816941F0080181618069144F00F085
:1024800008004FF400550490002229463846FEF714
:1024900049FEDFF840800022C0214046FEF742FEA0
:1024A0000095022601250396CDE901546946384678
:1024B000FEF748FDC020CDE90005CDE9024669469A
:1024C0004046FEF73FFD06B0BDE8F0810010024037
:1024D00000100140000C014010B58EB0002407949C
:1024E000089409940A940B941C2168460C94FDF7F7
:1024F00030FE1E484FF0804101604721C0E90114C1
:1025000040F2CF71C0E903148461FFF7EBF908B121
:10251000FEF75AFA4FF48050079007A91348FFF7C7
:1025200057FA08B1FEF750FA1048FFF7C5FC08B19A
:10253000FEF74AFA0B940BA90C480C94FFF79EF98E
:1025400008B1FEF741FA6020CDE9000402940022B0
:10255000694606480494FFF74CFC08B1FEF734FACC
:102560000248FFF721FC0EB010BD0000DC00002087
:1025700010B58CB024216846FDF7EBFD0024164809
:10258000099414490A94C0E900144FF6FF71C0E998
:102590000241046184610320CDE900040120CDE9FA
:1025A00002040494CDE90540079469460A4808945A
:1025B000FFF779FA08B1FEF707FA099409A9064866
:1025C0000A94FFF75BF9002801D0FEF7FDF90CB083
:1025D00010BD000000040040240100200C4810B58C
:1025E0000A4901604FF4E1314160002181600C2211
:1025F000C160C0E904128161C161FFF723FE0028B8
:1026000003D0BDE81040FEF7DFB910BD003801402F
:102610006C010020FEE7704770470000032801D0DE
:102620000020704702490868002200B20A60704723
:10263000240400407047000070B52248204900681B
:10264000FDF7E4FD204C05466068FDF723FE2A46B1
:102650001E4900F06BFF1E4960610A681D4900F0C9
:10266000B7FFA06161691C4D08444FF4FA611B4E2D
:10267000E061884201DDE16106E01949884201DA42
:10268000E1610DE000280BDD012280212846FEF7E4
:1026900049FD002240212846FEF744FDE0690BE099
:1026A000002280212846FEF73DFD012240212846D8
:1026B000FEF738FDE06940423168486370BD0000B4
:1026C000000020403400002010000020680000209E
:1026D0003C00002054000020000C0140DC000020E1
:1026E00030F8FFFFFEF72ABD30B593B028216846C9
:1026F000FDF72FFD14210AA8FDF72BFD0024012072
:102700000F9410941194010412948DE81300049016
:102710004FF4E010CDE90810022507956846FEF752
:1027200007FF0F20CDE90A056802CDE90C40022120
:102730000AA80E94FEF710FEA80311900F950FA89B
:10274000FEF794FD13B030BD704700000148FFF75D
:1027500077BA0000DC0000200148FFF771BA0000E2
:1027600024010020F0B50268164B174C174D4FF0AE
:102770008047984205D0B84203D0A04201D0A84279
:1027800003D122F070064A683243984205D0B8421D
:1027900003D0A04201D0A84203D122F44074CA68F9
:1027A00022434C6922F08002224302608A68C2629E
:1027B0000A688262984201D109690163012141617D
:1027C000F0BD0000002C0140000400400008004063
:1027D00010B501F01F030121046A99408C43046283
:1027E000016A9A401143016210BD10B5846842EA43
:1027F000032224F47F440A432243826010BD82688E
:1028000022F070020A4342F0070181607047000025
:1028100030B5026A22F001020262026A43688469EA
:1028200024F073050C682C4322F002058A682A43C1
:102830000A4DA8420BD122F00805CA6823F4407360
:102840002A434D6922F004021D438B692B434360E8
:10285000846149684163026230BD0000002C014080
:1028600030B5026A22F010020262026A436884698B
:102870000D6824F4E64444EA05248D6822F0200221
:1028800042EA05120B4DA8420ED1CD6822F080021B
:1028900042EA05124D6923F4406343EA85038D69DA
:1028A00022F0400243EA8503436084614968816302
:1028B000026230BD002C014030B5026A22F4807201
:1028C0000262036A4268C46923F4007324F073054A
:1028D0000C682C438D6843EA05230C4DA8420ED1A9
:1028E000CD6823F4006343EA05234D6922F4405286
:1028F00042EA05128D6923F4806342EA05124260C0
:10290000C4614968C163036230BD0000002C01400E
:1029100030B5026A22F480520262046A4268C369D6
:102920000D6823F4E64343EA05238D6824F400543C
:1029300044EA0534064DA84204D14D6922F4804290
:1029400042EA85124260C36149680164046230BD95
:10295000002C014010B5036A046A24F001040462EB
:10296000846924F0F00444EA021423F00A020A43C2
:102970008461026210BD10B5036A23F01003036284
:102980008369046A23F4704343EA023224F0A0030B
:1029900043EA01118261016210BD10B5406A002155
:1029A000C185C184FFF746FB10BD0168CA6822F4E7
:1029B0009072CA6001684A6922F001024A61016BA3
:1029C000012904D10168CA6822F01002CA602021DE
:1029D00080F83E1000210163704708B590F83E1062
:1029E000222901D0022008BD82684FF480539A4208
:1029F00001D1016921B1816A9A421BD04AB10AE032
:102A00000268816A5268C2F308020A80816A891CDE
:102A100008E0026972B10268526802F07F020A702F
:102A2000816A491C8162C18D491E0904090CC18556
:102A300003D019E002685268F1E70168CA6822F021
:102A40002002CA600168CA6822F48072CA60016804
:102A50004A6922F001024A61202180F83E10016B90
:102A6000012903D0FFF760FC002008BD00210163AD
:102A70000168CA6822F01002CA6001680A68D206BA
:102A800002D50A6849680091818DFFF7D2FAEBE719
:102A900070B5044600680169E26821F440511143B1
:102AA00001612169A0680843616908432168CA6817
:102AB00041F20C639A430243CA6020684169A269EB
:102AC00021F44071114341611E492068884202D1BE
:102AD000FEF7E8FC01E0FEF7D5FC00EBC00101EBDE
:102AE0000012606864218000B2FBF0F3B3FBF1F3E5
:102AF0006FF018067343B2FBF0F5B2FBF0F605EB8E
:102B00008305322303EB0515B5FBF1F5B6FBF1F6B2
:102B100005F0F00505EB0615B2FBF0F6B2FBF0F0A0
:102B2000B0FBF1F06FF01802504306EB800003EBAE
:102B30000010B0FBF1F0216800F00F00284488601D
:102B400070BD0000003801402DE9F041984617465D
:102B50000E460446069D1DE0681C1BD02DB1FEF7F5
:102B6000E7FAA0EB0800A84214D92068C16821F454
:102B7000D071C1602068416921F0010141612020CC
:102B800084F83D0084F83E00002084F83C000320D7
:102B9000BDE8F0812068006836EA000004D000201B
:102BA000B842D9D00020F3E70120F9E70148FFF748
:102BB00043BA00006C010020FEE700000FB4054B93
:102BC00010B503A9044A029800F0EAF810BC5DF8B9
:102BD00014FB0000D1340008500000200907090E42
:102BE000002804DB00F1E02080F80014704700F0BA
:102BF0000F0000F1E02080F8141D704702E008C8C3
:102C0000121F08C1002AFAD170477047002001E066
:102C100001C1121F002AFBD1704700002DE9FF5FA0
:102C200082B00021DDE90430020DDDF840B003433D
:102C300018D044F61050A2F2FF32424315141198F6
:102C400001281FD0A5EB0B00401C5FEA000A4FF0E3
:102C500000064E4FDFF83891B046504615D5CAF100
:102C6000000413E0119801244AA3012801D16FEA5E
:102C70000B010298119AC0E90031C0E9024206B086
:102C8000BDE8F09FCBF10000DFE704460021404A99
:102C9000491842EB0450CDE9001012E0E00707D0DC
:102CA00032463B4640464946FDF753FC804689463E
:102CB00032463B4610461946FDF74BFC06460F468A
:102CC0006410002CEAD1DDE90401DDE90023BAF14A
:102CD000000F06DAFDF73DFC42464B46FDF739FC96
:102CE00005E0FDF7A8FC42464B46FDF7A4FC044670
:102CF0000E460022284BFDF725FD03D84FF0FF308C
:102D0000014607E00022254B20463146FDF77AFBBD
:102D1000FDF700FD102409E0002C0ADB0A22002345
:102D2000FDF708FB039B30321A55641E50EA01027E
:102D3000F2D1641C039AC4F111031444119A012ABC
:102D400003D0012208430DD10AE0084304D000203B
:102D50004FF0110B119072E7A3EB0B056D1E0DE008
:102D60005B4504DD4FF0000205F1010504E003DAE4
:102D70004FF00002A5F10105002AECD0029811994C
:102D8000C0E90231C0E9004579E7000000001440C5
:102D90000000F03F300000000000F0430000E03F82
:102DA0002DE9FF4F95B09B468946064600250FE268
:102DB000252877D100242746F84A0121059400E010
:102DC000044316F8013F203B01FA03F01042F7D10B
:102DD00030782A2811D06FF02F033078A0F130021C
:102DE000092A16D8059A44F0020402EB820203EB8A
:102DF00042021044761C0590EFE759F8042B059227
:102E0000002A03DA504244F40054059044F00204CE
:102E1000761C30782E2816D116F8010F44F00404E1
:102E20002A280DD06FF02F023078A0F13003092B43
:102E300009D807EB870302EB4303C718761CF3E7B7
:102E400059F8047B761C30786C280FD006DC4C28AF
:102E500017D068280DD06A2814D104E0742810D047
:102E60007A280FD10DE044F400140AE044F48014F1
:102E700001E044F440147278824202D104F58014D7
:102E8000761C761C307866280BD013DC582877D057
:102E900009DC002875D04528F6D04628F4D047280C
:102EA0001AD19DE118E0632835D0642879D06528CF
:102EB00012D195E1702873D008DC6728F1D0692819
:102EC0006FD06E280DD06F2806D1B5E073282CD0B6
:102ED000752875D0782874D05A46179990476D1C7C
:102EE00075E1C4F30250022809D003280DD0D9F8A7
:102EF000001004280DD00D6009F1040967E1D9F82C
:102F00000010EA17C1E90052F6E7D9F800100D8069
:102F1000F2E70D70F0E719F8041B8DF8001000209F
:102F20008DF80100EA46012003E059F804AB4FF0A8
:102F3000FF3061074FF0000102D40DE008F10101FC
:102F40008846B9420FDA8045F8DB1AF808100029E4
:102F5000F4D108E008F1010188468142FADB1AF851
:102F600008100029F6D105985B46A0EB080721461A
:102F70003846179A00F094FA284400EB080507E059
:102F80004DE029E10DE01AF8010B5A4617999047D8
:102F9000B8F10108F7D25B4621463846179A13E18B
:102FA00042E00A220092C4F302524FF0000A022AC1
:102FB00008D059F804CB032A4FEAEC710AD00DE08F
:102FC00029E02AE009F1070121F00702F2E802C135
:102FD000914609E00FFA8CFC4FEAEC71042A03D108
:102FE0004FFA8CFC4FEAEC71002907DA0A460021FF
:102FF000DCF1000C61EB02012D2202E0220504D578
:103000002B228DF80420012203E0E20701D02022C8
:10301000F7E7904659E00A2102E010220DE0102166
:103020004FF0000A00910BE010224FF0000A44F02C
:1030300004040827009203E008224FF0000A0092DF
:10304000C4F30252022A05D059F804CB0021032A06
:1030500008D009E009F1070121F00702F2E802C1F6
:10306000914605E01FFA8CFC042A01D10CF0FF0CFC
:103070004FF00008220728D5702806D0009B83F067
:10308000100353EA0A0305D00EE040228DF8042015
:10309000012208E05CEA010206D030228DF804200B
:1030A0008DF8050002229046009B83F0080353EA46
:1030B0000A030AD15CEA010201D1620705D5302278
:1030C0008DF804204FF001087F1E582804D034A04A
:1030D00003900EA802900DE036A0F9E75346604633
:1030E000009AFDF727F984460398825C0298401EF7
:1030F000029002705CEA0100F0D1029806A9081A59
:1031000000F1200A600702D524F4803400E0012792
:10311000574502DDA7EB0A0000E0002000EB0A01A2
:10312000009005984144401A0590E00306D45B46A0
:103130002146179A059800F0B3F90544002706E0E8
:1031400001A85A46C05D179990476D1C7F1C4745E2
:10315000F6DBE0030CD55B462146179A059800F094
:103160009FF9054404E030205A46179990476D1C9A
:103170000099481E00900029F5DC08E002980299A9
:103180005A460078491C0291179990476D1CBAF174
:103190000001AAF1010AF1DC65E100000928010043
:1031A00030313233343536373839616263646566BD
:1031B000000000003031323334353637383941427F
:1031C000434445460000000000F058F90544761CD1
:1031D000307800287FF4ECAD19B02846BDE8F08FB8
:1031E000620700D4062709F1070222F0070CFCE869
:1031F0000223E14603F000485FEA080C02D00FF218
:10320000702C0DE05FEA045C02D50FF2682C07E039
:103210005FEAC47C02D00FF2602C01E0AFF2700CC8
:103220004FF0FF3823F00043CDF850C065280CD094
:1032300006DC452809D046281DD047283DD13DE071
:10324000662818D067287ED138E00021112F01DBD5
:10325000112000E0781CCDE9000106A90EA8FFF7B7
:10326000DDFCDDE90F010E9A03910021009207F1C8
:10327000010A04914DE04FF000400097CDE90110A4
:1032800006A90EA8FFF7CAFCDDE90F0203920E9B08
:1032900011990022DDF80CA00093049211B9791C59
:1032A00000EB010AB7EB0A0004D4C0F1FF3007F1CC
:1032B000010A0490AAEB0700019044E0012F00DA14
:1032C00001270021112F01DD112000E03846CDE952
:1032D000000106A90EA8FFF7A1FCDDE90F010E9A77
:1032E0000391002104910092BA4621070CD403995E
:1032F000514500DA8A46BAF1010F05DD009AAAF1BC
:103300000101515C302908D0B84202DA10F1040FF3
:1033100006DA0121CDE9011015E0AAF10101E9E782
:10332000002805DC049901440491AAEB000102E0A5
:10333000411C514500DD8A460499401A401C019009
:103340004FF000400290200704D40198504501DB63
:10335000CDF8048000208DF84F0002980DF14F0742
:10336000B0F1004F25D02B200E9002984FF00208AC
:1033700000280CDA404202902D200E9007E00A212E
:103380000298FCF7C1FF3031029007F8011DB8F137
:103390000001A8F10108F2DC02980028EFD1791EA3
:1033A0000E980870307800F0200040F0450007F8D3
:1033B000020D12A8C01B00F107081498007800B194
:1033C000012000EB0A01019801EBE07105984144EE
:1033D000401A401E0590E00306D45B462146179A2A
:1033E000059800F05DF805441498007818B15A4625
:1033F000179990476D1CE00324D55B462146179A28
:10340000059800F04DF805441CE00498002807DBFF
:10341000DDE90301884203DD0098405C179901E073
:10342000179930205A469047049805F10105401C31
:1034300004900198401E019004D12E205A461799FD
:1034400090476D1CBAF10001AAF1010ADDDC05E02C
:1034500017F8010B5A46179990476D1CB8F10001F7
:10346000A8F10108F4DC5B462146179A0598ABE603
:103470002D0000002B000000200000002DE9F0418D
:10348000044600251E461746880404D405E0394644
:103490002020B0476D1C641EF9D52846BDE8F08198
:1034A0002DE9F041044600251E469046C80301D58B
:1034B000302700E02027880404D505E0414638463F
:1034C000B0476D1C641EF9D52846BDE8F0810000A8
:1034D00013B54FF6FF73012269460248FEF726FF37
:1034E00000981CBD6C010020FDF730FEFFF7FCF8D2
:1034F000FEF79EFFFEF776FFFEF7EEFFFFF738F8C8
:10350000FFF76CF80748FEF737FA3C210648FEF74C
:103510004FFB00210348FEF7FFFC00F035F8FDF7F4
:1035200045FAFEE7DC000020240100202DE9F047E9
:103530000C461146FCF76AFEE06007462168FCF77E
:103540006BFE814638466168FCF766FE0D4E716879
:10355000FCF70AFE7060804638462169FCF756FE8B
:10356000A168FCF759FEF0600546414648462761D0
:10357000FCF7FAFD2946FCF7F7FDBDE8F047FCF73C
:1035800097BE0000000000200D490C480D4A08605D
:10359000002048608860C86008611431C1E90020DB
:1035A000094AC1E902200861143108604860886056
:1035B000C86008610549C860704700000000A0406D
:1035C00054000020000009430000304100000020AA
:1035D0002DE9F0410C46801AFCF75CFEE0600746DE
:1035E0002168FCF719FE804638466168FCF714FE36
:1035F000104D2968FCF7B8FD286006463846216959
:10360000FCF704FEA168FCF707FE0546314640467C
:103610002761FCF7A9FD2946FCF7A6FD064988426B
:1036200002DC0649884200D90846BDE8F041FCF7B3
:103630003FBE0000000000200000FA440000FAC471
:103640000000000000000000010203040607080952
:10365000000000000102030478360008000000208A
:1036600054000000FC2B0008CC3600085400002059
:103670005C0500000C2C00080000000000000000A9
:10368000000000000000000000000000000000003A
:10369000000000000000000000000000000000002A
:1036A000000000000000000000000000000000001A
:1036B00000000000000000000100000010000000F9
:0C36C000000000000024F40000000000E6
:04000005080000ED02
:00000001FF
