:020000040800F2
:10000000A00F002045010008D5520008E94700086C
:10001000D1520008E50800087156000800000000F1
:10002000000000000000000000000000255500084E
:100030000D09000800000000795400082955000847
:100040005F0100085F0100085F0100085F01000810
:100050005F0100085F0100085F0100085F01000800
:100060005F0100085F0100085F0100085F010008F0
:100070005F0100085F0100085F0100085F010008E0
:100080005F0100085F0100085F0100085F010008D0
:100090005F0100085F0100085F0100085F010008C0
:1000A0005F0100085F0100085F010008315500088A
:1000B0003D55000849550008555500085F010008E6
:1000C0005F0100085F0100085F0100085F01000890
:1000D0005F0100084D560008595600086556000893
:1000E0005F0100085F0100085F0100085F01000870
:1000F0005F0100085F010008795500085F010008F2
:100100005F0100085F010008615500085F010008F9
:100110005F0100085F0100086D5500085F010008DD
:100120005F0100085F0100085F0100085F0100082F
:10013000DFF80CD000F0C4FB00480047F559000878
:10014000A00F00200648804706480047FEE7FEE76C
:10015000FEE7FEE7FEE7FEE7FEE7FEE7FEE7FEE777
:100160002D55000831010008D2B201E000F8012B42
:10017000491EFBD270470022F6E710B513460A4627
:1001800004461946FFF7F0FF204610BDF0B480EAA0
:100190000102D40F4200B2EB410F02D202460846E0
:1001A00011464A0042D0C30DDDB2C1F3C752AD1AA9
:1001B000202D35DAC1F3160141F4000204B1524298
:1001C000C5F1200602FA06F12A411044B3EBD05FD4
:1001D00023D0C4B1012DA0EBC35009DCF0BC4FF01B
:1001E000004202EAC352DBB200F5000000F0DCBAC4
:1001F000400000F1807000EBC350A0F1807040EA35
:10020000D170490009E0490841EAC071A0EBC35030
:1002100000F50000400800EBC350F0BC00F0BBBA92
:100220006142012202EB4101001BF6E7F0BC70477E
:1002300081F00041AAE780F00040A7E780EA0102D0
:1002400010B502F00043400022D04A001FD0010E3A
:1002500001EB1261C0F35600C2F3560240F40000F5
:1002600042F40002A0FB022000047F39140400D0F5
:10027000401C50EA124001D44000491EC2B20C0694
:1002800004EBD010401C4008802A02D003E000207C
:1002900010BD20F00100002900DA0020184310BD35
:1002A00030B480EA010202F0004530F0004221F053
:1002B000004013D090B1C30DD40DC2F31601C0F3AA
:1002C0001600E41A41F4000140F400027D3491422A
:1002D00001D3641C00E04900002C02DA30BC00208D
:1002E00070474FF400000023914201D3891A034361
:1002F00040084FEA4101F7D151B1914202D14FF08C
:10030000004105E002D24FF0010101E06FF0010170
:1003100003EBC450284430BC00F03DBA2DE9FE4F39
:10032000804681EA0300C00F0C46009021F0004196
:1003300023F00045B8EB0200A94105D24046214612
:1003400090461C460B46024623F00040104347D01F
:10035000270DC7F30A00C3F30A510290401A019017
:1003600040286BDAC3F3130040F4801B00989246D8
:1003700020B10023D2EB030A63EB0B0B0198594623
:10038000C0F14002504600F0D5F906460D465046F1
:100390005946019A00F0EDF910EB08006141002484
:1003A00087EA115284EAE7731A4340D0009A62B395
:1003B000019A012A4FEA075215DC001B61EB02018A
:1003C0004FF0004202EA0752CDE90042001C41F51D
:1003D000801132462B4600F024FA03B0BDE8F08FBE
:1003E00040462146F9E7001B61EB0201001C41F584
:1003F000801300185B412018A2F5001747EB03019A
:1004000040EAD570B6196D4111E06D084FEA360625
:1004100045EAC0754FEA0752001B61EB0201001C60
:1004200041F5801149084FEA300000195141324628
:100430002B4603B0BDE8F04F00F0E4B9009801226C
:1004400040000023D0EB020263EBE07300982146EA
:100450004FEAE074B8EB000061EB0401E9E783F0D8
:1004600000435BE781F0004158E72DE9F04D81EA58
:10047000030404F0004B21F0004514464FF0000A3D
:1004800023F0004150EA050220D054EA01021DD0B9
:10049000C5F30A570246C5F31303C1F31300C1F3B2
:1004A0000A5640F4801543F48013A7EB0608101B8E
:1004B000D64608F2FD3873EB050002D308F10108B7
:1004C00001E092185B41B8F1000F03DA0020014609
:1004D000BDE8F08D00204FF48011064684460EE002
:1004E000171B73EB050705D3121B63EB05030643CC
:1004F0004CEA010C49084FEA300092185B4150EA7F
:100500000107EDD152EA030012D082EA040083EA27
:100510000501084305D0101BAB4106D20122002380
:1005200006E000224FF0004302E06FF0010253109A
:100530001AEB06004CEB085110EB0A0041EB0B01E3
:10054000BDE8F04D00F05EB9002801DBC0F10040CD
:10055000002901DBC1F10041814201D8012070472F
:1005600000207047002801DBC0F10040002901DBBA
:10057000C1F10041814201D3012070470020704742
:10058000002801DBC0F10040002901DBC1F100417E
:10059000814201D9012070470020704730B5041E08
:1005A00071F1000404DB4FF00044404264EB0101B0
:1005B000141E73F1000405DB1C464FF00043524249
:1005C00063EB0403801A994101D3012030BD002060
:1005D00030BD30B5041E71F1000404DB4FF000445F
:1005E000404264EB0101141E73F1000405DB1C465C
:1005F0004FF00043524263EB0403101A8B4101D2C7
:10060000012030BD002030BD30B5041E71F1000462
:1006100004DB4FF00044404264EB0101141E73F10F
:10062000000405DB1C464FF00043524263EB040319
:10063000101A8B4101D3012030BD002030BDC10F05
:1006400080EAE0700844CA079623002100F0ACB8A5
:1006500096230022114600F0A7B80EB5C10F80EA1C
:10066000E0700844CA07002140F233438DE80E00D1
:100670000A460B4600F0D5F803B000BD00F000427A
:1006800020F00040C10DC0F3160040F400007F29A7
:1006900001DA00207047962903DCC1F19601C840B9
:1006A00001E096398840002AF4D04042704720F09B
:1006B0000040C10DC0F3160040F400007F2901DAAC
:1006C00000207047962903DCC1F19601C8407047AD
:1006D00096398840704700F0004230F000400AD060
:1006E000C10D01F56071C0F3160042EA0151C20864
:1006F00040071143704700200146704701F0004356
:1007000030B421F0004150EA010206D00A0DA2F5F2
:100710006072C1F31301002A02DC30BC0020704774
:10072000440F44EAC104C100E01830BC00EBC250E1
:1007300000F031B8202A04DB203A00FA02F1002050
:1007400070479140C2F1200320FA03F3194390400F
:100750007047202A04DB203A21FA02F0002170477A
:1007600021FA02F3D040C2F1200291400843194619
:100770007047202A06DBCB17203A41FA02F043EA01
:10078000E07306E041FA02F3D040C2F1200291404A
:100790000843194670470029A8BF7047401C49000C
:1007A00008BF20F00100704710B4B0FA80FC00FAD6
:1007B0000CF050EA010404BF10BC704749B1CCF101
:1007C000200421FA04F411FA0CF118BF012121438D
:1007D0000843A3EB0C01CB1D4FEA00614FEA102048
:1007E00042BF002010BC704700EBC35010440029EA
:1007F000A4BF10BC7047401C490008BF20F0010096
:1008000010BC704710B5141E73F1000408DA401CC8
:1008100041F1000192185B411A4301D120F001001F
:1008200010BD2DE9F04D92469B4611B1B1FA81F20F
:1008300002E0B0FA80F220329046FFF77BFF0446D8
:100840000F4640EA0A0041EA0B0153465A46084364
:1008500013D0114653EA010019D0C8F140025046A6
:10086000FFF777FF05460E46504659464246FFF7CA
:1008700061FF084305D0012004E020463946BDE869
:10088000F08D0020054346EAE0762C4337430A9872
:100890006305E40AA0EB08000022FD0A44EA47547D
:1008A0000A3002D500200146E9E701051019694127
:1008B000DDE9084500196941BDE8F04DA2E70000F7
:1008C000064C074D06E0E06840F0010394E807009D
:1008D00098471034AC42F6D3FFF72EFC388000085E
:1008E00058800008FEE7000040F2A010002101221D
:1008F000C2F20000C0E900118160C0E9032140F2AA
:100900008421C2F20001C96A41617047704700004A
:10091000B0B540F21005C2F200056868062888BF2D
:10092000B0BDDFE800F0041E22262A2E320002208D
:1009300001F01CFB0446022001F06EFB012C08BFF5
:10094000012826D101200021C5E9010040F2C01094
:10095000C2F20000016040F2C410C2F20000016067
:10096000B0BD00F017F86860B0BD00F0DBF968605A
:10097000B0BD00F0DFFA6860B0BD00F01BFD68603C
:10098000B0BD00F0C7FE6860B0BD00F0F9FF062002
:100990006860B0BD70B540F2100500200124C2F2BD
:1009A00000052860A8680138052800F2B481DFE856
:1009B00010F006004D008600B201D5000B0140F298
:1009C000501040F2541140F2E014C2F20000C2F2A2
:1009D0000001C2F2000400680968084440F258119E
:1009E000C2F200010968084440F25C11C2F2000141
:1009F00009680844C11700EB91701E218010206027
:100A000040F2A010C2F20000016040F2A4100021E8
:100A1000C2F20000016040F2AC100021C2F20000FE
:100A2000036840F2A810C2F2000002681E2004F021
:100A30002DFE286842F2E45100EB800054F82000BB
:100A40008842C0F20C810520A86066E140F2501097
:100A500040F2541140F2E014C2F20000C2F2000170
:100A6000C2F2000400680968081A40F25811C2F284
:100A700000010968084440F25C11C2F200010968F3
:100A8000401AC11700EB917000218010606040F2A5
:100A9000A010C2F20000016040F2A4101E21C2F2B8
:100AA0000000016040F2AC101E21C2F20000036899
:100AB00040F2A810C2F20000026800203AE040F2C2
:100AC000541040F2501140F2E014C2F20000C2F2A1
:100AD0000001C2F2000400680968081A40F25811C7
:100AE000C2F200010968401A40F25C11C2F2000132
:100AF00009680844C11700EB91700021A1EBA00028
:100B0000A06040F2A010C2F20000016040F2A41008
:100B10006FF01D01C2F20000016040F2AC106FF0F6
:100B20001D01C2F20000036840F2A810C2F20000EA
:100B30000268002004F0AAFD286842F2E35100EBAD
:100B4000800054F82000012488424FF00100C8BF03
:100B50000520A86001F0FEF9204670BD40F2A0100B
:100B60000021C2F20000016040F2A410C2F20000B5
:100B7000016040F2AC100021C2F20000036840F2B4
:100B8000A810C2F200000268002004F07FFD40F2CD
:100B90005820C2F200000178002940F0AB8029689B
:100BA00040F2E012C2F2000201EB810102EB81018E
:100BB000D1E90121114432316529C0F09880062124
:100BC000A96001210170A8E040F2E016C2F200061F
:100BD000D6E901010C18332C45DB40F2A0100021AE
:100BE000C2F20000016040F2A4106FF01D01C2F2D9
:100BF0000000016040F2AC106FF01D01C2F2000075
:100C0000036840F2A810C2F200000268002004F05D
:100C10003DFD40F2541040F25011C2F20000C2F209
:100C2000000100680968081A40F25811C2F2000178
:100C30000968401A40F25C11C2F2000109680844D8
:100C4000C11700EB917029688010A04201EB81016F
:100C500006EB81010861A4BF0520A8605FE0A868D9
:100C600001285CD059E014F1310F58DB40F2A0109C
:100C70000021C2F20000016040F2A4101E21C2F265
:100C80000000016040F2AC101E21C2F200000368B7
:100C900040F2A810C2F200000268002004F0F6FC46
:100CA00040F2501040F25411C2F20000C2F20001B2
:100CB00000680968081A40F25811C2F20001096878
:100CC000084440F25C11C2F200010968401AC117E1
:100CD00000EB917029688010A04201EB810106EBC6
:100CE000810108611BDB05200124A86013E0A868CE
:100CF000052812D140F234100124C2F2000000682D
:100D0000012808D128680130286001F023F9EC603F
:100D10000224204670BD204670BD01F01BF901245D
:100D2000204670BD2DE9F04740F2100A0120C2F2C2
:100D3000000ACAF80000DAF80C0004284AD001289A
:100D400040F0E88040F2501040F2541140F2E014BC
:100D5000C2F20000C2F20001C2F200040068096899
:100D6000084440F25811C2F200010968084440F2F8
:100D70005C11C2F2000109680844C11700EB9170D0
:100D80001E218010606140F2A010C2F200000160DC
:100D900040F2A4100021C2F20000016040F2AC1049
:100DA0000021C2F20000036840F2A810C2F2000065
:100DB00002681E2004F06AFCDAF8000000EB8000F4
:100DC00054F82000B0F5166FC0F2A7800420CAF8CE
:100DD0000C00A9E040F2401040F280046FF059018D
:100DE000C2F20000C2F200044068012840F2A010E4
:100DF00008BF5A21C2F2000021600021016040F2C8
:100E0000A410C2F20000016040F2AC100021C2F256
:100E10000000036840F2A810C2F20000026800203F
:100E200004F034FCDAF80C00042818BF01F092F842
:100E300040F2842040F2B411C2F20000C2F200017C
:100E4000C06A0968FFF7F4F980462068FFF7F7FBEE
:100E50004146FFF7EDF94FF07E510546FFF782FB63
:100E6000002851D140F290000021C2F20000CBF6E0
:100E70008071D0F8009040F29800C2F2000004683F
:100E800040F28C00C2F20000076840F29400C2F207
:100E9000000006682846FFF757FBA8BB40F25C201D
:100EA0004146C2F200000068FFF7C2F9002F054674
:100EB00048BF7F42002E48BF7642002C48BF6442A4
:100EC000F019B9F1000F204448BFC9F100094844A6
:100ED00007300E2818D828464FF07C51FFF742FB08
:100EE00090B928464FF03F41FFF72EFB60B9012033
:100EF000CAF81000DAF800000130CAF8000001F06A
:100F000029F80320BDE8F08740F25C20C2F200001F
:100F1000C0F800800220BDE8F087DAF80C00012854
:100F200004BF0220BDE8F08701F014F80220BDE8FC
:100F3000F087000070B540F210040220C2F20004F5
:100F400020602069411E0320052988BF70BDDFE8AD
:100F500011F006005800A3002902F600380140F203
:100F6000501040F2541140F2E015C2F20000C2F2FB
:100F70000001C2F2000500680968084440F25811F7
:100F8000C2F200010968084440F25C11C2F200019B
:100F900009680844C11700EB91701E218010A862F7
:100FA00040F2A010C2F20000016040F2A410002143
:100FB000C2F20000016040F2AC100021C2F2000059
:100FC000036840F2A810C2F2000002681E2004F07C
:100FD0005DFB206841F66A0100EB800055F82000B7
:100FE0008842C0F23D8140F28000C2F200000068F9
:100FF00010F15A0100F0D0815A2840F031810320CD
:10100000CBE140F2501040F2541140F2E015C2F230
:101010000000C2F20001C2F2000500680968081A67
:1010200040F25811C2F200010968084440F25C1114
:10103000C2F200010968401AC11700EB917000214B
:101040008010E86240F2A010C2F20000016040F29D
:10105000A4101E21C2F20000016040F2AC101E215B
:10106000C2F20000036840F2A810C2F20000026859
:10107000002004F00BFB206800EB800105EB8101F0
:101080004A68B2F5AF7FC0F2F1808968B1F5AF7FF1
:101090004DDA0520206188E140F2541040F25011F1
:1010A00040F2E015C2F20000C2F20001C2F20005F7
:1010B00000680968081A40F25811C2F20001096874
:1010C000401A40F25C11C2F2000109680844C117DD
:1010D00000EB917000218010286340F2A010C2F252
:1010E0000000016040F2A4106FF01D01C2F2000088
:1010F000016040F2AC106FF01D01C2F20000036805
:1011000040F2A810C2F200000268002004F0BEFA0B
:10111000206800EB800105EB8101D1E90121B2F5E6
:10112000AF7FC0F2A980B1F5AF7FC0F22D81012160
:1011300001306161206000F00DFF042070BD40F2BD
:10114000A0100021C2F20000016040F2A410C2F21F
:101150000000016040F2AC100021C2F20000036800
:1011600040F2A810C2F200000268002004F08EFADB
:1011700040F24010C2F200000168012940F0838073
:1011800040F26025C2F20005297899B9406806222C
:10119000012840F2605014BF04F12A0104F1240137
:1011A000C2F2000003F0D6FA01202062287001206C
:1011B00003F028FD012000F0D9FE012840F09C80BA
:1011C00080E040F2E016C2F20006D6E90B010D18ED
:1011D000332DC0F2978040F2A0100021C2F200002F
:1011E000016040F2A4106FF01D01C2F20000016026
:1011F00040F2AC106FF01D01C2F20000036840F233
:10120000A810C2F200000268002004F03FFA40F289
:10121000541040F25011C2F20000C2F20001006806
:101220000968081A40F25811C2F200010968401A10
:1012300040F25C11C2F2000109680844C11700EBDA
:10124000917021688010A84201EB810106EB8101B9
:101250000861A1BF05202061032070BD032070BD7F
:101260002069012804BF032070BD9EE02069022888
:1012700004BF032070BD98E0B1F5AF7FC0F2848059
:101280000520206191E040F26425C2F20005297832
:1012900099B940680622012840F2605014BF04F159
:1012A0002A0104F12401C2F2000003F053FA0120E4
:1012B00020622870012004F027F9012000F0ACFE24
:1012C000012819D140F2C0100021C2F200000160D3
:1012D00040F2C410C2F200000160206840F2E01148
:1012E000C2F2000100EB800001EB800041680029A0
:1012F00050D08068002856D02069052804BF0320FC
:1013000070BD52E015F1310F3CDB40F2A01000211E
:10131000C2F20000016040F2A4101E21C2F20000DF
:10132000016040F2AC101E21C2F20000036840F2DE
:10133000A810C2F200000268002004F0A7F940F2F1
:10134000501040F25411C2F20000C2F200010068D5
:101350000968081A40F25811C2F2000109680844ED
:1013600040F25C11C2F200010968401AC11700EB9B
:10137000917021688010A84201EB810106EB810188
:1013800008610CDA032070BD2069032804BF032024
:1013900070BD0AE0022007E00220206105E0052080
:1013A0002061032070BD0320206100F0D3FD0320E5
:1013B00070BD000070B540F210040320C2F20004BA
:1013C00020606069411E0420042988BF70BDDFE8E9
:1013D00011F005005A00A5008F01F70040F25010EF
:1013E00040F2541140F2E0156FF01D02C2F200000D
:1013F000C2F20001C2F2000500680968084440F228
:101400005811C2F200010968084440F25C11C2F2AE
:10141000000109680844C11700EB91700021A1EB9D
:10142000A000E86340F2A010C2F20000026040F2A7
:10143000A410C2F20000016040F2AC100021C2F220
:101440000000036840F2A810C2F2000002686FF0CA
:101450001D0004F01BF9206843F24C1100EB8000E2
:1014600055F820008842C0F2EC8040F28000C2F2C1
:101470000000006810F15A0100F043815A2840F042
:10148000E08003203EE140F2501040F2541140F25F
:10149000E015C2F20000C2F20001C2F200050068CD
:1014A0000968081A40F25811C2F20001096808449C
:1014B00040F25C11C2F200010968401AC11700EB4A
:1014C000917000218010286440F2A010C2F2000048
:1014D000016040F2A4101E21C2F20000016040F23F
:1014E000AC101E21C2F20000036840F2A810C2F244
:1014F00000000268002004F0C9F8206800EB8001B9
:1015000005EB81014A68B2F5AF7FC0F2A08089681F
:10151000B1F5AF7F4CDA05206061F7E040F254107E
:1015200040F2501140F2E015C2F20000C2F2000198
:10153000C2F2000500680968081A40F25811C2F2A8
:1015400000010968401A40F25C11C2F2000109680A
:101550000844C11700EB917000218010686440F2CC
:10156000A010C2F20000016040F2A4106FF01D0153
:10157000C2F20000016040F2AC106FF01D01C2F237
:101580000000036840F2A810C2F2000002680020C8
:1015900004F07CF8206800EB800105EB8101D1E9C3
:1015A0000121B2F5AF7F58DBB1F5AF7FC0F2A1806A
:1015B00001210130A161206000F0CCFC052070BD4C
:1015C00040F2A0100021C2F20000016040F2A4101D
:1015D000C2F20000016040F2AC100021C2F2000033
:1015E000036840F2A810C2F200000268002004F074
:1015F0004DF840F24010C2F200008168012932D15A
:1016000040F26825C2F200052978A1B9C068062217
:10161000012840F2605014BF04F12A0104F12401B2
:10162000C2F2000003F096F80120012603F0EAFA66
:1016300002202E702062012000F098FC012853D176
:101640003AE06069012804BF042070BD5EE0606973
:10165000022804BF042070BD58E0B1F5AF7F48DB1D
:101660000520606152E040F26C25C2F20005297845
:10167000E9B9C0680622012840F2605014BF04F1A5
:101680002A0104F12401C2F2000003F063F80120F2
:10169000012603F039FF02202E7004F12A010622F0
:1016A000206240F26050C2F2000003F053F80120C3
:1016B00000F0B2FC012817D140F2C0100021C2F2A4
:1016C0000000016040F2C410C2F200000160206816
:1016D00040F2E011C2F2000100EB800001EB80005B
:1016E000416861B1806878B1606905280ED1042035
:1016F00070BD6069032804BF042070BD06E00220AD
:1017000003E00220606101E00320606100F022FC40
:10171000042070BD2DE9F04F81B040F21007042085
:10172000C2F200073860B86905284BD0042863D09E
:10173000012840F0218140F2501040F2541140F253
:10174000E014C2F20000C2F20001C2F2000400681C
:101750000968084440F25811C2F2000109680844BF
:1017600040F25C11C2F2000109680844C11700EBA5
:1017700091701E218010206540F2A010C2F200007E
:10178000016040F2A4100021C2F20000016040F2AA
:10179000AC100021C2F20000036840F2A810C2F2AF
:1017A000000002681E2003F071FF386841F270717A
:1017B00000EB800054F820008842C0F2D88004205A
:1017C000B861D7E040F2A0100021C2F20000016031
:1017D00040F2A410C2F20000016040F2AC100021FF
:1017E000C2F20000036840F2A810C2F200000268D2
:1017F000002003F04BFFBFE040F280000021C2F266
:101800000000016040F2A010C2F20000016040F24E
:10181000A410C2F20000016040F2AC100021C2F23C
:101820000000036840F2A810C2F200000268002025
:1018300003F02CFFB869042818BF00F08BFB40F2BE
:10184000842040F2B411C2F20000C2F20001C06A6A
:101850000968FEF7EDFC80464FF000404146FEF778
:10186000E7FCFEF738FF49F69A1249F69913054648
:101870000E46C9F69912C3F6E973FEF7C5FE0028B5
:101880006ED140F2900049F69A1249F6991331460A
:10189000C2F20000C9F69912CBF6E973D0F80090B5
:1018A00040F29800C2F20000D0F800A040F28C0094
:1018B000C2F20000D0F800B040F29400C2F2000082
:1018C00004682846FEF76AFE002849D140F27020DD
:1018D0004146C2F200000068FEF7AAFCFEF7FBFEDC
:1018E000BBF1000F05460E4648BFCBF1000B002CA4
:1018F00048BF6442BAF1000F48BFCAF1000A04EBC6
:101900000B00B9F1000F504448BFC9F10009484429
:1019100007300E2824D849F69A1249F6991328461A
:101920003146C9F69912C3F6C973FEF76DFEB8B910
:1019300049F69A1249F6991328463146C9F6991282
:10194000CBF6C973FEF72AFE50B90120F86138685A
:101950000130386000F0FEFA062001B0BDE8F08FDB
:1019600040F27020C2F20000C0F8008004E0B869C4
:10197000012801D000F0EEFA052001B0BDE8F08F9B
:1019800070B540F210040520C2F200042060E06946
:101990000138052800F29F81DFE810F006005000B2
:1019A00080009D01CD00030140F2501040F254111F
:1019B00040F2E0156FF01D02C2F20000C2F2000119
:1019C000C2F2000500680968084440F25811C2F2EA
:1019D00000010968084440F25C11C2F20001096884
:1019E0000844C11700EB91700021A1EBA0006866CC
:1019F00040F2A010C2F20000026040F2A410C2F255
:101A00000000016040F2AC100021C2F20000036847
:101A100040F2A810C2F2000002686FF01D0003F04F
:101A200035FE206843F23E0100EB800055F82000AF
:101A30008842C0F204810520E06178E040F2501055
:101A400040F2541140F2E015C2F20000C2F200016F
:101A5000C2F2000500680968081A40F25811C2F283
:101A600000010968084440F25C11C2F200010968F3
:101A7000401AC11700EB917000218010A86640F257
:101A8000A010C2F20000016040F2A4101E21C2F2B8
:101A90000000016040F2AC101E2131E040F2541011
:101AA00040F2501140F2E015C2F20000C2F2000113
:101AB000C2F2000500680968081A40F25811C2F223
:101AC00000010968401A40F25C11C2F20001096885
:101AD0000844C11700EB91700021A1EBA000E8665B
:101AE00040F2A010C2F20000016040F2A4106FF0BA
:101AF0001D01C2F20000016040F2AC106FF01D0148
:101B0000C2F20000036840F2A810C2F200000268AE
:101B1000002003F0BBFD206842F2E351012200EBFC
:101B2000800055F820008842C8BF0522E26100F01D
:101B300011FA062070BD40F2A0100021C2F2000090
:101B4000016040F2A410C2F20000016040F2AC104B
:101B50000021C2F20000036840F2A810C2F20000A7
:101B60000268002003F092FD40F27420C2F20000EF
:101B70000178002940F0AF80216840F2E012C2F203
:101B8000000201EB810102EB8101D1E90121114445
:101B900032316529C0F09B800621E161012101708D
:101BA000C5E740F2E016C2F20006D6E91A010D18A8
:101BB000332D48DB40F2A0100021C2F2000001608A
:101BC00040F2A4106FF01D01C2F20000016040F26B
:101BD000AC106FF01D01C2F20000036840F2A810C3
:101BE000C2F200000268002003F050FD40F25410E1
:101BF00040F25011C2F20000C2F200010068096810
:101C0000081A40F25811C2F200010968401A40F265
:101C10005C11C2F2000109680844C11700EB917021
:101C200021688010A84201EB810106EB8101086167
:101C3000A1BF0520E061062070BD062070BDE069EF
:101C4000012848D073E715F1310F44DB40F2A010B2
:101C50000021C2F20000016040F2A4101E21C2F275
:101C60000000016040F2AC101E21C2F200000368C7
:101C700040F2A810C2F200000268002003F006FD46
:101C800040F2501040F25411C2F20000C2F20001C2
:101C900000680968081A40F25811C2F20001096888
:101CA000084440F25C11C2F200010968401AC117F1
:101CB00000EB917021688010A84201EB810106EBD6
:101CC00081010861A4BF0520E061062070BDE069C4
:101CD00005287FF42CAF062070BD000040F2C01034
:101CE000C2F200008168012902BF01680131016070
:101CF000C168012902BF416801314160704700009D
:101D0000B0B540F2F83400210025C2F200042046AC
:101D100002F0C0F92046042102F0BCF92046082157
:101D200002F0B8F920460C2102F0B4F940F2C010DC
:101D30009B21C2F20000C0E90055C0E90255C0E98C
:101D400004552068416381634B21C1630164B0BDC8
:101D50002DE9F04381B0804604F09AF847F2BC01C7
:101D60004046C0F6000104F07FFA47F2A203404665
:101D700010212022C0F6000304F01EF940F2842056
:101D800040F2B411C2F20000C2F20001C06A096858
:101D9000FEF74EFA00210646FEF7E4FB40F27829F2
:101DA0000446C2F20009D9F80000FEF794FC05468B
:101DB0000F46A4B94EF6A70247F6FF7328463946E8
:101DC000C2F64862C4F26603FEF7E8FB38B90021A8
:101DD0003046C4F2B431FEF7D9F905461EE04EF2A2
:101DE000543247F6C44328463946C9F6A532CCF2E8
:101DF0006603FEF7EEFB002104463046CCF2B43118
:101E0000FEF7C4F90546002C30464FF0000108BF2C
:101E10003546FEF7B5FB002808BF354600200021F7
:101E200000902846FEF790FB002843D12846FEF795
:101E300025FC48F21F5147F2BC04C5F2EB11C0F675
:101E4000000480FB0112511101EBD27101F130024B
:101E50008DF80020642201FB120146F26762C6F28F
:101E6000666281FB0213990801EBD37130318DF862
:101E7000011080FB0212910801EBD27101EB81018C
:101E8000A0EB4100214630308DF80200404604F0BE
:101E9000EBF92FA340461021322204F08DF8404682
:101EA000214604F0E1F96B4640462021322204F03D
:101EB00083F843E085F00040FEF7E0FB48F21F5155
:101EC00047F2BC04C5F2EB11C0F6000480FB01121E
:101ED000511101EBD27101F130028DF80020642222
:101EE00001FB120146F26762C6F2666281FB0213D1
:101EF000990801EBD37130318DF8011080FB02128B
:101F0000910801EBD27101EB8101A0EB4100214668
:101F100030308DF80200404604F0A6F90BA340468D
:101F20001021322204F048F84046214604F09CF982
:101F30006B4640462021322204F03EF8404604F031
:101F400059F9C9F8005001B0BDE8F0832D00000038
:101F50002B00000040F250100021C2F20000C0E946
:101F60000011C0E9021170477047000080B50146BA
:101F700041F20040C4F20100012910D002291CBF27
:101F8000002080BD4FF4806100F068FA012815D16F
:101F900040F2C0100221C2F20000016115E04FF4CE
:101FA000806100F05BFA40F2C0110028C2F200012B
:101FB0001ED00220086101F108001BE040F2C010B1
:101FC0000121C2F200000161816040F2C0110020D5
:101FD000C2F200010A68C82A1DDB40F2F8326E2303
:101FE000C2F200021268536393638860012080BDCF
:101FF00001F110000122026000200A68C82AB8BF5F
:1020000080BD40F2F8326E23C2F2000212685363C0
:1020100093638860012080BD80B5014640F6004092
:10202000C4F20100012910D002291CBF002080BD8C
:102030004FF4006100F012FA012815D140F2C010EF
:102040000221C2F20000416115E04FF4006100F08E
:1020500005FA40F2C0110028C2F200011ED0022091
:10206000486101F10C001BE040F2C0100121C2F2F6
:1020700000004161C16040F2C0110020C2F20001C5
:102080004A68C82A1DDB40F2F8327823C2F2000207
:102090001268D3631364C860012080BD01F114008D
:1020A0000122026000204A68C82AB8BF80BD40F201
:1020B000F8327823C2F200021268D3631364C86056
:1020C000012080BD90F82110022912D1016801235E
:1020D0000A6822F00E020A600A6822F001020A6011
:1020E000D0E90F1203FA02F24A60002180F8213091
:1020F00002E0042181630121002280F820200846AB
:102100007047000090F8211002291FBF042181634D
:10211000012070470268116821F00E0111601168FA
:1021200021F0010111600421C4F2020101F17C03DC
:102130009A4216D940F20843C4F202039A4246D0AA
:1021400040F21C43C4F202039A4244D040F23043AE
:10215000C4F202039A4242D14FF48073C1F80034B2
:1021600055E04323C4F202039A4211DD6B23C4F20B
:1021700002039A421EDC4423C4F202039A4239D07D
:102180005823C4F202039A423CD14FF480323DE01E
:102190000823C4F202039A422FD01C23C4F2020384
:1021A0009A4232D03023C4F202039A422AD14FF429
:1021B00080722BE06C23C4F202039A421FD080236A
:1021C000C4F202039A421DD14FF080721EE0012337
:1021D000C1F800341BE01023C1F8003417E001F50A
:1021E000886C4FF48033624508BF4FF48053C1F8C8
:1021F00000340CE04FF4805208E0012206E04FF476
:10220000801203E04FF4803200E010220A604FF4A5
:1022100080710184416B002904BF0020704780B5A4
:102220008847002080BD000070B505466E1C00F098
:1022300021F9044636B140F20000C2F200000078F5
:10224000054401E04FF0FF3500F014F9001BA842EF
:10225000FAD370BD2DE9F04F83B0D1F80090B9F1F9
:10226000000F00F0F88041F60042062740F2004ED1
:102270004FF0010A4FF0000B4FF0000CC4F20102C6
:10228000C4F2010E9042A0F18042A2F5843208BF50
:1022900005274FEAB223052B4FF0000338BF4FEA62
:1022A000B22700F114020197009200BF0AFA0BF85E
:1022B00019EA080F00F0C6804D684FF6FF72C1F2B0
:1022C0001002954212DC122D55D80F24DFE805F0DC
:1022D000350A444854545454545454545454545443
:1022E000544B4F00D1F80CC046E000BF4FF6FF72D0
:1022F000C1F22102954210DC00220F24C1F211022A
:1023000095421EBF0022C1F21202954215D0002252
:10231000C1F22102954210D02EE000220F24C1F21A
:10232000220295421EBF0022C1F23102954204D022
:102330000022C1F2320295421ED18E684EB1012EAA
:10234000009E4FF0080C08BF00F11006C6F8008090
:1023500012E04FF0040C0FE0CE6806F1080C0BE021
:102360004FF0000C08E0CE6806F1040C04E0CE68E3
:1023700006F10C0C00E00F24BBF1080F05464FF6E8
:10238000F8725F4628BF0435C3F6FF722E6828BF77
:102390001744BF0004FA07F226EA02020CFA07F615
:1023A00032432A60CA79D2064CD541F218022BF08A
:1023B0000306C4F20202764415462A6842F001027E
:1023C0002A602A6802F00102029203F00C0204FA69
:1023D00002F54FF60844029FCFF6FF74375927EAFB
:1023E0000505019F07FA02F22A43325140F20C44DC
:1023F0004D68DEF80020C4F2010415F4803F0CBFE4
:1024000022EA080642EA0806AA03CEF80060DEF8CF
:10241000042054BF22EA080642EA0806EA02CEF87F
:102420000460DEF8082054BF22EA080642EA0806E3
:10243000AA02CEF80860226854BF22EA080542EAE0
:1024400008052560D1F800900BF1010B043339FA2F
:102450000BF27FF42BAF03B0BDE8F08F806808402B
:1024600018BF012070470000002A08BF090401615D
:102470007047000040F20000C2F200008068704720
:10248000B0B504465CB394F83D0028B9002084F848
:102490003C00204600F0DEFA242084F83D0020684D
:1024A000016821F001010160016841F4004101600F
:1024B000016821F40041016000F08EFC656848F27B
:1024C000A16E40F60011C0F2010EC0F23D0175454B
:1024D0003CBF48F28041C0F21E01884201D2012077
:1024E000B0BD4DF683617545C4F21B31A0FB0113ED
:1024F00021684A6822F03F0242EA93424FEA93433E
:102500004A600A6A22F03F0C09D34FF496725A438C
:1025100044F6D353C1F26203A2FB03239B095A1C66
:102520004CF6FF73013842EA0C020A62CA6922EAD9
:10253000030C48F2A062C0F20102954209D86A0079
:10254000B0FBF2F001306FF31F30042898BF042075
:102550002EE0D4F808E0BEF1000F15D019226A432E
:10256000B0FBF2F2531C042262F31F331A0514D09D
:10257000BEF1000F13D019226A43B0FBF2F004221F
:10258000013062F31F3011E005EB4502B0FBF2F2BF
:10259000531C6FF31F331A05EAD1012008E005EB45
:1025A0004502B0FBF2F001306FF31F3040F4004001
:1025B00040EA0C00C8610868D4E9072320F0C00095
:1025C000104348F2FF321843086088689043D4E90A
:1025D0000323184310438860C868D4E9052320F01A
:1025E000FF0010431843C860086840F0010008600D
:1025F00000202021206484F83D10206384F83E00F0
:10260000B0BD00002DE9F04182B01F461646884655
:102610000446FFF72FFF054694F83D00202818D107
:102620002068816911F0020F15D0FFF723FF401BCE
:102630001928F5D9002020210227206384F83D10B5
:1026400084F83E00216C41F02001216484F83C00B4
:10265000FBE10227F9E194F83C10012901D102279E
:10266000F3E1012184F83C10016811F0010F02BF71
:10267000016841F001010160016821F4006101601D
:10268000212184F83D10102184F83E10002121649E
:1026900066626785618D21850021CFF6FF71E16259
:1026A000E16A11F5803F06D0012918BF082902D040
:1026B000216B122903D1016841F4807101604169E5
:1026C000089E11F0010F16D1002E00F01D81711C23
:1026D00006D100BF416911F0010FFBD00BE000BF34
:1026E000FFF7C8FE401BB04200F21081206841692C
:1026F00011F0010FF4D02169B1F5804F02D108F03B
:10270000FE012EE0062101EAD81141F0F00101613D
:10271000014651F8142F12F0080F20D1002E00F0BE
:102720002A81721C09D10A6812F4806F40F02B8153
:102730000A6812F0080FF6D011E0096811F4806FF2
:1027400040F02181FFF796FE401BB04200F2198154
:102750002068014651F8142F12F0080FEDD05FFAEF
:1027600088F10161014651F8142F12F0020F21D1B6
:10277000002E00F0E280721C0AD100BF0A6812F439
:10278000806F40F0E2800A6812F0020FF6D011E08C
:10279000096811F4806F40F0D880FFF76BFE401B92
:1027A000B04200F2D0802068014651F8142F12F098
:1027B000020FEDD000270246019752F8141F019135
:1027C000516801910199218D002900F09180731CBD
:1027D0005CD0024652F8143F13F0800F14D1002E43
:1027E00000F0F38050F8141F11F4806F40F0E28085
:1027F000FFF740FE401BB04200F2EE8020684169C6
:1028000011F0800FEED0218DD4F824C086466246A8
:1028100012F8013B036162624B1E628D013A6285D0
:1028200023855EF8142F12F0040F0ED01A040BD07B
:102830009CF801208B1E02610CF102026262628D23
:10284000013A6285238500E00023DEF8001011F0D4
:10285000040F17D1002E00F0D88050F8141F11F487
:10286000806F40F0AD80FFF705FE401BB04200F2E4
:10287000D4802068416911F0040FEED0218D0A0444
:10288000A7D135E019460A04A3D131E0136813F04B
:10289000800F04D1136813F4806FF7D089E0666A63
:1028A000334613F8015B05616362638D013B638509
:1028B0004B1E2385456915F0040F0DD01B0409D06C
:1028C00073780361B31C6362638D013B63858B1E68
:1028D000238501E0002300BF116811F0040F04D12B
:1028E000116811F4806FF7D069E019041946CDD151
:1028F000016841F400710160202084F83D0084F8F3
:102900003E7084F83C70A0E0FFF7B4FD0020202169
:102910000127206384F83D1084F83E00216C41F0CB
:102920002001216484F83C002068006810F4807F56
:102930001CBF4FF40070206487E0096811F4806FB9
:1029400003D1FFF797FD202007E0016841F40071F3
:1029500001606FF480614161042000212022012781
:10296000216384F83D2084F83E10226C10432064DB
:1029700084F83C1069E0096811F4806F03D1FFF717
:1029800079FD202007E0016841F4007101606FF4D7
:10299000806141610420002120220127216384F805
:1029A0003D2084F83E10226C1043206484F83C10D3
:1029B0004BE010466FF48061016004200DE010468A
:1029C0006FF480610160042028E0106810F4806FCB
:1029D0001046EFD1FFF74EFD202000212022216379
:1029E00084F83D2084F83E10226C1043206484F863
:1029F0003C10206C042806D120680127016841F4AE
:102A00000071016021E001271FE0DEF8000010F4F2
:102A1000806F7046D4D1FFF72DFD202000212022A9
:102A2000216384F83D2084F83E10226C104320641A
:102A300084F83C10206C042806D120680127016826
:102A400041F40071016000E00127F8B202B0BDE876
:102A5000F081000010B586B00021CDE90411CDE968
:102A60000211016845F20040C4F20000814201D029
:102A700006B010BD41F2180400F53840C4F202045B
:102A8000216841F008012160216801F008010191ED
:102A90000199C0210291122103910321059102A9FC
:102AA000FFF7D8FB606840F400106060606800F4D5
:102AB00000100190019806B010BD000040F2000027
:102AC000C2F2000001788268114481607047000002
:102AD00080B542F20000C4F20200016841F010012A
:102AE0000160032000F08EF8012000F005F800F0EE
:102AF00025F8002080BD000070B540F200060446B5
:102B00004FF47A71C2F200063078B1FBF0F040F277
:102B10004001C2F200010968B1FBF0F000F074FB63
:102B200001250F2C08D838B94FF0FF30214600227C
:102B3000002500F035F87460284670BD82B041F27F
:102B400018000222C4F20200016841F00101016094
:102B5000016801F0010101910199416841F0805142
:102B60004160406800F08050009000980420C4F25A
:102B70000100016862F31A61016002B07047000051
:102B80000028B8BF704700F01F010122400902FA77
:102B900001F14EF20012CEF2000242F8201070470E
:102BA00010B500F00F034EF60C5E00F1604CB0F172
:102BB000FF3FA3F10403CEF2000E734403F10C04B3
:102BC000C8BF0CF56444DEF80000C0F3022000F139
:102BD000040CC31E80F00700BCF1070F4FF0010C7E
:102BE00038BF0023042828BF04200CFA00F0013865
:102BF00008400CFA03F10F319840114008430001DE
:102C0000207010BD4EF60C514FF6FF03CEF20001BE
:102C10000A681A4060F30A2242F0806040F0FD70BA
:102C2000086070472DE9F04104460D46002C00F085
:102C3000AA8041F20408C4F20208D8F8FC0F00F0A0
:102C40000700A8420DD2D8F8FC0F20F00700284357
:102C5000C8F8FC0FD8F8FC0F00F00700A84240F0BD
:102C60009280206810F0020F17D0410742BFD8F8B9
:102C7000001041F4E061C8F80010010742BFD8F825
:102C8000001041F46051C8F80010D8F80010A26894
:102C900021F0F0011143C8F80010C0072FD0606880
:102CA000012805D158F8041C11F4003F6BD008E04E
:102CB00058F8041C022802D1890164D501E0890773
:102CC00061D5D8F8001021F003010843C8F80000CE
:102CD000FFF7D0FB064641F2883700BFD8F8000066
:102CE000616800F00C00B0EB810F08D0FFF7C2FB69
:102CF000801BB842F2D90320C0B2BDE8F081D8F8F9
:102D0000FC0F00F00700A8420CD9D8F8FC0F20F007
:102D100007002843C8F8FC0FD8F8FC0F00F00700A4
:102D2000A84230D1206810F0040F07D0D8F8001066
:102D3000E26821F4E0611143C8F80010000708D5EB
:102D4000D8F80000216920F4605040EAC100C8F8BA
:102D50000000D8F8001041F20020C0F27A0001F023
:102D60000C02082A1CD147F29203C1F3834211F4EA
:102D7000803FC0F600039A5C09D140F60010C0F213
:102D80003D0050430CE00120C0B2BDE8F081D8F80E
:102D9000001050430FA2C1F34041515CB0FBF1F071
:102DA000D8F8001047F27A02C0F60002C1F303110E
:102DB000515CC84040F24001C2F20001086040F29C
:102DC0000400C2F200000068FFF796FE0020C0B2C7
:102DD000BDE8F0810102000040F2400041F2040130
:102DE00047F28A02C2F20000C4F20201C0F60002F9
:102DF00000680968C1F30221515CC84070470000B7
:102E000040F2400041F2040147F28A02C2F200009F
:102E1000C4F20201C0F6000200680968C1F3C221D1
:102E2000515CC840704700002DE9F04782B004466D
:102E300074B3207841F2000A41F22007C4F2020A7A
:102E4000C4F20207C00763D057F81C0C00F00C0056
:102E500004281FD057F81C0C00F00C00082804D1DF
:102E600057F81C0C10F4803F14D16068D8B1B0F54D
:102E7000803F08D0DAF80010B0F5A02F2ED141F431
:102E80008020CAF80000DAF8000040F480302DE01D
:102E90000120B2E1DAF8000010F4003F38D0606899
:102EA000B0BB0120A9E1DAF8000020F48030CAF8B4
:102EB0000000DAF8000020F48020CAF80000FFF7D4
:102EC000D9FA0546DAF8000010F4003F20D0FFF7E9
:102ED000D1FA411B03206429F4D98EE121F480301A
:102EE000CAF80000DAF8000020F48020CAF80000D8
:102EF000FFF7C0FA054600BFDAF8000010F4003F03
:102F000006D1FFF7B7FA401B6428F5D9032074E116
:102F1000207840F20008C4F24228800738D557F8DC
:102F20001C0C10F00C0F21D057F81C0C00F00C00FA
:102F3000082804BF57F81C0C10F4803F16D02069F5
:102F4000002800F0A9800120C8F80000FFF792FADD
:102F5000054600BFDAF8000010F0020F0FD1FFF7AE
:102F600089FA401B0228F5D9032046E1DAF800006F
:102F700010F0020F1CBF2069012840F08B80DAF8A6
:102F80000000616920F0F80040EAC100CAF80000C2
:102F90002078000738D5A06988B10120C8F88004DE
:102FA000FFF768FA054600BF786810F0020F18D1E5
:102FB000FFF760FA401B0228F6D903201DE100202C
:102FC000C8F88004FFF756FA054600BF786810F08D
:102FD000020F19D0FFF74EFA401B0228F6D9032042
:102FE0000BE140F2400044F6D351C2F20000C1F2BE
:102FF00062010068A0FB0101480A019000BF01982E
:10300000411E00280191F9D12078400740F19080BD
:1030100057F8040C10F0805F0ED157F8040C4FF0F5
:10302000010940F0805047F8040C57F8040C00F0F8
:1030300080500090009801E04FF0000946F2000631
:10304000CFF6FE765AF8060010F4807F14D15AF8B5
:10305000060040F480704AF80600FFF70BFA0546B8
:103060005AF8060010F4807F06D1FFF703FA401BE0
:103070006428F5D90320C0E0E06800B3012805D03A
:103080003968052833D141F004003860386840F0D1
:10309000010032E00120B0E00020C8F80000FFF796
:1030A000E9F90546DAF8000010F0020F3FF470AFBE
:1030B000FFF7E0F9411B03200229F3D99DE03868AE
:1030C00020F001003860386820F004003860FFF715
:1030D000D1F9054641F28836386810F0020F1ED04B
:1030E000FFF7C8F9411B0320B142F5D985E021F073
:1030F00001003860386820F004003860FFF7BAF942
:10310000054641F2883600BF386810F0020F06D13C
:10311000FFF7B0F9401BB042F6D903206DE0B9F1DA
:10312000010F02BF57F8040C20F0805047F8040C40
:10313000E669002E60D057F81C0C00F00C0008283F
:1031400003D1012E22D1012057E00020C8F86000F1
:10315000FFF790F90546022E0CD100BFDAF8000007
:1031600010F0007F20D0FFF785F9411B03200229D2
:10317000F4D942E0DAF8000010F0007F3CD0FFF70D
:1031800079F9411B03200229F4D936E057F81C0CC9
:10319000216A00F480328A4233D1616A00F47010EF
:1031A000884229D0012028E0206AB0F5803F07D16D
:1031B00057F81C1CA26821F40031114347F81C1C6D
:1031C00057F81C1C21F474110843616A084347F83E
:1031D0001C0C0120C8F86000FFF74CF9044600BF42
:1031E000DAF8000010F0007F06D1FFF743F9011B69
:1031F00003200229F4D900E00020C0B202B0BDE8EB
:10320000F0870120F9E70000411E0020B0EB116FAC
:103210001CBF012070474EF21002F023CEF20002D4
:1032200051604EF62351CEF200010B7007219060E1
:1032300011607047704700007047000090F83C3004
:103240000222012B44D080B5012380F83C3080F865
:103250003D2002685368D2F808C023F0700E0B6856
:1032600043EA0E03536040F6FF33C4F200039A4270
:10327000BDE880400FDCB2F1804F1EBF40F200433A
:10328000C4F200039A4218D040F60003C4F20003CF
:103290009A4212D016E040F60043C4F200039A426C
:1032A0001EBF43F20043C4F201039A4205D042F626
:1032B0000043C4F201039A4204D149682CF0800310
:1032C000194391600121002280F83D1080F83C20D4
:1032D000D0B2704710B50446002C04BF012010BDC9
:1032E00094F83D0028B9002084F83C00204600F006
:1032F00089F8022040F6FF3284F83D00C4F2000253
:1033000020680168904220DCB0F1804F1EBF40F27F
:103310000043C4F20003984229D040F60003C4F2EF
:103320000003984223D0904227DCB0F1804F1EBFAB
:1033300040F20042C4F20002904230D040F6000257
:10334000C4F2000290422AD02DE040F60043C4F2BD
:10335000000398421EBF43F20043C4F201039842A7
:1033600005D042F60043C4F201039842DBD1A368C2
:1033700021F0700119439042D7DD40F60042C4F2BB
:10338000000290421EBF43F20042C4F2010290428A
:1033900005D042F60042C4F20102904203D12269F4
:1033A00021F440711143A26921F0800111430160B1
:1033B000E168C1626168816243F20041C4F20101C7
:1033C000884205D042F60041C4F20101884201D191
:1033D0006169016301214161002084F8461084F88D
:1033E0003E1084F83F1084F8401084F8411084F8AF
:1033F000421084F8431084F8441084F8451084F88F
:103400003D1010BD80B584B0016841F2000241F268
:103410001C00C4F20002C4F2020091421AD040F231
:103420000042C4F20002914224D0B1F1804F1CBF8F
:1034300004B080BD0168002241F00101016000215B
:10344000006800F00100039003981C20FFF7A8FB20
:103450001C201EE00168002241F0100101600021E3
:10346000006800F01000019001983620FFF798FBEB
:1034700036200EE00168002241F0020101600021C7
:10348000006800F00200029002981D20FFF788FB00
:103490001D2004B0BDE88040FFF772BB90F83D10DE
:1034A00001291CBF01207047022180F83D100068EF
:1034B000C16841F00101C16040F6FF31C4F2000172
:1034C00088420FDCB0F1804F1EBF40F20041C4F2D1
:1034D0000001884218D040F60001C4F20001884281
:1034E00012D018E040F60041C4F2000188421EBF2D
:1034F00043F20041C4F20101884205D042F6004186
:10350000C4F20101884206D1816801F00701062951
:1035100004BF00207047016841F0010101600020F4
:103520007047000090F83C300222012B00F0BF8071
:1035300080B5012380F83C3080F83D204FF677724B
:10354000D0F800C0DCF8083023EA0202CCF80820EA
:103550000B683F2B1BDD5F2B1FDD602B4DD0B3F5C0
:10356000005F69D0702B40F09A80D1E90123C968CF
:103570001A4342EA0121DCF8082022F47F42114379
:10358000CCF80810DCF8081041F0770185E01F2B1B
:1035900027DC53B3102B28D081E0402B5ED0502B7A
:1035A0007DD1D1F804E0C968DCF82030DCF82020B7
:1035B00022F00102CCF82020DCF8182022F0F002E2
:1035C00042EA0111CCF8181023F00A0141EA0E0179
:1035D000CCF82010DCF8081021F0770141F05701F9
:1035E0005BE0202B18BF302B59D1DCF8081021F0FC
:1035F0007701194341F007014FE04A68C968DCF8D8
:10360000203023F01003CCF82030DCF8183023F4FD
:10361000704343EA0131DCF82030CCF8181023F075
:10362000A00141EA0211CCF82010DCF8081021F0CA
:10363000770141F0670130E0D1E90123C9681A43FD
:1036400042EA0121DCF8082022F47F421143CCF841
:103650000810DCF8081041F480411EE0D1F804E0C5
:10366000C968DCF82030DCF8202022F00102CCF818
:103670002020DCF8182022F0F00242EA0111CCF8F8
:10368000181023F00A0141EA0E01CCF82010DCF8F2
:10369000081021F0770141F04701CCF80810012112
:1036A000002280F83D1080F83C20BDE88040D0B278
:1036B000704700002DE9F04F81B004460D46002C04
:1036C00002BF012001B0BDE8F08F94F83D0028B999
:1036D000002084F83C00204600F0B2F8022044F2BA
:1036E000070284F83D0020688168914340F6FF326C
:1036F0008160C4F200020168904220DCB0F1804F8A
:103700001EBF40F20043C4F20003984229D040F6A5
:103710000003C4F20003984223D0904227DCB0F1AA
:10372000804F1EBF40F20042C4F20002904230D0EF
:1037300040F60002C4F2000290422AD02DE040F68A
:103740000043C4F2000398421EBF43F20043C4F298
:103750000103984205D042F60043C4F201039842A7
:10376000DBD1A36821F0700119439042D7DD40F608
:103770000042C4F2000290421EBF43F20042C4F273
:103780000102904205D042F60042C4F2010290428A
:1037900003D1226921F440711143A26921F0800113
:1037A00011430160E168C1626168816243F20041D6
:1037B000C4F20101884205D042F60041C4F2010181
:1037C000884201D161690163012105F10C0A41615F
:1037D0008268D0F818E0036A009395E808099AE82F
:1037E0004006D5E9067C1A432B6A4BEA072782601C
:1037F0004FF6FF722EEA020232434FF6FC46B74301
:103800003A4342EA0C2242EA091242EA0332826156
:10381000009A22F0220242EA080242EA0A120262F6
:1038200084F8461084F83E1084F83F1084F8421063
:1038300084F8431084F83D10002001B0BDE8F08FFB
:10384000B0B586B0002142F6FF33C0250424CDE98F
:103850000411CDE9021141F21801C4F20103C0F2D2
:103860000075C4F20104026840F60000C4F20201CF
:10387000C4F201009A422DDC40F60003C4F20003BA
:103880009A425AD040F60043C4F200039A4240F0F4
:10389000A4804A6842F008024A604A6802F00802BE
:1038A0000192019A0A6842F004020A60096801F074
:1038B000040101910199032102910021CDE9031135
:1038C00002A9FEF7C7FC322000210022FFF768F9A9
:1038D00032205AE043F20043C4F201039A4258D026
:1038E00042F60043C4F201039A4276D10A6800F519
:1038F000805042F400620A600A6802F40062019299
:10390000019A0A6842F040020A60096801F0400129
:10391000019101994FF4206102910021CDE9031139
:1039200002A9FEF797FC20680021002228432060AE
:103930001B20FFF735F91B2027E04A6800F540609F
:1039400042F004024A604A6802F004020192019ABD
:103950000A6842F020020A60096801F02001019122
:1039600001994FF4405102910021CDE9031102A9C0
:10397000FEF770FC216805F5746000220843002101
:1039800020601E20FFF70CF91E20FFF7F9F806B0A3
:10399000B0BD0A6800F5006042F400520A600A688F
:1039A00002F400520192019A0A6842F010020A6081
:1039B000096801F0100101910199C02102910021D3
:1039C000CDE9031102A9FEF745FC2E2000210022BB
:1039D000FFF7E6F82E20FFF7D3F806B0B0BD0000E1
:1039E00010B590F83E4090F83F3090F842E090F8E3
:1039F00043C0012204290BD0A9B9012C08BFBEF194
:103A0000010F41D1022180F83E1080F842102CE0D5
:103A1000012B08BFBCF1010F36D1022180F83F1005
:103A200080F843101DE0012C08BF012B2CD1BEF102
:103A3000010F08BFBCF1010F26D10222002980F836
:103A40003E2080F83F2080F8422080F843200CD0B0
:103A500001680A6A22F001020A620A6A42F001025F
:103A60000A6210216FF0100202E001216FF00102E2
:103A70000068036A1A400262026A1143002201626E
:103A8000016841F001010160104610BD704700005F
:103A900010B504462068016911F0020F1CBFC1680F
:103AA00011F0020F15D06FF00201016101212177A1
:103AB000806910F0030F03D02046FFF7E7FF05E011
:103AC000204600F015F9204600F0E2FA00202077A9
:103AD0002068016911F0040F1CBFC16811F0040FC8
:103AE00015D06FF00401016102212177806910F483
:103AF000407F03D02046FFF7C9FF05E0204600F0D5
:103B0000F7F8204600F0C4FA002020772068016909
:103B100011F0080F1CBFC16811F0080F15D06FF02D
:103B20000801016104212177C06910F0030F03D05F
:103B30002046FFF7ABFF05E0204600F0D9F820460D
:103B400000F0A6FA002020772068016911F0100F1C
:103B50001CBFC16811F0100F15D06FF0100101618A
:103B600008212177C06910F4407F03D02046FFF779
:103B70008DFF05E0204600F0BBF8204600F088FAF3
:103B8000002020772068016911F0010F1CBFC16877
:103B900011F0010F06D06FF001010161204600F025
:103BA000EBFA2068016911F0800F1CBFC16811F0A9
:103BB000800F06D06FF0800101612046FFF73AFBCD
:103BC0002068016911F0400F1CBFC16811F0400F5F
:103BD00006D06FF040010161204600F0FDFA206838
:103BE000016911F0200F1CBFC16811F0200F00D136
:103BF00010BD6FF0200101612046BDE81040FFF7C5
:103C00001BBB000070B586B0002140F2004240F6B8
:103C10000004CDE90411CDE90211C4F20002C4F29E
:103C20000104016841F21800C4F20200914238D048
:103C3000B1F1804F5AD1016802AD022641F0040172
:103C40000160016801F0040101910199016841F0EE
:103C5000080101602946006800F008000190019801
:103C600048F20C000290204603960596FEF7F2FA01
:103C700008202946CDE9020604F580600596FEF786
:103C8000E9FA04204FF6FF42C4F20100CFF6FF022A
:103C90000168114041F0E06141F48071016006B0BB
:103CA00070BD016802AD022641F0040101600168A7
:103CB00001F0040101910199016841F008010160DE
:103CC0002946006800F0080001900198C020029089
:103CD000204603960596FEF7BDFA03202946CDE956
:103CE000020604F580600596FEF7B4FA06B070BDD2
:103CF0007047000090F83C30012B02BF0221C8B28F
:103D000070474FEAB2020123032A80F83C3000F2E8
:103D10001F812DE9F041DFE802F0024A94DE0368DA
:103D20001A6A22F001021A621A461D6AD3F804C008
:103D300052F818EF8C6825F002060D6844EA060771
:103D40002EF0730444EA050E43F20045C4F2010567
:103D5000AB4205D042F60044C4F20104A34206D1AE
:103D6000CE6827F00C0426F0040646EA0407AB42AE
:103D700005D042F60044C4F20104A34206D1D1E9C1
:103D800005462CF44075254345EA060CC3F804C0EB
:103D9000C3F818E04E685E631F629F6947F008072A
:103DA0009F619F6927F004079F610969CBE0036861
:103DB0001A6A22F010021A621A461F6AD3F804C067
:103DC00052F8184F0D688E6824F4E64427F0200757
:103DD00044EA052443F2004547EA061EC4F2010501
:103DE000AB4205D042F60046C4F20106B34208D108
:103DF000CE686FF04F0707EA06162EF0C00746EAB6
:103E0000070EAB4205D042F60045C4F20105AB42B5
:103E100007D1D1E905562CF4406747EA850747EA00
:103E2000860CC3F804C09C614F689F63C3F820E010
:103E30009F6947F400679F619F6927F480679F61CE
:103E40007FE003681A6A22F480721A621A461F6AB7
:103E5000D3F804C052F81C4F0D688E6824F0730428
:103E600027F400772C4343F2004547EA062EC4F2BC
:103E70000105AB4205D042F60046C4F20106B3424A
:103E800008D1CE6840F2FF473602BE432EF44067A9
:103E900046EA070EAB4205D042F60045C4F20105E2
:103EA000AB4207D1D1E905562CF4405747EA051734
:103EB00047EA061CC3F804C0DC614F68DF63C3F83F
:103EC00020E0DF6947F00807DF61DF6927F00407BA
:103ED000DF61096937E003681A6A22F480521A62C6
:103EE0001A461F6AD3F8048052F81C6F8C680D685C
:103EF00027F4005747EA043C43F2004426F4E6471F
:103F0000C4F2010447EA052EA34205D042F600445C
:103F1000C4F20104A34204D14C6928F4804545EA67
:103F20008418C3F80480C3F81CE04F681F64C3F80A
:103F300020C0DF6947F40067DF61DF6927F480672D
:103F4000DF6109690902136819431160BDE8F04196
:103F5000002180F83C10C8B27047000010B504463C
:103F6000002C04BF012010BD94F83D0028B90020AA
:103F700084F83C00204600F089F8022040F6FF3229
:103F800084F83D00C4F2000220680168904220DC01
:103F9000B0F1804F1EBF40F20043C4F200039842CC
:103FA00029D040F60003C4F20003984223D0904287
:103FB00027DCB0F1804F1EBF40F20042C4F2000285
:103FC000904230D040F60002C4F2000290422AD063
:103FD0002DE040F60043C4F2000398421EBF43F2B6
:103FE0000043C4F20103984205D042F60043C4F2F4
:103FF00001039842DBD1A36821F07001194390427C
:10400000D7DD40F60042C4F2000290421EBF43F2E8
:104010000042C4F20102904205D042F60042C4F2CE
:104020000102904203D1226921F440711143A26937
:1040300021F0800111430160E168C1626168816221
:1040400043F20041C4F20101884205D042F600412A
:10405000C4F20101884201D161690163012141611A
:10406000002084F8461084F83E1084F83F1084F84D
:10407000401084F8411084F8421084F8431084F80A
:10408000441084F8451084F83D1010BD70470000BE
:104090007047000039B10322082908BF0222042911
:1040A00008BF012200E00022024492F83E20012ACB
:1040B0001CBF01207047022241B1082909D0042900
:1040C00014BF80F8412080F83F2004E080F83E20B3
:1040D00001E080F84020006801F01F01012202FA8F
:1040E00001F1026A8A430262026A1143016240F6E8
:1040F000FF31C4F20001884217DD40F60042C4F2ED
:104100000002904220D043F2004CC4F2010C604502
:1041100005D042F60043C4F2010398421BD1436C20
:10412000884243F4004343641BDCB0F1804F1EBF60
:1041300040F20041C4F20001884205D040F600017F
:10414000C4F20001884206D1816801F00701062906
:1041500004BF00207047016841F0010101600020A8
:104160007047904218BF6045EED042F60041C4F25D
:1041700001018842E8D0EEE7006841F20001C4F294
:104180000001884218BF704780B5012001F076F920
:1041900040F29401C2F200010860042001F06EF9BF
:1041A00040F28C01C2F200010860052001F066F9BE
:1041B00040F29801C2F200010860082001F05EF9A7
:1041C00040F29001C2F200010860FDF787FDBDE8F2
:1041D0008040FCF79DBB0000704700007047000066
:1041E00070470000F0B581B0044622681068D168BD
:1041F000556900F02F0601F02003202E06D12BB1C7
:10420000204601B0BDE8F04001F0C2B95FEA007C91
:1042100008D005F0010E11F4907F8EF0010545D114
:10422000002D43D00840C106216B29D5012927D193
:10423000002000901068009050680090009850692D
:1042400010F0400F40F09E80A08DE18DE38D002B9B
:104250001EBF401A81B2002900F0EC80D06820F423
:104260009070D060506920F001005061202084F8E7
:104270003E0000202063D06820F01000D060A9E04C
:10428000010640F1AD8094F83D00212840F0D28035
:10429000A068B0F5805F04BF2069002800F0BC80F2
:1042A000206A411C216200785060BCE0C60706D03D
:1042B00011F480761EBF266C46F00106266400F0DD
:1042C0000407012686EA97072F4302BF276C47F0B1
:1042D0000207276400F0020786EA5706354302BF4B
:1042E000256C45F00405256453EA0E0318BF01232D
:1042F000BCF1000F05D5012B02BF236C43F008036E
:104300002364236C002B00F095800840800603D5C1
:10431000204601F03DF922685069216C00F0400010
:1043200001F00801084370D0D06820F49070D0608C
:10433000506920F001005061206B012802BFD06855
:1043400020F01000D060202084F83E000020206380
:10435000506910F0400F52D0506920F04000506179
:10436000A06B00284BD045F28551C0F60001416397
:10437000FDF7C8FE00285DD0A06B416B01B0BDE821
:10438000F0400847A06B01684B689EB2002E51D0E8
:10439000A18D8E424ED2E3858369202B17D0D16840
:1043A00021F48071D160516921F00101516151699D
:1043B00021F040015161202184F83E100021216349
:1043C000D16821F01001D160FDF77CFEA18DE08D58
:1043D000081A81B2204601B0BDE8F040FFF7FEBEEA
:1043E000400627D5D06820F04000D060202084F817
:1043F0003D00204601B0BDE8F04000F0CDB92046B8
:1044000001B0BDE8F040FFF7EBBE2046FFF7E8FE45
:104410000020206401B0F0BD206A30F8021B6FF369
:104420005F2151602062E08C4FF6FF710138084235
:10443000E08401D001B0F0BDD06820F08000D060F1
:10444000D06840F04000D06001B0F0BD10B5044627
:10445000002C04BF012010BD94F83D0028B90020B5
:1044600084F83C00204600F061F8242084F83D00E8
:104470002068C16821F40051C1600169E26821F43B
:104480004051114341F20C620161D4F808C0D4E9F3
:1044900004E3C16891434EEA0C021A431143C16020
:1044A0004169A26921F440711143416143F6000161
:1044B000C4F20101884202D0FEF78EFC01E0FEF753
:1044C0009FFC192148F21F5C4843D4E90012C5F251
:1044D000EB1C9200B0FBF2F0A0FB0C3252096FF023
:1044E000630302FB0300322303EB0010A0FB0C0369
:1044F000F02000EA531000EB0210C3F34312104304
:104500008860086920F490400861486920F02A001A
:104510004861C86840F40050C86000202021206431
:1045200084F83D1084F83E1010BD00002DE9F041E4
:1045300086B0002744F2004240F20808042641F207
:104540000044CDE90477CDE90277C4F20002C0F25D
:104550000078C4F20106C4F20104016841F21800B7
:10456000C4F2020091423DD044F60002C4F20002BF
:1045700091426BD043F60002C4F20102914240F036
:104580009A800168A4F5406402AD41F48041016065
:10459000016801F4804101910199016841F0040131
:1045A00001602946006800F00400019001984FF472
:1045B0000070029002200390032005902046FDF732
:1045C00049FE4FF48060294602900020CDE90300A7
:1045D0002046FDF73FFE252000210022FEF7E0FAED
:1045E00025202EE0416802AD41F400314160416870
:1045F00001F4003101910199016841F0200101604D
:104600002946006800F020000190019820200290C7
:1046100002200390032005902046FDF71BFE40205A
:104620002946CDE9020720460497FDF713FE3068BE
:104630000021002240EA080030602620FEF7B0FA90
:104640002620FEF79DFA06B0BDE8F081416802AD74
:1046500041F480214160416801F480210191019978
:10466000016841F0200101602946006800F0200047
:10467000019001984FF48070029002200390032073
:1046800005902046FDF7E6FD4FF4007029460290A4
:104690000020CDE903002046FDF7DCFD316808F17C
:1046A000280000220843002130602720FEF778FA16
:1046B0002720FEF765FA06B0BDE8F08190F83E309D
:1046C000202B09D100294FF0010318BF002A1ED06A
:1046D00090F83C30012B02D10223D8B2704700235E
:1046E0000363816222218285C285036480F83E10C3
:1046F00080F83C300068C16841F48071C160416954
:1047000041F001014161C16841F02001C160D8B2AE
:1047100070470000B0B5044644F200452068C4F27A
:10472000000505F58061884202D100F0E9FD2068AE
:10473000A84218BFB0BD40F284242120C2F2000478
:104740006070204600F002FA2046BDE8B04000F05C
:1047500065B8000090F83D30202B09D100294FF0BA
:10476000010318BF002A15D090F83C30012B02D16C
:104770000223D8B270470162002321218284C284BF
:10478000036480F83D1080F83C300068C16841F057
:104790008001C160D8B270477047000070B540F624
:1047A00000444FF4804100220025C4F20104204659
:1047B000FDF75AFE00F030FE00F0F4FD40F2601606
:1047C00020464FF480510022C2F20006C6E902558D
:1047D000C6E90455B561FDF747FEC6E90855C6E9C7
:1047E0000A553563356070BDFEE7000080B540F2C4
:1047F000A45040F250010122C2F20000C2F20001B6
:10480000FFF75CFF40F2842040F2B411C2F20000D6
:10481000C2F20001C06A086080BD00002DE9F04FBF
:1048200093B0044660782128C0F08C8104F18000A8
:104830004FF0000A4FF00B09129004F17C00119028
:1048400004F17800109004F174000F9004F150000E
:104850000E9004F14C000D9004F148000C9004F10E
:104860002C000B9004F128000A9004F12400099018
:1048700004F14400089004F14000079004F13C006A
:10488000069004F13800059004F13400049004F11E
:104890003000039004F16800029004F15800019088
:1048A00004F15400009000BF5FFA8AF0A27800FB88
:1048B0000941C978914240F0458100FB09F0211877
:1048C00008795138082800F23681DFE810F0090035
:1048D0003A006B009C003401B500CD0034010501A5
:1048E000D1F80570D1F8095040F24860C2F20000DA
:1048F000C0E9007538B2FBF7A2FE4FF06051FBF73C
:104900009DFC4FF08341FBF799FC03990860381434
:10491000FBF795FE4FF06051FBF790FC4FF08341A1
:10492000FBF78CFC0499086028B2FBF788FE4FF077
:104930006051FBF783FC4FF08341FBF77FFC059947
:10494000F8E0D1F80570D1F8095040F25860C2F291
:104950000000C0E9007538B2FBF771FE4FF06051FE
:10496000FBF76CFC0026C4F2FA463146FBF766FC06
:10497000069908603814FBF762FE4FF06051FBF7B0
:104980005DFC3146FBF75AFC0799086028B2FBF73B
:1049900056FE4FF06051FBF751FC3146FBF74EFCE1
:1049A0000899C7E0D1F80570D1F8095040F250607D
:1049B000C2F20000C0E9007538B2FBF740FE4FF0CC
:1049C0006051FBF73BFC0026C4F234363146FBF75E
:1049D00035FC099908603814FBF731FE4FF060513F
:1049E000FBF72CFC3146FBF729FC0A99086028B23A
:1049F000FBF725FE4FF06051FBF720FC3146FBF73B
:104A00001DFC0B9996E0D1F80550D1F8097040F2E1
:104A10006860C2F20000C0E9005728B2FBF70FFE41
:104A20000C9908602814FBF70AFE0D99086038B24B
:104A3000FBF705FE0E997DE0D1F80500D1F809706D
:104A400040F27061C2F20001C1E90007FBF7F7FD17
:104A5000009908603846FBF7F2FD0021C4F2C82136
:104A6000FBF71EFC019965E0D1F80500D1F80910AB
:104A700040F26062C2F20002C2E901014CF66B2012
:104A80001768C6F65F3087FB0001881500EBD17B05
:104A90003846FBF7D4FD49F28061C4F61831FBF7C4
:104AA000FFFBFBF718FE054649F280608846C0F21E
:104AB00098000BFB1070FBF7D0FD46F60023002298
:104AC000C4F2F803FBF7D1FC2A464346FBF726FC69
:104AD000FBF714FE02992DE0D1F80570D1F80950CA
:104AE00040F27860C2F20000C0E9007538B2FBF70E
:104AF000A6FD4FF06051FBF7A1FB0F990860381439
:104B0000FBF79DFD4FF06051FBF798FB1099086093
:104B100028B2FBF794FD4FF06051FBF78FFB119922
:104B200008602814FBF78BFD4FF06051FBF786FB04
:104B3000129900BF08600AF1010A5FFA8AF003289F
:104B4000FFF4B2AE13B0BDE8F08F000010B540F234
:104B5000500140F2802EC2F20001C2F2000E0B782A
:104B6000552B1CBF9EF80020012A3ED140F27C2C20
:104B70000122C2F2000C8EF80020DCF80040621C1A
:104B80000C446370513BCCF80020092B07D3022A58
:104B900005D100208EF80000CCF8000025E00B2A9B
:104BA00023D18B780022CCF800208EF800204A78A0
:104BB0004FF00B0CA3F15104E4B2092C38BF04FBF5
:104BC0000C00C2700371CA7842710A7982714A7905
:104BD000C2718A790272CA7942720A7A82724A7AF8
:104BE000C2728A7A0273C97A417340F2A45040F2C9
:104BF00050010122C2F20000C2F20001BDE81040E3
:104C0000FFF75CBD002840F2F8304FF09B01C2F284
:104C1000000008BF6E210068416381637047000097
:104C20002DE9F04F85B041F218004FF0000940F631
:104C3000004600224FF4604ACDF81090C4F2020002
:104C4000C4F20106016806F5406441F040010160CC
:104C5000016801F0400100910099016841F01001E4
:104C60000160016801F0100100910099016841F0B4
:104C700004010160016801F00401009100990168DC
:104C800041F008010160016801F0080100910099FC
:104C9000016841F020010160016801F020010091EC
:104CA0000099016841F4807101604FF4604100682F
:104CB00000F48070009000982046FDF7D5FB304648
:104CC0004FF4A8410022FDF7CFFB06F50065072150
:104CD00000222846FDF7C8FB06F5A0584FF4A04176
:104CE00000224046FDF7C0FB0C2001AF4FF0010B46
:104CF000CDE9010920463946CDF80CB0FDF7AAFAF6
:104D0000CDE901AB4FF0020A20463946CDF80C90B0
:104D1000CDF810A0FDF79EFA4FF480603946CDE93A
:104D2000010B3046CDE9039AFDF794FA4FF4006089
:104D300001A981E8010A30463946FDF78BFA4FF4A4
:104D4000A04430463946CDE9014BCDE9039BFDF740
:104D500081FA4FF4204001A981E801063046394626
:104D6000FDF778FA4FF4806001A981E8010A28462E
:104D70003946FDF76FFA07203946CDE9010B284681
:104D8000CDE9039AFDF766FA40463946CDE9014B75
:104D9000CDE9039AFDF75EFA05B0BDE8F08F00009B
:104DA00080B540F2143045F200414FF48042C2F227
:104DB0000000C4F20001016048F2A061C0F20101EC
:104DC00041600021C0E902110162C0E90611C0E999
:104DD0000421FDF755FB00281CBFBDE88040FDF70E
:104DE000C3B880BD10B58CB040F2683042F60041C7
:104DF00000244FF6FF72C2F20000C4F20101CDE9B7
:104E00000044C0E900140321C0E90242C0E904449F
:104E10008461CDE903140121CDE90514CDE90744EE
:104E2000CDE9091403A90B94FEF744FC002818BF30
:104E3000FDF79AF840F268306946CDE90044C2F2C5
:104E40000000FEF7FBF9002818BFFDF78DF80CB045
:104E500010BD000010B58EB040F2B03000214FF010
:104E6000804240F2671340F2CF74C2F200000D910D
:104E7000CDE90B11CDE90911CDE90711CDE90511F6
:104E8000CDE90311CDE90111C0E90023C0E9021405
:104E900001618161FEF71EFA002818BFFDF764F872
:104EA0004FF480500AA90A9040F2B030C2F20000DC
:104EB000FEF738FB002818BFFDF756F840F2B03077
:104EC000C2F20000FFF74AF8002818BFFDF74CF8BF
:104ED00040F2B030002408A9C2F20000CDE9084435
:104EE000FEF7ACF9002818BFFDF73EF8602001A9D5
:104EF0000022CDE9010440F2B03003940594C2F2DF
:104F00000000FEF7F7FE002818BFFDF72DF840F26D
:104F1000B03001A90422C2F20000FEF7EBFE002827
:104F200018BFFDF721F840F2B03001A90822C2F203
:104F30000000FEF7DFFE002818BFFDF715F840F26D
:104F4000B03001A90C22C2F20000FEF7D3FE002807
:104F500018BFFDF709F840F2B030C2F20000FEF7CA
:104F600051FE0EB010BD000010B58EB040F2F8300A
:104F700040F20042002140F2CF2340F2CF74C2F24F
:104F80000000C4F200020D91CDE90B11CDE9091129
:104F9000CDE90711CDE90511CDE90311CDE90111E5
:104FA000C0E90023C0E9021401618161FEF792F9B2
:104FB000002818BFFCF7D8FF4FF480500AA90A90C8
:104FC00040F2F830C2F20000FEF7ACFA002818BF39
:104FD000FCF7CAFF40F2F830C2F20000FEF7BEFF55
:104FE000002818BFFCF7C0FF40F2F830002408A9E1
:104FF000C2F20000CDE90844FEF720F9002818BFEE
:10500000FCF7B2FF602001A90022CDE9010440F2C3
:10501000F83003940594C2F20000FEF76BFE0028FE
:1050200018BFFCF7A1FF40F2F83001A90422C2F238
:105030000000FEF75FFE002818BFFCF795FF40F266
:10504000F83001A90822C2F20000FEF753FE002842
:1050500018BFFCF789FF40F2F83001A90C22C2F218
:105060000000FEF747FE002818BFFCF77DFF40F266
:10507000F830C2F20000FEF7C5FD0EB010BD000012
:1050800010B58CB040F2404040F6000100244FF6CD
:10509000FF72C2F20000C4F20001CDE90044C0E991
:1050A00000140321C0E9024204618461CDE90314C4
:1050B0000121CDE90514CDE90744CDE9091403A97F
:1050C0000B94FEF7F7FA002818BFFCF74DFF40F2EB
:1050D00040406946CDE90044C2F20000FEF7AEF858
:1050E000002818BFFCF740FF0CB010BD10B58CB005
:1050F00040F2884040F6004100244FF6FF72C2F2B1
:105100000000C4F20001CDE90044C0E9001403210D
:10511000C0E9024204618461CDE903140121CDE9B3
:105120000514CDE90744CDE9091403A90B94FEF752
:10513000C1FA002818BFFCF717FF40F28840694603
:10514000CDE90044C2F20000FEF778F8002818BF4D
:10515000FCF70AFF0CB010BD10B582B040F2D04091
:1051600041F20001002440F2CF2240F2E733C2F2C4
:105170000000C4F20001CDE9004480E81600C360DD
:105180008461FEF7A7F8002818BFFCF7EDFE40F297
:10519000D0406946CDE90044C2F20000FEF74EF867
:1051A000002818BFFCF7E0FE02B010BD10B58CB0AF
:1051B00040F2185043F2004100244FF6FF72C2F251
:1051C0000000C4F20101CDE90044C0E9001403214C
:1051D000C0E90242C0E904448461CDE9031401211D
:1051E000CDE90514CDE90744CDE9091403A90B94D1
:1051F000FEF760FA002818BFFCF7B6FE40F2185020
:105200006946CDE90044C2F20000FEF717F8002815
:1052100018BFFCF7A9FE0CB010BD000080B540F22D
:10522000605043F600014FF4165200234FF00C0C6F
:10523000C2F20000C4F2010180E80E00C0E90333AD
:10524000C0E905C3C361FFF701F900281CBFBDE831
:105250008040FCF789BE80BD80B540F2A45044F286
:1052600000414FF4E13200234FF00C0CC2F2000079
:10527000C4F2000180E80E00C0E90333C0E905C3B1
:10528000C361FFF7E3F800281CBFBDE88040FCF7CE
:105290006BBE80BD80B540F2E85044F600014FF48B
:1052A000E13200234FF00C0CC2F20000C4F2000106
:1052B00080E80E00C0E90333C0E905C3C361FFF70E
:1052C000C5F800281CBFBDE88040FCF74DBE80BD7E
:1052D000FEE700007047000040F22011002001228C
:1052E000C2F200014860C1E90500C1E90700C1E957
:1052F0000900C86240F2E850C2F20000FFF7DEB9D0
:1053000080B540F2201140F20C3EC2F20001C2F220
:10531000000E086812281CBF9EF80020012A33D115
:1053200040F2083C0122C2F2000C8EF80020DCF8AA
:105330000020531C01EB8202032BCCF8003090605C
:1053400022D1CB680B62012B0A694A6203D0022B7F
:1053500003D1012000E002208862012A03D0022A42
:1053600004D1012000E00220C86200E0C86A1A44AB
:105370008B6A1A441044062804BF012048610020AB
:10538000CCF800008EF8000040F2E85040F2201106
:105390000122C2F20000C2F20001BDE88040FFF726
:1053A0008DB9000010B584B04FF07E500090FDF72D
:1053B00061F840F69834019042F20041C2F20004D4
:1053C000C4F674112068FAF739FFFBF770F9029000
:1053D0000020039003980299884206D00398013078
:1053E0000390039802998842F8D1FDF743F803909F
:1053F00003980199401AFBF72BF901460020C4F2EB
:105400007A40FAF74DFF009000982168FAF716FFEE
:10541000206004B010BD000080B584B00020019071
:10542000FDF728F8013040F208010390C2F20001B4
:1054300003980130029000BF0868039A9042FBD1A4
:105440000A68029B01989A4207D000BF0130019080
:105450000A68029B01989A42F8D1FBF7F9F80021FB
:10546000C4F27A41FAF71CFF40F69831C2F200010B
:10547000086004B080BD000070470000421E00209C
:10548000072A88BF704740F62401C4F20001DFE814
:1054900002F0043A3A121D3A3A2A4FF4923040F29E
:1054A00050120858C2F2000201F59231136800B29E
:1054B0000344136025E040F250120868C2F2000273
:1054C000536800B21B1A404253601AE040F2501277
:1054D000D1F8000401F58061C2F20002936800B2C5
:1054E000034493600DE04FF4963040F25012085898
:1054F000C2F2000201F59631D36800B21B1A404295
:10550000D36000220A607047002840F2F8304FF064
:105510004B01C2F2000008BF78210068C16301643A
:105520007047000070470000FDF7C8BA70470000E0
:1055300040F26830C2F20000FEF7AABA40F2B03082
:10554000C2F20000FEF7A4BA40F2F830C2F2000046
:10555000FEF79EBA40F24040C2F20000FEF798BA51
:1055600040F28840C2F20000FEF792BA40F2D0400A
:10557000C2F20000FEF78CBA40F21850C2F20000EE
:10558000FEF786BA406A0021C185C184FEF728BEB5
:1055900090F83E10222918BF70478368B3F5805FEA
:1055A00006D1026900F12801A2B1D1F800C008E0DB
:1055B0000146002B51F828CF01D103690BB17F239D
:1055C00000E0FF23026852681A4001238CF8002093
:1055D0000A6806E00368826A5B686FF35F231380E2
:1055E00002231A440A604FF6FF72C18D013911423D
:1055F000C18500D070470168CA6822F02002CA60E5
:10560000CA6822F48072CA604A6922F001024A61C3
:10561000202280F83E20026B012A18BFFFF77AB8DB
:1056200000220263CB6823F01003CB600B6813F0F9
:10563000100F07D081B000920A680092496800916B
:10564000009901B0818DFEF7C9BD000040F26050A5
:10565000C2F20000FEF7C6BD40F2A450C2F2000044
:10566000FEF7C0BD40F2E850C2F20000FEF7BABD3E
:10567000FEE7000010B504462121E01CFAF77BFD8F
:105680005520A0700020208010BD00002DE9F04FB3
:1056900081B040F2842A884640F2A01181461D461E
:1056A000C2F20001C2F2000ADAF82C004969FAF7E6
:1056B000BFFD044640F2103048F20001C2F2000083
:1056C000C4F2323106683046FAF73EFF60B9204630
:1056D0000021FAF747FF38B900212046C4F2B4315F
:1056E000FAF754FD06461FE03046FAF7F4FF4EF293
:1056F000543245F6C443C9F6A532CCF26603FAF734
:1057000068FF002107462046CCF2B431FAF73EFD8F
:105710000646002F20464FF0000108BF2646FAF744
:105720002FFF002808BF264640F2800041F6000BFC
:10573000C2F20000C4F2010B0068FAF780FF40F2E9
:10574000F0073246C2F20007394600F04FFB04462C
:10575000FAF775FFDAF83820394600F015FB40F209
:10576000840140F2600AC2F20001C2F2000A0C6039
:1057700040F28801C2F20001086040F21031C2F22A
:1057800000010E60A9EB080140F26C0600FB151247
:10579000C2F20006CAF8002008EB090240F26808CD
:1057A00000FB1523C2F20008C8F8003000FB0523F7
:1057B00000FB051040F2640240F2B401306040F298
:1057C0008C00C2F20002C2F20001C2F200001360BB
:1057D0000268184600F036FA40F27405ABF58064B2
:1057E0000028C2F20005286011DB204602210022B9
:1057F000FCF73AFE204601210122FCF735FE28681D
:10580000B0F5FA6FC4BF4FF4FA60286014E0204688
:1058100002210122FCF728FE204601210022FCF78C
:1058200023FE28686FF4FA618842DEBF4FF630002D
:10583000CFF6FF702860404240F2B035C2F200055A
:105840002968486340F2900040F2DC01C2F2000097
:10585000C2F200010268306800F060FA40F27C0693
:105860000028C2F2000630601ADB0BF500644FF42A
:10587000805100222046FCF7F7FD20464FF480417E
:105880000122FCF7F1FD3068B0F5FA6F03DD4FF44B
:10589000FA6030601DE02968B0F1FF3F88631ADCD0
:1058A0000BF500644FF4805101222046FCF7DCFD2B
:1058B00020464FF480410022FCF7D6FD30686FF49B
:1058C000FA618842DEBF4FF63000CFF6FF703060DD
:1058D00040422968886340F2940040F2A001C2F27D
:1058E0000000C2F200010268DAF8000000F074F96A
:1058F00040F270040028C2F20004206014DBABF513
:1059000040604FF480610122FCF7AEFD58464FF431
:1059100080410022FCF7A8FD2068B0F5FA6FC4BFF3
:105920004FF4FA60206017E0ABF540604FF48061FF
:105930000022FCF799FD58464FF480410122FCF704
:1059400093FD20686FF4FA618842DEBF4FF63000A5
:10595000CFF6FF70206040422968C86340F298008B
:1059600040F2C801C2F20000C2F200010268D8F899
:10597000000000F09DF940F278040028C2F2000413
:1059800020601BDB58464FF400510122FCF76CFDF0
:1059900058464FF400410022FCF766FD2068B0F540
:1059A000FA6F03DB4FF4FA6020601DE02968B0F164
:1059B000FF3F086402DD01B0BDE8F08F58464FF4A8
:1059C00000510022FCF750FD58464FF400410122DF
:1059D000FCF74AFD206810F5FA6FDEBF4FF6300085
:1059E000CFF6FF70206040422968086401B0BDE82E
:1059F000F08F0000B0B590B0FDF76AF800240120E8
:105A00004FF480310225CDE90B44CDE909440690DD
:105A1000CDE907140A904FF4E010CDE90D510F9035
:105A200006A8FDF701FA0F200221CDE901054FF488
:105A300080600394CDE9040401A8FDF7F3F8FFF7B3
:105A4000EFF8FFF7EBFBFFF7CDF9FFF703FAFFF7EE
:105A50008BFAFFF715FBFFF749FBFFF7A7FBFFF7F3
:105A60009FF9FFF7F9FBFFF715FCFFF775FB40F215
:105A700068303C21C2F20000FDF7B2FF40F2404026
:105A80003C21C2F20000FDF7ABFF40F288403C2110
:105A9000C2F20000FDF7A4FF40F218503C21C2F210
:105AA0000000FDF79DFF40F2B0340021C2F2000477
:105AB0002046FEF7EFFA20460421FEF7EBFA2046D7
:105AC0000821FEF7E7FA20460C21FEF7E3FA40F240
:105AD000D040C2F20000FDF7E1FC00F045F800F014
