:020000040800F2
:1000000008070020010100081D220008D71C000875
:1000100089210008B10800087927000800000000C5
:100020000000000000000000000000008122000825
:10003000B3080008000000001F2200080123000888
:100040001B0100081B0100081B0100081B01000820
:100050001B0100081B0100081B0100081B01000810
:100060001B0100081B0100081B0100081B01000800
:100070001B0100081B0100081B0100081B010008F0
:100080001B0100081B0100081B0100081B010008E0
:100090001B0100081B0100081B0100081B010008D0
:1000A0001B0100081B0100081B0100081B010008C0
:1000B000552300081B010008000000001B01000878
:1000C0001B01000800000000000000001B010008E8
:1000D000000000006D2700081B0100080000000060
:1000E0001B0100081B0100081B010008DFF80CD0F1
:1000F00000F0CCFB00480047D52700080807002087
:100100000648804706480047FEE7FEE7FEE7FEE7B1
:10011000FEE7FEE7FEE7FEE7FEE7FEE75323000803
:10012000ED000008202A04DB203A21FA02F0002129
:10013000704721FA02F3D040C2F1200291400843F7
:1001400019467047D2B201E000F8012B491EFBD2DC
:1001500070470022F6E710B513460A4604461946D2
:10016000FFF7F0FF204610BDF0B480EA0102D40F83
:100170004200B2EB410F02D20246084611464A0045
:1001800042D0C30DDDB2C1F3C752AD1A202D35DA0E
:10019000C1F3160141F4000204B15242C5F1200638
:1001A00002FA06F12A411044B3EBD05F23D0C4B168
:1001B000012DA0EBC35009DCF0BC4FF0004202EA75
:1001C000C352DBB200F5000000F0D5BA400000F1E8
:1001D000807000EBC350A0F1807040EAD1704900FC
:1001E00009E0490841EAC071A0EBC35000F50000E6
:1001F000400800EBC350F0BC00F0B4BA61420122E9
:1002000002EB4101001BF6E7F0BC704781F00041B2
:10021000AAE780F00040A7E780EA010210B502F0EB
:100220000043400022D04A001FD0010E01EB1261B2
:10023000C0F35600C2F3560240F4000042F400023C
:10024000A0FB022000047F39140400D0401C50EAB7
:10025000124001D44000491EC2B20C0604EBD0107B
:10026000401C4008802A02D003E0002010BD20F08E
:100270000100002900DA0020184310BD30B480EAE4
:10028000010202F0004530F0004221F0004013D09E
:1002900090B1C30DD40DC2F31601C0F31600E41AD9
:1002A00041F4000140F400027D34914201D3641C0A
:1002B00000E04900002C02DA30BC002070474FF407
:1002C00000000023914201D3891A034340084FEAFA
:1002D0004101F7D151B1914202D14FF0004105E007
:1002E00002D24FF0010101E06FF0010103EBC450B5
:1002F000284430BC00F036BA420005D0C0F3C752E3
:100300005242914201DC0020704700EBC15070471F
:100310002DE9FE4F804681EA0300C00F0C46009095
:1003200021F0004123F00045B8EB0200A94105D2BD
:100330004046214690461C460B46024623F00040AC
:10034000104347D0270DC7F30A00C3F30A510290A8
:10035000401A019040286BDAC3F3130040F4801B6D
:100360000098924620B10023D2EB030A63EB0B0BFB
:1003700001985946C0F14002504600F0D2F90646B5
:100380000D4650465946019A00F0DAF910EB080084
:100390006141002487EA115284EAE7731A4340D08E
:1003A000009A62B3019A012A4FEA075215DC001B3A
:1003B00061EB02014FF0004202EA0752CDE9004230
:1003C000001C41F5801132462B4600F011FA03B0B3
:1003D000BDE8F08F40462146F9E7001B61EB0201C2
:1003E000001C41F5801300185B412018A2F500178E
:1003F00047EB030140EAD570B6196D4111E06D0875
:100400004FEA360645EAC0754FEA0752001B61EB1A
:100410000201001C41F5801149084FEA3000001923
:10042000514132462B4603B0BDE8F04F00F0D1B940
:100430000098012240000023D0EB020263EBE0733E
:10044000009821464FEAE074B8EB000061EB04012C
:10045000E9E783F000435BE781F0004158E72DE9CD
:10046000FE4F81EA030404F0004421F000410094AF
:100470004FF0000B23F0004350EA01045ED052EA33
:1004800003045BD0C3F30A54C1F30A552C44A4F20D
:10049000F3340194A0FB0254C1F3130141F4801121
:1004A000C3F3130343F4801301FB024400FB034E28
:1004B000840A970A44EA815447EA8357A4FB0768F1
:1004C00002958D0A05FB07854FEA932C04FB0C541B
:1004D0002705029D4FEA065847EA1637B5EB08058F
:1004E0006EEB070C870E920E47EA811742EA8312E1
:1004F000A7FB0201B6EB0B0164EB00042B0D43EAF2
:100500000C335E1844EB1C50DA465146E7FB0201FF
:10051000C5F313044FEA0B3343EA14534FEA043292
:10052000019C43EA0603A4F10C040294009CCDE96B
:1005300000B400F05DF903B0BDE8F08F0020014683
:10054000F9E72DE9F04D81EA030404F0004B21F0B6
:10055000004514464FF0000A23F0004150EA05021E
:1005600020D054EA01021DD0C5F30A570246C5F354
:100570001303C1F31300C1F30A5640F4801543F48A
:100580008013A7EB0608101BD64608F2FD3873EB64
:10059000050002D308F1010801E092185B41B8F1AF
:1005A000000F03DA00200146BDE8F08D00204FF473
:1005B0008011064684460EE0171B73EB050705D332
:1005C000121B63EB050306434CEA010C49084FEA92
:1005D000300092185B4150EA0107EDD152EA030066
:1005E00012D082EA040083EA0501084305D0101BFB
:1005F000AB4106D20122002306E000224FF0004367
:1006000002E06FF0010253101AEB06004CEB0851A8
:1006100010EB0A0041EB0B01BDE8F04D00F0D9B83A
:10062000C10F80EAE0700844CA079623002100F059
:10063000A2B80EB5C10F80EAE0700844CA070021D5
:1006400040F233438DE80E000A460B4600F0D0F826
:1006500003B000BD00F0004220F00040C10DC0F327
:10066000160040F400007F2901DA00207047962927
:1006700003DCC1F19601C84001E096398840002AA8
:10068000F4D04042704770B5C1F30A5201F0004502
:100690000024C1F3130140F2FF3341F480119A4268
:1006A00001DA002070BD40F233439A42A2F2334295
:1006B00003DC5242FFF736FD00E090402C43F1D0BE
:1006C000404270BD00F0004230F000400AD0C10D41
:1006D00001F56071C0F3160042EA0151C2084007FB
:1006E0001143704700200146704701F0004330B4C9
:1006F00021F0004150EA010206D00A0DA2F5607215
:10070000C1F31301002A02DC30BC00207047440F03
:1007100044EAC104C100E01830BC00EBC25000F054
:1007200021B8202A04DB203A00FA02F100207047A9
:100730009140C2F1200320FA03F31943904070471F
:10074000202A06DBCB17203A41FA02F043EAE07395
:1007500006E041FA02F3D040C2F120029140084382
:10076000194670470029A8BF7047401C490008BFC0
:1007700020F00100704710B4B0FA80FC00FA0CF0D1
:1007800050EA010404BF10BC704749B1CCF1200409
:1007900021FA04F411FA0CF118BF01212143084396
:1007A000A3EB0C01CB1D4FEA00614FEA102042BFC2
:1007B000002010BC704700EBC35010440029A4BFB8
:1007C00010BC7047401C490008BF20F0010010BC5D
:1007D000704710B5141E73F1000408DA401C41F193
:1007E000000192185B411A4301D120F0010010BDB5
:1007F0002DE9F04D92469B4611B1B1FA81F202E02B
:10080000B0FA80F220329046FFF78BFF04460F4685
:1008100040EA0A0041EA0B0153465A46084313D006
:10082000114653EA010019D0C8F140025046FFF7C3
:1008300079FC05460E46504659464246FFF771FF81
:10084000084305D0012004E020463946BDE8F08D7C
:100850000020054346EAE0762C4337430A986305B7
:10086000E40AA0EB08000022FD0A44EA47540A30DB
:1008700002D500200146E9E7010510196941DDE9CB
:10088000084500196941BDE8F04DA2E7064C074D47
:1008900006E0E06840F0010394E807009847103450
:1008A000AC42F6D3FFF726FC54290008742900084F
:1008B000FEE7704704480021016041608160C1602B
:1008C000016164210162704738000020704710B553
:1008D00090F821100022022905D00421816380F8BC
:1008E0002020012010BD01680B6823F00E030B606F
:1008F00001680B6823F001030B6090F84030C46B73
:10090000012101FA03F3636080F8211080F82020B0
:10091000104610BD10B590F821100024022903D014
:100920000421816301243DE001680A6822F00E027F
:100930000A6001680A6822F001020A601A4A016826
:10094000914201D1012121E0174A1432914201D193
:1009500010211BE0144A2832914201D1891515E07B
:10096000114A3C32914201D189140FE00E4A5032B3
:10097000914202D14FF4803108E00B4A6432914237
:1009800002D14FF4801101E04FF08071064A083A1D
:100990005160012180F82110002180F82010416B66
:1009A00001B18847204610BD080002402DE9F84FEC
:1009B000DFF89C91002409F1040A0AF1040B234694
:1009C0000F270BF1040EBBE00125A5402A40AA42E7
:1009D00076D1DFF880C14E68A6EB0C0866452BD0B7
:1009E0000DDC032E34D005DC36B3012E19D0022ED7
:1009F0002FD11BE0112E16D0122E2AD119E0B8F5F6
:100A0000881F19D006DCB8F5803F15D0B8F5801FD7
:100A10001FD111E0B8F5001F0ED0B8F5041F18D192
:100A20000AE0CB6815E0CB681B1D12E0CB680833E9
:100A30000FE0CB680C330CE08B682BB1012B4FF02F
:100A4000080303D0456104E0042302E0056100E0EF
:100A50000023FF2A01D8064601E000F104064FEA10
:100A6000840501D9A5F12005D6F8008007FA05FC18
:100A700028EA0C0803FA05F548EA0508C6F80080DC
:100A80004D68ED005BD5344DAE6946F00106AE61B0
:100A9000AD6924F0030605F0010500952F4D06EB26
:100AA000050CDCF80850A607360F07FA06F825EA09
:100AB0000805DFF8AC80404503D14FF0000810E096
:100AC0003DE0DFF8A080404502D14FF0010808E08A
:100AD000DFF89480404502D14FF0020801E04FF06A
:100AE000030808FA06F848EA0508CCF808804D68BB
:100AF000D9F80060ED034D4601D5164300E096435A
:100B00002E604D68DAF80060AD03554601D51643F6
:100B100000E096432E604D68DBF80060ED025D4614
:100B200001D5164300E096432E604D68DEF8006064
:100B3000AD02754601D5164300E096432E60641C55
:100B40000A6832FA04F57FF43FAFBDE8F88F000081
:100B5000000401400000111000100240000001409C
:100B600000080140000C0140001001400AB1016181
:100B700070470904FBE700000148806870470000E7
:100B80006400002002488168027811448160704747
:100B900064000020074810B5016841F010010160B1
:100BA000032000F075F8002000F006F800F024F8AB
:100BB000002010BD0020024070B50D4D04464FF4DA
:100BC0007A712878B1FBF0F00A490968B1FBF0F0BE
:100BD00000F0ECFA48B9102C07D200222146501E32
:100BE00000F036F800206C6070BD012070BD000080
:100BF00064000020700000200C4808B5816941F0B5
:100C000001018161816901F001010091C16941F037
:100C10008051C161C06900F0805000900448416873
:100C200021F0E06141F00071416008BD0010024018
:100C300000000140002809DB00F01F020121914063
:100C40004009800000F1E020C0F80011704700006A
:100C5000F0B40E4B1B680C46C3F30223C3F1070527
:100C6000042D00D90425191D072901D2002300E015
:100C7000DB1E012606FA05F1491E214099409E40DF
:100C8000761E16403143F0BC01F085BD0CED00E04E
:100C9000064900F0070208684FF6FF03184040EAD3
:100CA0000220034A10430860704700000CED00E08A
:100CB0000000FA052DE9F0470F46050061D0434ECC
:100CC000306800F00700B84209D2306820F0070011
:100CD00038433060306800F00700B84251D12868CE
:100CE0003B4C810712D5400703D5606840F4E060B3
:100CF00060602878000703D5606840F46050606049
:100D00006068A96820F0F000084360602878C00798
:100D100028D06868012810D02168022810D08907DF
:100D200000292EDA616821F0030101436160FFF7B9
:100D300023FF804641F288390DE021688903EFE7FF
:100D40008901EDE7FFF718FFA0EB0801494502D93B
:100D50000320BDE8F0876068696800F00C00B0EB24
:100D6000810FEFD1306800F00700B8420BD930682E
:100D700020F0070038433060306800F00700B842C8
:100D800001D00120E5E72878400705D56068E968CB
:100D900020F4E060084360602878000706D56068AA
:100DA000296920F4605040EAC100606000F038F822
:100DB0006168084AC1F30311515CC84006490860E4
:100DC00006480068FFF7F8FE0020C2E70020024056
:100DD000001002403C29000870000020680000203C
:100DE0000448054900684968044AC1F30221515C7E
:100DF000C840704770000020001002404C290008D5
:100E00000448054900684968044AC1F3C221515C9D
:100E1000C840704770000020001002404C290008B4
:100E200012A185B00FC98DE80F0014A0144A006804
:100E300004905168134801F00C03042B10D0082BC8
:100E40000ED1C1F38343C9031DF803000AD55168CD
:100E500004AAC1F34041515C0A4A5043B0FBF1F08F
:100E600005B0704708494843FAE70000020304054B
:100E7000060708090A0B0C0D0E0F101001020000E6
:100E80000010024000127A0000093D002DE9F84FE1
:100E9000040070D02078C04DC00749D06868C0F306
:100EA0008100012807D06868C0F38100022809D1B9
:100EB0006868C00306D52868800339D560680028B3
:100EC000E7D035E06068B0F5803F0BD010B1B0F5E9
:100ED000A02F11D0286820F480302860286820F4E2
:100EE000802002E0286840F480302860606890B17B
:100EF000FFF742FE06460AE0286840F4802028609A
:100F0000F0E700BFFFF738FE801B642873D828681D
:100F10008003F7D50CE0FFF72FFE064605E000BF83
:100F2000FFF72AFE801B6428F0D828688003F7D4D6
:100F300020789A4E80074FF001094FF0000839D50C
:100F4000686810F00C0F07D06868C0F381000228B1
:100F500009D16868C00306D42868800714D52069C1
:100F6000012808D110E02069B0B1C6F80090FFF761
:100F700003FE074605E00AE1FFF7FEFDC01B02285D
:100F8000C4D828688007F7D52868616920F0F80080
:100F900040EAC10028600DE0C6F80080FFF7ECFDD4
:100FA000074604E0FFF7E8FDC01B022823D82868A5
:100FB0008007F7D4207800072CD57948A169D9B1EA
:100FC000C0F80090FFF7D8FD074604E0FFF7D4FD16
:100FD000C01B02280FD8686A8007F7D571484FF404
:100FE000FA510068B0FBF1F0009000BF0098411E7C
:100FF0000091FAD20EE080E0C0F80080FFF7BCFD5F
:10100000074604E0FFF7B8FDC01B022875D8686AE0
:101010008007F7D42078400760D5E8690027C00032
:1010200008D4E86940F08050E861E869012700F0E1
:10103000805000905C480168C90513D4016883465C
:1010400041F480710160FFF797FD824606E000BF22
:10105000FFF792FDA0EB0A0064284ED8DBF80000F1
:10106000C005F5D5E06801280AD008B1052813D0DD
:10107000286A20F001002862286A20F0040002E0BB
:10108000286A40F001002862E06841F2883B98B18C
:10109000FFF772FD82460BE0286A40F004002862E8
:1010A000EEE700BFFFF768FDA0EB0A0159455AD8EB
:1010B000286A8007F6D50CE0FFF75EFD824605E062
:1010C000FFF75AFDA0EB0A0159454CD8286A800762
:1010D000F6D41FB1E86920F08050E861E06988B378
:1010E0006968C1F38101022944D00228C6F86080F2
:1010F00004D0FFF741FD044638E034E0FFF73CFD43
:10110000074604E0FFF738FDC01B02282BD82868EB
:101110008001F7D4206AB0F5803F05D16868A168E6
:1011200020F4003008436860D4E908010843696886
:1011300021F4741108436860C6F86090FFF71CFD45
:10114000044606E025E000BFFFF716FD001B02285D
:1011500009D828688001F7D51BE000BFFFF70CFD18
:10116000001B022802D90320BDE8F88F28688001FF
:10117000F4D40EE00128F7D06868226A00F48031C8
:10118000914204D1616A00F47010884201D00120BC
:10119000EAE70020E8E700000010024000004242B9
:1011A00080044242700000200070004010B5401ED4
:1011B000B0F1807F01D3012010BD4FF0E0246061C9
:1011C0000F21601701F0E7FA0020A06107202061DD
:1011D000002010BD7047704770B590F83C20012A80
:1011E00023D0012480F83C40022280F83D2003688F
:1011F0005A689D6822F070060A6832435A600C4BA8
:1012000002689A4205D0B2F1804F02D0094B9A424F
:1012100004D1496825F080031943916080F83D406E
:10122000002180F83C10084670BD022070BD00000F
:10123000002C01400004004010B5040003D094F8D5
:101240003D0010B107E0012010BD002084F83C00F3
:10125000204600F01FF8022084F83D00211D206880
:1012600001F07EF8012084F8460084F83E0084F8FE
:101270003F0084F8400084F8410084F8420084F87C
:10128000430084F8440084F8450084F83D000020C1
:1012900010BD000008B50068B0F1804F12D10A48B7
:1012A000C16941F00101C161C069002200F0010083
:1012B000009011461C20FFF7CBFCBDE808401C2025
:1012C000FFF7B8BC08BD00000010024090F83D10C8
:1012D000012901D001207047022180F83D100168EA
:1012E000CA6842F00102CA6000680A49884205D013
:1012F000B0F1804F02D00849884204D1816801F0E2
:101300000701062903D0016841F0010101600020B6
:1013100070470000002C01400004004070B50446F6
:1013200090F83C00012817D0012584F83C50022099
:1013300084F83D002068826822F0770222F47F4220
:1013400082600868502830D00DDC20284DD005DCA4
:1013500098B310283BD148E0022070BD302844D01B
:10136000402834D139E0602828D0702806D0B0F564
:10137000805F2CD0B0F5005F29D10AE0CB68D1E9BD
:101380000121206801F027F82068816841F0770189
:1013900009E0CB68D1E90121206801F01CF8206840
:1013A000816841F48041816011E0CA684968206821
:1013B00001F0C6F85021206807E016E0CA684968C5
:1013C000206801F0CEF86021206801F00EF884F862
:1013D0003D50002084F83C0070BDCA684968206810
:1013E00001F0AEF840212068EFE722680146104680
:1013F000EBE72DE9F0410D46040003D094F83D00E1
:1014000018B108E00120BDE8F081002084F83C001C
:10141000204600F041F8022084F83D0020688168F1
:1014200044F2070291438160211D206800F098FF7B
:10143000226890689169166A2B68AF69034340F28D
:101440000330814341EA0721A868EF6908434FF65A
:10145000FC418843E96840EA0720014328692F6A74
:10146000000140EA0730084369686D6926F02206EA
:1014700046EA0515294393602268906154F8460BAB
:101480000162012004F81F09E0752076E0762077DC
:10149000A0750020B7E7000000B585B000210091DD
:1014A000019102910391194B0268194919489A4216
:1014B00012D18A6942F400628A618A6902F4006288
:1014C00004928A6942F004028A61896901F0040188
:1014D00004914FF4407113E00F4B9A4214D1CA6942
:1014E00042F00202CA61CA6902F0020204928A69E9
:1014F00042F004028A61896901F004010491C0216B
:1015000000916946FFF752FA05B000BD002C01407A
:1015100000100240000801400004004070B590F83F
:101520003E60044690F83F5090F8423090F84320D7
:10153000022021B104290ED0012E1BD114E0012E6E
:1015400018D1012B16D184F83E0084F84200012204
:101550000021206820E0012D0CD1012A0AD184F855
:101560003F0084F8430014E0012D03D1012B01D189
:10157000012A01D0012070BD84F83E0084F83F00AC
:1015800084F8420084F8430001220021206800F022
:1015900015FF01220421206800F010FF2068016877
:1015A00041F001010160002070BD704770B5044634
:1015B000006801694FF00005C943890715D4C16867
:1015C000C943890711D4E91E0161012020772068F1
:1015D00080698007204602D0FFF7E7FF04E000F0B3
:1015E000BDF8204600F04CF9257720680169C94311
:1015F000490717D4C168C943490713D46FF00401E0
:101600000161022020772068806910F4407F204625
:1016100002D0FFF7CAFF04E000F0A0F8204600F077
:101620002FF9257720680169C943090716D4C168D5
:10163000C943090712D46FF0080101610420207723
:101640002068C0698007204602D0FFF7AEFF04E0A3
:1016500000F084F8204600F013F92577206801692E
:10166000C943C90617D4C168C943C90613D46FF06A
:1016700010010161082020772068C06910F4407FC4
:10168000204602D0FFF791FF04E000F067F8204603
:1016900000F0F6F8257720680169C943C90708D129
:1016A000C168C943C90704D1891E0161204600F001
:1016B00033F920680169C943090609D4C168C943DF
:1016C000090605D46FF0800101612046FFF782FD15
:1016D00020680169C943490609D4C168C94349065C
:1016E00005D46FF040010161204600F03FF9206809
:1016F0000169C94389060BD4C168C943890607D467
:101700006FF0200101612046BDE87040FFF763BD26
:1017100070BD000000B585B00021009101910291DB
:1017200003910068B0F1804F11D10A48816941F0FE
:10173000040181618069694600F00400049003207F
:1017400000900220019003900348FFF72FF905B0A5
:1017500000BD00000010024000080140704770B555
:10176000044690F83C000D4601280AD0012084F878
:101770003C0042B1042A18D0082A2AD00C2A4DD1A4
:1017800039E0022070BD206800F038FE20688169D1
:1017900041F0080181612068816921F004018161C3
:1017A000206881692A69114311E0206800F04EFE2B
:1017B0002068816941F4006181612068816921F4B8
:1017C00080618161206881692A6941EA0221816121
:1017D00024E0206800F066FE2068C16941F008013D
:1017E000C1612068C16921F00401C1612068C1693B
:1017F0002A69114311E0206800F080FE2068C16969
:1018000041F40061C1612068C16921F48061C16156
:101810002068C1692A6941EA0221C161002084F877
:101820003C0070BD10B5040003D094F83D0010B129
:1018300007E0012010BD002084F83C00204600F0A5
:101840001EF8022084F83D00211D206800F088FD6C
:10185000012084F8460084F83E0084F83F0084F8B4
:10186000400084F8410084F8420084F8430084F882
:10187000440084F8450084F83D00002010BD704706
:101880007047000010B50446022249B104290ED069
:10189000082913D094F84100012816D0012010BD6A
:1018A00094F83E000128F9D184F83E200FE094F826
:1018B0003F000128F2D184F83F2008E094F840006E
:1018C0000128EBD184F8402001E084F84120012276
:1018D000206800F073FD0E492068884203D1426CF5
:1018E00042F4004242642068884205D0B0F1804F43
:1018F00002D00849884204D1816801F00701062915
:1019000003D0016841F001010160002010BD00001A
:10191000002C01400004004010B50068B0F1804F79
:1019200016D10C480D4A0168491C01600A48416AF9
:1019300011600B4A816A11600A4AC16A11600A4942
:10194000006C086000F0BCFABDE8104000F09ABCE2
:1019500010BD0000600000200401002038000020BD
:101960003C000020400000205C00002070477047D1
:1019700070470000F8B5026804461068D1685369E2
:1019800010F00F0F4FF0000553D003F0010601F4E3
:10199000907737435FD0C20705D0CA0503D5226CC4
:1019A00042F001022264420705D5DA0703D0226C17
:1019B00042F002022264820705D5DA0703D0226CC6
:1019C00042F004022264020707D501F020023243EC
:1019D00003D0226C42F008022264226C002A34D028
:1019E000800604D5880602D5204600F0ECFD20686C
:1019F0004069216CC0F38010090700D430B3204641
:101A000000F0C9FD2068416949061BD5416921F0F4
:101A100040014161A06BA8B158494163A06BFEF73A
:101A200079FF002811D0A06B416B01B0BDE8F040F8
:101A3000084783060FD58B060DD52046BDE8F84034
:101A400000F0C1BD2046FFF793FFF8BD2046FFF729
:101A50008FFF2564F8BD266B2023012E52D1C606C8
:101A600050D5CE064ED5106850680090506940069B
:101A70002AD5A16B086840680004000CEAD0A68D46
:101A80008642E7D9E0858869202818D0D06820F4FC
:101A90008070D0602068416921F0010141612068B7
:101AA000416921F04001416184F83E30256320689E
:101AB000C16821F01001C160A06BFEF708FFA08D86
:101AC000E18D401A81B219E0A08DE18D401A81B2FA
:101AD000E08D0028BED00029BCD0D06820F49070E2
:101AE000D0602068426922F00102426184F83E30F1
:101AF00025632068C26822F01002C2602046FFF70A
:101B000036FFF8BD05062BD50D0629D594F83D0006
:101B10002128F6D1A068B0F5805F01D12069B0B16D
:101B2000206A411C2162216800784860E08C401ED8
:101B30000004000CE084E4D12068C16821F0800139
:101B4000C1602068C16841F04001C160F8BD206AF1
:101B50000088C0F308005060206A801C2062E5E71E
:101B60004006F3D54806F1D5D168204621F0400162
:101B7000D16084F83D3000F0ADF8F8BD872500084D
:101B800070B5040004D094F83D00002510B106E0C3
:101B9000012070BD84F83C50204600F023F824203A
:101BA00084F83D002068C16821F40051C1602046DE
:101BB00000F064FD2068016921F490410161206812
:101BC000416921F02A0141612068C16841F4005156
:101BD000C1602564202084F83D0084F83E00002088
:101BE00070BD000030B585B00024009401940294CB
:101BF000039400681B49884232D11B48816941F433
:101C000080418161816901F480410491816941F0E1
:101C1000080181618069154D00F0080004904020A2
:101C20000090022001900320039069462846FEF7A9
:101C3000BDFE8020CDE90004694628460294FEF7E7
:101C4000B5FE0B48416841F0E06141F0040141609C
:101C5000002211462520FEF7FBFF2520FEF7EAFFB4
:101C600005B030BD0038014000100240000C0140BA
:101C70000000014090F83E30202B0ED159B152B1F6
:101C800090F83C30012B08D0012380F83C30002331
:101C9000036300F04FBD0120704702207047000031
:101CA00010B50068084988420CD1084C21206070AA
:101CB000204600F011F82122E11CBDE81040044844
:101CC000FFF7D8BF10BD000000380140040100201C
:101CD000C40200207047FEE72DE9F05F044640781B
:101CE00021287DD36F4F00266FF00E0906EB4600CA
:101CF00000EBC6002044A278C178914270D10179EE
:101D0000513909291DD2DFE801F0051D3B59C57184
:101D100082C5AD0050F8051F396040680025786025
:101D200037F91500FEF77CFC4946FEF7E5FA042179
:101D3000FEF7E2FA04EB85016D1CEDB20863032D9A
:101D4000EED3A7E050F8051FB960DFF8588140686E
:101D5000DFF854A1002508F10808F86038F91500EB
:101D6000FEF75EFC4946FEF7C7FA5146FEF754FA05
:101D700004EB85016D1CEDB2C863032DEED389E041
:101D800050F8051F3961DFF81C814068DFF81CA19D
:101D9000002508F11008786138F91500FEF740FCBD
:101DA0004946FEF7A9FA5146FEF736FA04EB8501DB
:101DB0006D1CEDB24862032DEED36BE050F8051FA9
:101DC000B961DFF8E0804068002508F11808F86183
:101DD00038F91500FEF724FC04EB85016D1C00E0CA
:101DE0005DE0EDB28864032DF2D353E050F8051F97
:101DF0003962456808467D62FEF712FC6065284638
:101E0000FEF70EFC2A49FEF739FAA06542E050F8C9
:101E1000051FF962406838632648224A91FBF0F1B9
:101E20002832254D1168DFF894B091FBF0F200FBE9
:101E300012108A46FEF7FDFB00222B46FEF781FBBF
:101E4000054688465046FEF7EBFB5946FEF716FA64
:101E5000FEF738FC2A464346FEF75AFAFEF745FCE1
:101E6000A06617E050F8051F3963DFF83880406836
:101E7000002508F13008786338F91500FEF7D0FB2B
:101E80004946FEF739FA04EB85016D1CEDB248674F
:101E9000042DF1D3761CF6B2092EFFF427AFBDE86E
:101EA000F09F0000000000200000FA4400003443CE
:101EB0000000C84280969800006AF8408096184B4F
:101EC00070B50D4C0D48616A4160A16A8160E16A9C
:101ED000C160206BFEF7BEFB084D803D2880606B23
:101EE000FEF7B8FB6880A06BFEF7B4FBA880206CFF
:101EF000FEF7B0FBE88070BD04010020F400002074
:101F00002DE9F04786B000242D48009401940294F6
:101F10000394816941F010018161816901F0100130
:101F20000491816941F020018161816901F0200102
:101F30000491816941F004018161816901F004012A
:101F40000491816941F0080181618069DFF8748042
:101F500000F008004FF40055049000222946404646
:101F6000FEF704FEDFF86090AF00002239464846D5
:101F7000FEF7FCFDDFF854A0002238215046FEF7A2
:101F8000F5FD0095022601250396CDE90154694629
:101F90004046FEF70BFD00970396CDE901546946D4
:101FA0004846FEF703FD3820CDE90005CDE902469D
:101FB00069465046FEF7FAFC06B0BDE8F08700001F
:101FC000001002400010014000080140000C0140D8
:101FD00010B58CB024216846FEF7BBF800241648E3
:101FE000099414490A94C0E900144FF6FF71C0E93E
:101FF00002410461446184610320CDE900040120B1
:10200000CDE902040494CDE90540079469460A48E5
:102010000894FFF7EEF908B1FEF758FC099409A9F6
:1020200005480A94FFF7D8F8002801D0FEF74EFCC7
:102030000CB010BD002C0140EC01002010B58EB09A
:1020400000240794089409940A940B941C21684670
:102050000C94FEF77EF822484FF080410160472142
:10206000C0E9011440F2CF71C0E903148461FFF7A5
:10207000E3F808B1FEF72AFC4FF48050079007A957
:102080001748FFF74BF908B1FEF720FC1448FFF79B
:10209000C9FB08B1FEF71AFC0B940BA910480C946D
:1020A000FFF79AF808B1FEF711FC6020CDE90004B3
:1020B0000294002269460A480494FFF750FB08B1D5
:1020C000FEF704FC042269460548FFF748FB08B107
:1020D000FEF7FCFB0248FFF71DFB0EB010BD000031
:1020E0003402002010B58CB024216846FEF731F888
:1020F00000241648099414490A94C0E900144FF6C4
:10210000FF71C0E90241046184610320CDE900044C
:102110000120CDE902040494CDE905400794694605
:102120000A480894FFF765F908B1FEF7CFFB099458
:1021300009A906480A94FFF74FF8002801D0FEF7D6
:10214000C5FB0CB010BD0000000400407C02002064
:102150000C4810B50A4901604FF4E131416000219B
:1021600081600C22C160C0E904128161C161FFF786
:1021700007FD002803D0BDE81040FEF7A7BB10BD47
:1021800000380140C4020020FEE700002DE9F041C4
:1021900004461F4F1F4D6642012911D002290DD15F
:1021A00089031D48002C27DB0122FEF7DFFC0022FB
:1021B00008213846FEF7DAFC28688463BDE8F08120
:1021C000002C0CDB002210213846FEF7CFFC012248
:1021D00020213846FEF7CAFC28684463EEE7012256
:1021E00010213846FEF7C2FC002220213846FEF7B7
:1021F000BDFC28684663E1E70022FEF7B7FC012238
:1022000008213846FEF7B2FC28688663D6E700004E
:10221000000C014034020020000801407047704764
:1022200012494FF080420020C1E900208860C86058
:1022300008611431C1E900208860C8600861143168
:102240000B4AC1E900200B4AC1E90220086148613C
:102250008861C861086248622831074AC1E90020E4
:10226000064AC1E902200861704700008801002089
:10227000000098C2000048C30000AAC2000040C08D
:102280007047000070B51A4CB4F90600FEF7C8F9A3
:1022900004F180050146A86800F036FB6064D4E9CB
:1022A000040100F0D5FA0021A1642064626C10449E
:1022B000E0644FF4FA622065904201DBE26403E0DF
:1022C0000C4AE264904200DC22650B4AA868904206
:1022D00002DA0A4A904201D3E16421650121E06CEF
:1022E000FFF754FF206DBDE870400221FFF74EBF9D
:1022F0007400002030F8FFFF0000A0420000A0C2E0
:10230000FEF740BC30B58FB028216846FDF721FFAD
:1023100014210AA8FDF71DFF01210804CDE90010D2
:102320000024029402250491CDE907504FF4E010F7
:1023300009906846FEF7AAFD0F20CDE90A0568025C
:10234000CDE90C4002210AA80E94FEF7B3FC0FB0B1
:1023500030BD70470148FFF729B900003402002062
:1023600070B50268134B144C4FF08046984203D06E
:10237000B04201D0A04203D122F070054A682A433E
:10238000984203D0B04201D0A04203D122F440745D
:10239000CA6822434C6922F08002224302608A68A4
:1023A000C2620A688262984201D10969016301210F
:1023B000416170BD002C01400004004010B501F0E7
:1023C0001F030121046A99408C430462016A9A4008
:1023D0001143016210BD10B5846842EA032224F45F
:1023E0007F440A432243826010BD826822F070025B
:1023F0000A4342F0070181607047000030B5026A6D
:1024000022F001020262026A4368846924F07305C3
:102410000C682C4322F002058A682A430A4DA84220
:102420000BD122F00805CA6823F440732A434D6992
:1024300022F004021D438B692B4343608461496889
:102440004163026230BD0000002C014030B5026AD9
:1024500022F010020262026A436884690D6824F463
:10246000E64444EA05248D6822F0200242EA05127F
:102470000B4DA8420ED1CD6822F0800242EA05122F
:102480004D6923F4406343EA85038D6922F04002DD
:1024900043EA85034360846149688163026230BD19
:1024A000002C014030B5026A22F480720262036A95
:1024B0004268C46923F4007324F073050C682C434C
:1024C0008D6843EA05230C4DA8420ED1CD6823F454
:1024D000006343EA05234D6922F4405242EA0512A3
:1024E0008D6923F4806342EA05124260C461496841
:1024F000C163036230BD0000002C014030B5026AA8
:1025000022F480520262046A4268C3690D6823F4AF
:10251000E64343EA05238D6824F4005444EA053475
:10252000064DA84204D14D6922F4804242EA851248
:102530004260C36149680164046230BD002C0140FF
:1025400010B5036A046A24F001040462846924F06B
:10255000F00444EA021423F00A020A43846102628E
:1025600010BD10B5036A23F0100303628369046A87
:1025700023F4704343EA023224F0A00343EA01113A
:102580008261016210BD10B5406A0021C185C1841D
:10259000FFF7EEF910BD0168CA6822F49072CA60B4
:1025A00001684A6922F001024A61016B012904D1E4
:1025B0000168CA6822F01002CA60202180F83E102B
:1025C00000210163704708B590F83E10222901D020
:1025D000022008BD82684FF480539A4201D10169FC
:1025E00021B1816A9A421BD04AB10AE00268816A2D
:1025F0005268C2F308020A80816A891C08E00269F5
:1026000072B10268526802F07F020A70816A491C46
:102610008162C18D491E0904090CC18503D019E0EE
:1026200002685268F1E70168CA6822F02002CA60B5
:102630000168CA6822F48072CA6001684A6922F09F
:1026400001024A61202180F83E10016B012903D06C
:10265000FFF726FB002008BD002101630168CA685E
:1026600022F01002CA6001680A68D20602D50A6820
:1026700049680091818DFFF77AF9EBE770B5044660
:1026800000680169E26821F4405111430161216948
:10269000A0680843616908432168CA6841F20C6375
:1026A0009A430243CA6020684169A26921F44071DB
:1026B000114341611E492068884202D1FEF7A0FB08
:1026C00001E0FEF78DFB00EBC00101EB001260683A
:1026D00064218000B2FBF0F3B3FBF1F36FF0180656
:1026E0007343B2FBF0F5B2FBF0F605EB8305322342
:1026F00003EB0515B5FBF1F5B6FBF1F605F0F005BA
:1027000005EB0615B2FBF0F6B2FBF0F0B0FBF1F012
:102710006FF01802504306EB800003EB0010B0FB93
:10272000F1F0216800F00F002844886070BD0000BF
:102730000038014081628285C28500210164222225
:1027400080F83E2080F83C100168CA6842F480722C
:10275000CA6001684A6942F001024A610068C168C2
:1027600041F02001C1600020704700000148FFF7E0
:1027700001B90000C4020020FEE700210A46431808
:10278000491C89B2DA702129F9D355218170027070
:102790002121417070470907090E002804DB00F170
:1027A000E02080F80014704700F00F0000F1E020F6
:1027B00080F8141D704702E008C8121F08C1002AE3
:1027C000FAD170477047002001E001C1121F002AB2
:1027D000FBD17047FEF7DEF9FFF794FDFFF790FBA2
:1027E000FFF72CFCFFF7B4FCFFF7F2FBFFF77AFCD6
:1027F0001248FFF7C2FF1248FEF768FD0F49212279
:10280000C91C1048FFF736FA00210D48FFF73AF8C7
:1028100004210B48FFF736F83C210B48FEF77EFEFB
:1028200000210A48FEF77AFE04210848FEF776FEEA
:10283000FFF7F6FCFEF73EF8FEE70000040100207B
:1028400034020020C4020020EC0100207C020020A1
:102850002DE9F041264D0844696D441AE86FFDF7F3
:10286000E8FE244E244B3246FDF7F9FDFDF70BFF41
:1028700007462046FDF7DDFE3246204BFDF7EFFD13
:1028800004460E463846FDF7D4FE22463346FDF791
:102890003FFDFDF7F8FE05F18004E8672168064674
:1028A00008444FF4FA512060884202DC49428842D1
:1028B00000DA21602068FDF7B3FEA96EFDF7ACFCDD
:1028C00007463046FDF7ACFE696EFDF7A5FC3946BC
:1028D000FDF74AFCFDF7BEFE6867094A6168914250
:1028E00002DA084A914201D300212160BDE8F0815B
:1028F000740000209A9999999999E93F9999C93F4B
:102900000000A0420000A0C270B50B4C0D46A16DA6
:10291000FDF77FFC06462846216EFDF77DFC054647
:102920003146E06DFDF778FC2946FDF71DFCBDE85A
:102930007040FDF78FBE0000740000200000000012
:10294000000000000102030406070809000000005F
:1029500001020304742900080000002004010000A3
:10296000B6270008782A00080401002004060000A9
:10297000C627000800000000000000000000000062
:102980000000000000000000000000000000000047
:102990000000000000000000000000000000000037
:1029A0000000000000000000000000000000000027
:1029B0000000000000000000000000000000000017
:1029C0000000000000000000000000000000000007
:1029D00000000000000000000100000010000000E6
:1029E000000000000024F4000000000000000000CF
:1029F00000000000000000000000000000000000D7
:102A000000000000000000000000000000000000C6
:102A100000000000000000000000000000000000B6
:102A200000000000000000000000000000000000A6
:102A30000000000000000000000000000000000096
:102A40000000C03F000096C3713D8A3F0000704106
:102A50009A99993D0000A0419A99193F0000000001
:102A60000000000000000000000000000000000066
:082A700000000000000000005E
:04000005080000ED02
:00000001FF
